{
  "_format": "hh-sol-artifact-1",
  "contractName": "Pool",
  "sourceName": "contracts/Pool.sol",
  "abi": [
    {
      "inputs": [
        {
          "internalType": "address",
          "name": "token0",
          "type": "address"
        },
        {
          "internalType": "address",
          "name": "token1",
          "type": "address"
        }
      ],
      "stateMutability": "nonpayable",
      "type": "constructor"
    },
    {
      "inputs": [
        {
          "internalType": "address",
          "name": "spender",
          "type": "address"
        },
        {
          "internalType": "uint256",
          "name": "allowance",
          "type": "uint256"
        },
        {
          "internalType": "uint256",
          "name": "needed",
          "type": "uint256"
        }
      ],
      "name": "ERC20InsufficientAllowance",
      "type": "error"
    },
    {
      "inputs": [
        {
          "internalType": "address",
          "name": "sender",
          "type": "address"
        },
        {
          "internalType": "uint256",
          "name": "balance",
          "type": "uint256"
        },
        {
          "internalType": "uint256",
          "name": "needed",
          "type": "uint256"
        }
      ],
      "name": "ERC20InsufficientBalance",
      "type": "error"
    },
    {
      "inputs": [
        {
          "internalType": "address",
          "name": "approver",
          "type": "address"
        }
      ],
      "name": "ERC20InvalidApprover",
      "type": "error"
    },
    {
      "inputs": [
        {
          "internalType": "address",
          "name": "receiver",
          "type": "address"
        }
      ],
      "name": "ERC20InvalidReceiver",
      "type": "error"
    },
    {
      "inputs": [
        {
          "internalType": "address",
          "name": "sender",
          "type": "address"
        }
      ],
      "name": "ERC20InvalidSender",
      "type": "error"
    },
    {
      "inputs": [
        {
          "internalType": "address",
          "name": "spender",
          "type": "address"
        }
      ],
      "name": "ERC20InvalidSpender",
      "type": "error"
    },
    {
      "inputs": [],
      "name": "ReentrancyGuardReentrantCall",
      "type": "error"
    },
    {
      "anonymous": false,
      "inputs": [
        {
          "indexed": true,
          "internalType": "uint256",
          "name": "lpToken",
          "type": "uint256"
        },
        {
          "indexed": false,
          "internalType": "address",
          "name": "token0",
          "type": "address"
        },
        {
          "indexed": true,
          "internalType": "uint256",
          "name": "amount0",
          "type": "uint256"
        },
        {
          "indexed": false,
          "internalType": "address",
          "name": "token1",
          "type": "address"
        },
        {
          "indexed": true,
          "internalType": "uint256",
          "name": "amount1",
          "type": "uint256"
        }
      ],
      "name": "AddedLiquidity",
      "type": "event"
    },
    {
      "anonymous": false,
      "inputs": [
        {
          "indexed": true,
          "internalType": "address",
          "name": "owner",
          "type": "address"
        },
        {
          "indexed": true,
          "internalType": "address",
          "name": "spender",
          "type": "address"
        },
        {
          "indexed": false,
          "internalType": "uint256",
          "name": "value",
          "type": "uint256"
        }
      ],
      "name": "Approval",
      "type": "event"
    },
    {
      "anonymous": false,
      "inputs": [
        {
          "indexed": false,
          "internalType": "address",
          "name": "tokenIn",
          "type": "address"
        },
        {
          "indexed": true,
          "internalType": "uint256",
          "name": "amountIn",
          "type": "uint256"
        },
        {
          "indexed": false,
          "internalType": "address",
          "name": "tokenOut",
          "type": "address"
        },
        {
          "indexed": true,
          "internalType": "uint256",
          "name": "amountOut",
          "type": "uint256"
        }
      ],
      "name": "Swapped",
      "type": "event"
    },
    {
      "anonymous": false,
      "inputs": [
        {
          "indexed": true,
          "internalType": "address",
          "name": "from",
          "type": "address"
        },
        {
          "indexed": true,
          "internalType": "address",
          "name": "to",
          "type": "address"
        },
        {
          "indexed": false,
          "internalType": "uint256",
          "name": "value",
          "type": "uint256"
        }
      ],
      "name": "Transfer",
      "type": "event"
    },
    {
      "inputs": [
        {
          "internalType": "uint256",
          "name": "amount0",
          "type": "uint256"
        }
      ],
      "name": "addLiquidity",
      "outputs": [],
      "stateMutability": "nonpayable",
      "type": "function"
    },
    {
      "inputs": [
        {
          "internalType": "address",
          "name": "owner",
          "type": "address"
        },
        {
          "internalType": "address",
          "name": "spender",
          "type": "address"
        }
      ],
      "name": "allowance",
      "outputs": [
        {
          "internalType": "uint256",
          "name": "",
          "type": "uint256"
        }
      ],
      "stateMutability": "view",
      "type": "function"
    },
    {
      "inputs": [
        {
          "internalType": "address",
          "name": "spender",
          "type": "address"
        },
        {
          "internalType": "uint256",
          "name": "value",
          "type": "uint256"
        }
      ],
      "name": "approve",
      "outputs": [
        {
          "internalType": "bool",
          "name": "",
          "type": "bool"
        }
      ],
      "stateMutability": "nonpayable",
      "type": "function"
    },
    {
      "inputs": [
        {
          "internalType": "address",
          "name": "account",
          "type": "address"
        }
      ],
      "name": "balanceOf",
      "outputs": [
        {
          "internalType": "uint256",
          "name": "",
          "type": "uint256"
        }
      ],
      "stateMutability": "view",
      "type": "function"
    },
    {
      "inputs": [],
      "name": "decimals",
      "outputs": [
        {
          "internalType": "uint8",
          "name": "",
          "type": "uint8"
        }
      ],
      "stateMutability": "view",
      "type": "function"
    },
    {
      "inputs": [
        {
          "internalType": "address",
          "name": "tokenIn",
          "type": "address"
        },
        {
          "internalType": "uint256",
          "name": "amountIn",
          "type": "uint256"
        },
        {
          "internalType": "address",
          "name": "tokenOut",
          "type": "address"
        }
      ],
      "name": "getAmountOut",
      "outputs": [
        {
          "internalType": "uint256",
          "name": "",
          "type": "uint256"
        }
      ],
      "stateMutability": "view",
      "type": "function"
    },
    {
      "inputs": [
        {
          "internalType": "uint256",
          "name": "amount0",
          "type": "uint256"
        }
      ],
      "name": "getRequiredAmount1",
      "outputs": [
        {
          "internalType": "uint256",
          "name": "",
          "type": "uint256"
        }
      ],
      "stateMutability": "view",
      "type": "function"
    },
    {
      "inputs": [],
      "name": "name",
      "outputs": [
        {
          "internalType": "string",
          "name": "",
          "type": "string"
        }
      ],
      "stateMutability": "view",
      "type": "function"
    },
    {
      "inputs": [
        {
          "internalType": "address",
          "name": "tokenIn",
          "type": "address"
        },
        {
          "internalType": "uint256",
          "name": "amountIn",
          "type": "uint256"
        },
        {
          "internalType": "address",
          "name": "tokenOut",
          "type": "address"
        }
      ],
      "name": "swap",
      "outputs": [],
      "stateMutability": "nonpayable",
      "type": "function"
    },
    {
      "inputs": [],
      "name": "symbol",
      "outputs": [
        {
          "internalType": "string",
          "name": "",
          "type": "string"
        }
      ],
      "stateMutability": "view",
      "type": "function"
    },
    {
      "inputs": [],
      "name": "totalSupply",
      "outputs": [
        {
          "internalType": "uint256",
          "name": "",
          "type": "uint256"
        }
      ],
      "stateMutability": "view",
      "type": "function"
    },
    {
      "inputs": [
        {
          "internalType": "address",
          "name": "to",
          "type": "address"
        },
        {
          "internalType": "uint256",
          "name": "value",
          "type": "uint256"
        }
      ],
      "name": "transfer",
      "outputs": [
        {
          "internalType": "bool",
          "name": "",
          "type": "bool"
        }
      ],
      "stateMutability": "nonpayable",
      "type": "function"
    },
    {
      "inputs": [
        {
          "internalType": "address",
          "name": "from",
          "type": "address"
        },
        {
          "internalType": "address",
          "name": "to",
          "type": "address"
        },
        {
          "internalType": "uint256",
          "name": "value",
          "type": "uint256"
        }
      ],
      "name": "transferFrom",
      "outputs": [
        {
          "internalType": "bool",
          "name": "",
          "type": "bool"
        }
      ],
      "stateMutability": "nonpayable",
      "type": "function"
    },
    {
      "inputs": [
        {
          "internalType": "uint256",
          "name": "amount0",
          "type": "uint256"
        },
        {
          "internalType": "uint256",
          "name": "amount1",
          "type": "uint256"
        }
      ],
      "name": "withdrawingliquidity",
      "outputs": [],
      "stateMutability": "nonpayable",
      "type": "function"
    }
  ],
  "bytecode": "0x6101006040523480156200001257600080fd5b506040516200183d3803806200183d8339810160408190526200003591620000e0565b6040518060400160405280600781526020016626282a37b5b2b760c91b8152506040518060400160405280600381526020016213141560ea1b81525081818160039081620000849190620001bd565b506004620000938282620001bd565b505060016005555050506001600160a01b039182166080819052911660a081905260c09190915260e05262000289565b80516001600160a01b0381168114620000db57600080fd5b919050565b60008060408385031215620000f457600080fd5b620000ff83620000c3565b91506200010f60208401620000c3565b90509250929050565b634e487b7160e01b600052604160045260246000fd5b600181811c908216806200014357607f821691505b6020821081036200016457634e487b7160e01b600052602260045260246000fd5b50919050565b601f821115620001b857600081815260208120601f850160051c81016020861015620001935750805b601f850160051c820191505b81811015620001b4578281556001016200019f565b5050505b505050565b81516001600160401b03811115620001d957620001d962000118565b620001f181620001ea84546200012e565b846200016a565b602080601f831160018114620002295760008415620002105750858301515b600019600386901b1c1916600185901b178555620001b4565b600085815260208120601f198616915b828110156200025a5788860151825594840194600190910190840162000239565b5085821015620002795787850151600019600388901b60f8161c191681555b5050505050600190811b01905550565b60805160a05160c05160e05161151862000325600039600081816105fe015281816106740152818161076d0152818161081a01528181610b220152610e59015260008181610390015281816104d70152818161064f01528181610732015281816107df01528181610aef01528181610bff0152610d3801526000818161053c0152610d970152600081816104140152610c7501526115186000f3fe608060405234801561001057600080fd5b50600436106100ea5760003560e01c806370a082311161008c578063a9059cbb11610066578063a9059cbb146101d0578063d09ccb9d146101e3578063dd62ed3e146101f6578063ff9c8ac61461022f57600080fd5b806370a082311461018c578063929f8c75146101b557806395d89b41146101c857600080fd5b806323b872dd116100c857806323b872dd14610142578063313ce5671461015557806351c6590a146101645780636d069a671461017957600080fd5b806306fdde03146100ef578063095ea7b31461010d57806318160ddd14610130575b600080fd5b6100f7610242565b6040516101049190611275565b60405180910390f35b61012061011b3660046112df565b6102d4565b6040519015158152602001610104565b6002545b604051908152602001610104565b610120610150366004611309565b6102ee565b60405160128152602001610104565b610177610172366004611345565b610312565b005b61017761018736600461135e565b6106d9565b61013461019a36600461139a565b6001600160a01b031660009081526020819052604090205490565b6101346101c3366004611345565b610ae5565b6100f7610b84565b6101206101de3660046112df565b610b93565b6101776101f13660046113bc565b610ba1565b6101346102043660046113de565b6001600160a01b03918216600090815260016020908152604080832093909416825291909152205490565b61013461023d36600461135e565b610ea1565b60606003805461025190611411565b80601f016020809104026020016040519081016040528092919081815260200182805461027d90611411565b80156102ca5780601f1061029f576101008083540402835291602001916102ca565b820191906000526020600020905b8154815290600101906020018083116102ad57829003601f168201915b5050505050905090565b6000336102e2818585610ef1565b60019150505b92915050565b6000336102fc858285610efe565b610307858585610f7d565b506001949350505050565b61031a610fdc565b6000811161036f5760405162461bcd60e51b815260206004820152601d60248201527f416d6f756e74206d7573742062652067726561746572207468616e203000000060448201526064015b60405180910390fd5b600061037a82610ae5565b905060008061038860025490565b11156103e5577f00000000000000000000000000000000000000000000000000000000000000006001600160a01b03166000908152600660205260409020546002546103d49085611461565b6103de9190611478565b90506103e8565b50815b6103f23382611006565b6040516323b872dd60e01b8152336004820152306024820152604481018490527f00000000000000000000000000000000000000000000000000000000000000006001600160a01b0316906323b872dd906064016020604051808303816000875af1158015610465573d6000803e3d6000fd5b505050506040513d601f19601f82011682018060405250810190610489919061149a565b6104cd5760405162461bcd60e51b8152602060048201526015602482015274151c985b9cd9995c88105b1c1a184819985a5b1959605a1b6044820152606401610366565b6001600160a01b037f000000000000000000000000000000000000000000000000000000000000000016600090815260066020526040812080548592906105159084906114bc565b90915550506040516323b872dd60e01b8152336004820152306024820152604481018390527f00000000000000000000000000000000000000000000000000000000000000006001600160a01b0316906323b872dd906064016020604051808303816000875af115801561058d573d6000803e3d6000fd5b505050506040513d601f19601f820116820180604052508101906105b1919061149a565b6105f45760405162461bcd60e51b8152602060048201526014602482015273151c985b9cd9995c8810995d184819985a5b195960621b6044820152606401610366565b6001600160a01b037f0000000000000000000000000000000000000000000000000000000000000000166000908152600660205260408120805484929061063c9084906114bc565b9091555050604080516001600160a01b037f0000000000000000000000000000000000000000000000000000000000000000811682527f00000000000000000000000000000000000000000000000000000000000000001660208201528391859184917f86c3929a230b573aa47cd83759aed11b800d147abc23e246dfeb5ebbd7a110e3910160405180910390a450506106d66001600555565b50565b6106e1610fdc565b806001600160a01b0316836001600160a01b0316036107305760405162461bcd60e51b815260206004820152600b60248201526a53616d6520746f6b656e7360a81b6044820152606401610366565b7f00000000000000000000000000000000000000000000000000000000000000006001600160a01b0316836001600160a01b031614806107a157507f00000000000000000000000000000000000000000000000000000000000000006001600160a01b0316836001600160a01b0316145b6107dd5760405162461bcd60e51b815260206004820152600d60248201526c24b73b30b634b2103a37b5b2b760991b6044820152606401610366565b7f00000000000000000000000000000000000000000000000000000000000000006001600160a01b0316816001600160a01b0316148061084e57507f00000000000000000000000000000000000000000000000000000000000000006001600160a01b0316816001600160a01b0316145b61088a5760405162461bcd60e51b815260206004820152600d60248201526c24b73b30b634b2103a37b5b2b760991b6044820152606401610366565b600082116108c85760405162461bcd60e51b815260206004820152600b60248201526a16995c9bc8185b5bdd5b9d60aa1b6044820152606401610366565b60006108d5848484610ea1565b6040516323b872dd60e01b8152336004820152306024820152604481018590529091506001600160a01b038516906323b872dd906064016020604051808303816000875af115801561092b573d6000803e3d6000fd5b505050506040513d601f19601f8201168201806040525081019061094f919061149a565b6109895760405162461bcd60e51b815260206004820152600b60248201526a14ddd85c0811985a5b195960aa1b6044820152606401610366565b60405163a9059cbb60e01b8152336004820152602481018290526001600160a01b0383169063a9059cbb906044016020604051808303816000875af11580156109d6573d6000803e3d6000fd5b505050506040513d601f19601f820116820180604052508101906109fa919061149a565b610a345760405162461bcd60e51b815260206004820152600b60248201526a14ddd85c0811985a5b195960aa1b6044820152606401610366565b6001600160a01b03841660009081526006602052604081208054859290610a5c9084906114bc565b90915550506001600160a01b03821660009081526006602052604081208054839290610a899084906114cf565b9091555050604080516001600160a01b03808716825284166020820152829185917fdb587d878116df0bdd4fe154699aa2c5f439da001cc811dfd05d9f589fc5a8ee910160405180910390a350610ae06001600555565b505050565b6001600160a01b037f00000000000000000000000000000000000000000000000000000000000000008116600090815260066020526040808220547f00000000000000000000000000000000000000000000000000000000000000009093168252812054909190811580610b57575080155b15610b6f57610b67600285611461565b949350505050565b81610b7a8286611461565b610b679190611478565b60606004805461025190611411565b6000336102e2818585610f7d565b600082118015610bb15750600081115b610bfd5760405162461bcd60e51b815260206004820152601d60248201527f416d6f756e74206d7573742062652067726561746572207468616e20300000006044820152606401610366565b7f00000000000000000000000000000000000000000000000000000000000000006001600160a01b0316600090815260066020526040812054600254610c439085611461565b610c4d9190611478565b9050610c593382611040565b60405163a9059cbb60e01b8152336004820152602481018490527f00000000000000000000000000000000000000000000000000000000000000006001600160a01b03169063a9059cbb906044016020604051808303816000875af1158015610cc6573d6000803e3d6000fd5b505050506040513d601f19601f82011682018060405250810190610cea919061149a565b610d2e5760405162461bcd60e51b8152602060048201526015602482015274151c985b9cd9995c88105b1c1a184819985a5b1959605a1b6044820152606401610366565b6001600160a01b037f00000000000000000000000000000000000000000000000000000000000000001660009081526006602052604081208054859290610d769084906114cf565b909155505060405163a9059cbb60e01b8152336004820152602481018390527f00000000000000000000000000000000000000000000000000000000000000006001600160a01b03169063a9059cbb906044016020604051808303816000875af1158015610de8573d6000803e3d6000fd5b505050506040513d601f19601f82011682018060405250810190610e0c919061149a565b610e4f5760405162461bcd60e51b8152602060048201526014602482015273151c985b9cd9995c8810995d184819985a5b195960621b6044820152606401610366565b6001600160a01b037f00000000000000000000000000000000000000000000000000000000000000001660009081526006602052604081208054849290610e979084906114cf565b9091555050505050565b6001600160a01b0380821660009081526006602052604080822054928616825281205490919082610ed286836114bc565b610edc8785611461565b610ee69190611478565b979650505050505050565b610ae08383836001611076565b6001600160a01b03838116600090815260016020908152604080832093861683529290522054600019811015610f775781811015610f6857604051637dc7a0d960e11b81526001600160a01b03841660048201526024810182905260448101839052606401610366565b610f7784848484036000611076565b50505050565b6001600160a01b038316610fa757604051634b637e8f60e11b815260006004820152602401610366565b6001600160a01b038216610fd15760405163ec442f0560e01b815260006004820152602401610366565b610ae083838361114b565b600260055403610fff57604051633ee5aeb560e01b815260040160405180910390fd5b6002600555565b6001600160a01b0382166110305760405163ec442f0560e01b815260006004820152602401610366565b61103c6000838361114b565b5050565b6001600160a01b03821661106a57604051634b637e8f60e11b815260006004820152602401610366565b61103c8260008361114b565b6001600160a01b0384166110a05760405163e602df0560e01b815260006004820152602401610366565b6001600160a01b0383166110ca57604051634a1406b160e11b815260006004820152602401610366565b6001600160a01b0380851660009081526001602090815260408083209387168352929052208290558015610f7757826001600160a01b0316846001600160a01b03167f8c5be1e5ebec7d5bd14f71427d1e84f3dd0314c0f7b2291e5b200ac8c7c3b9258460405161113d91815260200190565b60405180910390a350505050565b6001600160a01b03831661117657806002600082825461116b91906114bc565b909155506111e89050565b6001600160a01b038316600090815260208190526040902054818110156111c95760405163391434e360e21b81526001600160a01b03851660048201526024810182905260448101839052606401610366565b6001600160a01b03841660009081526020819052604090209082900390555b6001600160a01b03821661120457600280548290039055611223565b6001600160a01b03821660009081526020819052604090208054820190555b816001600160a01b0316836001600160a01b03167fddf252ad1be2c89b69c2b068fc378daa952ba7f163c4a11628f55a4df523b3ef8360405161126891815260200190565b60405180910390a3505050565b600060208083528351808285015260005b818110156112a257858101830151858201604001528201611286565b506000604082860101526040601f19601f8301168501019250505092915050565b80356001600160a01b03811681146112da57600080fd5b919050565b600080604083850312156112f257600080fd5b6112fb836112c3565b946020939093013593505050565b60008060006060848603121561131e57600080fd5b611327846112c3565b9250611335602085016112c3565b9150604084013590509250925092565b60006020828403121561135757600080fd5b5035919050565b60008060006060848603121561137357600080fd5b61137c846112c3565b925060208401359150611391604085016112c3565b90509250925092565b6000602082840312156113ac57600080fd5b6113b5826112c3565b9392505050565b600080604083850312156113cf57600080fd5b50508035926020909101359150565b600080604083850312156113f157600080fd5b6113fa836112c3565b9150611408602084016112c3565b90509250929050565b600181811c9082168061142557607f821691505b60208210810361144557634e487b7160e01b600052602260045260246000fd5b50919050565b634e487b7160e01b600052601160045260246000fd5b80820281158282048414176102e8576102e861144b565b60008261149557634e487b7160e01b600052601260045260246000fd5b500490565b6000602082840312156114ac57600080fd5b815180151581146113b557600080fd5b808201808211156102e8576102e861144b565b818103818111156102e8576102e861144b56fea2646970667358221220f573afd908fc194701f23cf4c5296cef8d2a0fe329bdbaf9148ca272e6ae8c0364736f6c63430008140033",
  "linkReferences": {},
  "deployedLinkReferences": {}
}