{
  "_format": "hh-sol-artifact-1",
  "contractName": "Factory",
  "sourceName": "contracts/Factory.sol",
  "abi": [
    {
      "anonymous": false,
      "inputs": [
        {
          "indexed": false,
          "internalType": "address[]",
          "name": "tokens",
          "type": "address[]"
        }
      ],
      "name": "PoolCreated",
      "type": "event"
    },
    {
      "inputs": [
        {
          "internalType": "address[]",
          "name": "tokens",
          "type": "address[]"
        }
      ],
      "name": "createPool",
      "outputs": [
        {
          "internalType": "address",
          "name": "",
          "type": "address"
        }
      ],
      "stateMutability": "nonpayable",
      "type": "function"
    },
    {
      "inputs": [
        {
          "internalType": "address[]",
          "name": "tokens",
          "type": "address[]"
        }
      ],
      "name": "getPool",
      "outputs": [
        {
          "internalType": "address",
          "name": "",
          "type": "address"
        }
      ],
      "stateMutability": "view",
      "type": "function"
    },
    {
      "inputs": [
        {
          "internalType": "address[]",
          "name": "tokens",
          "type": "address[]"
        }
      ],
      "name": "getPoolKey",
      "outputs": [
        {
          "internalType": "bytes32",
          "name": "",
          "type": "bytes32"
        }
      ],
      "stateMutability": "view",
      "type": "function"
    },
    {
      "inputs": [
        {
          "internalType": "bytes32",
          "name": "",
          "type": "bytes32"
        }
      ],
      "name": "pools",
      "outputs": [
        {
          "internalType": "address",
          "name": "",
          "type": "address"
        }
      ],
      "stateMutability": "view",
      "type": "function"
    },
    {
      "inputs": [
        {
          "internalType": "uint256",
          "name": "",
          "type": "uint256"
        }
      ],
      "name": "supportedTokens",
      "outputs": [
        {
          "internalType": "address",
          "name": "",
          "type": "address"
        }
      ],
      "stateMutability": "view",
      "type": "function"
    }
  ],
  "bytecode": "0x608060405234801561001057600080fd5b5061293d806100206000396000f3fe60806040523480156200001157600080fd5b50600436106200005e5760003560e01c80637ee5542a1462000063578063b5217bb4146200008d578063c625562614620000d2578063ec00710514620000e9578063f0a87c9f1462000100575b600080fd5b6200007a6200007436600462000872565b62000117565b6040519081526020015b60405180910390f35b620000b96200009e36600462000945565b6000602081905290815260409020546001600160a01b031681565b6040516001600160a01b03909116815260200162000084565b620000b9620000e336600462000945565b62000153565b620000b9620000fa36600462000872565b6200017e565b620000b96200011136600462000872565b620001ab565b60006200012482620003ce565b6040516020016200013691906200095f565b604051602081830303815290604052805190602001209050919050565b600181815481106200016457600080fd5b6000918252602090912001546001600160a01b0316905081565b6000806200018c8362000117565b6000908152602081905260409020546001600160a01b03169392505050565b6000600282511015620001f95760405162461bcd60e51b81526020600482015260116024820152704174206c65617374203220746f6b656e7360781b60448201526064015b60405180910390fd5b620002048262000523565b620002455760405162461bcd60e51b815260206004820152601060248201526f4475706c696361746520746f6b656e7360801b6044820152606401620001f0565b6200025082620005fe565b6200028d5760405162461bcd60e51b815260206004820152600c60248201526b5a65726f206164647265737360a01b6044820152606401620001f0565b60006200029a83620003ce565b9050600081604051602001620002b191906200095f565b60408051601f1981840301815291815281516020928301206000818152928390529120549091506001600160a01b0316156200031e5760405162461bcd60e51b815260206004820152600b60248201526a506f6f6c2065786973747360a81b6044820152606401620001f0565b6000826040516200032f9062000831565b6200033b9190620009a0565b604051809103906000f08015801562000358573d6000803e3d6000fd5b50600083815260208190526040902080546001600160a01b0319166001600160a01b03831617905590506200038d8362000661565b7f26bf75378c99ddaf6cfa3d759c5ca947d22d1169b02be2cd17d49b102a1ca2fd85604051620003be9190620009a0565b60405180910390a1949350505050565b60606000620003dd8362000706565b905060015b81518110156200051c576000828281518110620004035762000403620009ef565b6020026020010151905060008290505b6000811180156200045d57506001600160a01b038216846200043760018462000a1b565b815181106200044a576200044a620009ef565b60200260200101516001600160a01b0316115b15620004ce57836200047160018362000a1b565b81518110620004845762000484620009ef565b6020026020010151848281518110620004a157620004a1620009ef565b6001600160a01b039092166020928302919091019091015280620004c58162000a37565b91505062000413565b81848281518110620004e457620004e4620009ef565b60200260200101906001600160a01b031690816001600160a01b03168152505050508080620005139062000a51565b915050620003e2565b5092915050565b600060018251116200053757506001919050565b60005b600183516200054a919062000a1b565b811015620005f55760006200056182600162000a6d565b90505b8351811015620005df57838181518110620005835762000583620009ef565b60200260200101516001600160a01b0316848381518110620005a957620005a9620009ef565b60200260200101516001600160a01b031603620005ca575060009392505050565b80620005d68162000a51565b91505062000564565b5080620005ec8162000a51565b9150506200053a565b50600192915050565b6000805b8251811015620005f55760006001600160a01b03168382815181106200062c576200062c620009ef565b60200260200101516001600160a01b0316036200064c5750600092915050565b80620006588162000a51565b91505062000602565b60005b8151811015620007025762000695828281518110620006875762000687620009ef565b6020026020010151620007c0565b620006ed576001828281518110620006b157620006b1620009ef565b60209081029190910181015182546001810184556000938452919092200180546001600160a01b0319166001600160a01b039092169190911790555b80620006f98162000a51565b91505062000664565b5050565b60606000825167ffffffffffffffff8111156200072757620007276200083f565b60405190808252806020026020018201604052801562000751578160200160208202803683370190505b50905060005b83518110156200051c57838181518110620007765762000776620009ef565b6020026020010151828281518110620007935762000793620009ef565b6001600160a01b039092166020928302919091019091015280620007b78162000a51565b91505062000757565b6000805b6001548110156200082857826001600160a01b031660018281548110620007ef57620007ef620009ef565b6000918252602090912001546001600160a01b031603620008135750600192915050565b806200081f8162000a51565b915050620007c4565b50600092915050565b611e848062000a8483390190565b634e487b7160e01b600052604160045260246000fd5b80356001600160a01b03811681146200086d57600080fd5b919050565b600060208083850312156200088657600080fd5b823567ffffffffffffffff808211156200089f57600080fd5b818501915085601f830112620008b457600080fd5b813581811115620008c957620008c96200083f565b8060051b604051601f19603f83011681018181108582111715620008f157620008f16200083f565b6040529182528482019250838101850191888311156200091057600080fd5b938501935b828510156200093957620009298562000855565b8452938501939285019262000915565b98975050505050505050565b6000602082840312156200095857600080fd5b5035919050565b815160009082906020808601845b83811015620009945781516001600160a01b0316855293820193908201906001016200096d565b50929695505050505050565b6020808252825182820181905260009190848201906040850190845b81811015620009e35783516001600160a01b031683529284019291840191600101620009bc565b50909695505050505050565b634e487b7160e01b600052603260045260246000fd5b634e487b7160e01b600052601160045260246000fd5b8181038181111562000a315762000a3162000a05565b92915050565b60008162000a495762000a4962000a05565b506000190190565b60006001820162000a665762000a6662000a05565b5060010190565b8082018082111562000a315762000a3162000a0556fe60e060405260016080908152600260a052600360c08190526200002591600a9162000276565b503480156200003357600080fd5b5060405162001e8438038062001e8483398101604081905262000056916200036d565b6040518060400160405280600781526020016626282a37b5b2b760c91b8152506040518060400160405280600381526020016213141560ea1b81525081818160039081620000a59190620004ce565b506004620000b48282620004ce565b505060016005555050600980546001600160a01b03191633179055508051806001600160401b03811115620000ed57620000ed6200033a565b60405190808252806020026020018201604052801562000117578160200160208202803683370190505b5080516200012e91600691602090910190620002cb565b50806001600160401b038111156200014a576200014a6200033a565b60405190808252806020026020018201604052801562000174578160200160208202803683370190505b5080516200018b91600791602090910190620002cb565b5060005b818110156200026d576000838281518110620001af57620001af6200059a565b602002602001015190508060068381548110620001d057620001d06200059a565b9060005260206000200160006101000a8154816001600160a01b0302191690836001600160a01b0316021790555080600783815481106200021557620002156200059a565b600091825260208083209190910180546001600160a01b0319166001600160a01b03948516179055929091168152600882526040808220849055600b90925290812055806200026481620005b0565b9150506200018f565b505050620005d8565b828054828255906000526020600020908101928215620002b9579160200282015b82811115620002b9578251829060ff1690559160200191906001019062000297565b50620002c792915062000323565b5090565b828054828255906000526020600020908101928215620002b9579160200282015b82811115620002b957825182546001600160a01b0319166001600160a01b03909116178255602090920191600190910190620002ec565b5b80821115620002c7576000815560010162000324565b634e487b7160e01b600052604160045260246000fd5b80516001600160a01b03811681146200036857600080fd5b919050565b600060208083850312156200038157600080fd5b82516001600160401b03808211156200039957600080fd5b818501915085601f830112620003ae57600080fd5b815181811115620003c357620003c36200033a565b8060051b604051601f19603f83011681018181108582111715620003eb57620003eb6200033a565b6040529182528482019250838101850191888311156200040a57600080fd5b938501935b828510156200043357620004238562000350565b845293850193928501926200040f565b98975050505050505050565b600181811c908216806200045457607f821691505b6020821081036200047557634e487b7160e01b600052602260045260246000fd5b50919050565b601f821115620004c957600081815260208120601f850160051c81016020861015620004a45750805b601f850160051c820191505b81811015620004c557828155600101620004b0565b5050505b505050565b81516001600160401b03811115620004ea57620004ea6200033a565b6200050281620004fb84546200043f565b846200047b565b602080601f8311600181146200053a5760008415620005215750858301515b600019600386901b1c1916600185901b178555620004c5565b600085815260208120601f198616915b828110156200056b578886015182559484019460019091019084016200054a565b50858210156200058a5787850151600019600388901b60f8161c191681555b5050505050600190811b01905550565b634e487b7160e01b600052603260045260246000fd5b600060018201620005d157634e487b7160e01b600052601160045260246000fd5b5060010190565b61189c80620005e86000396000f3fe608060405234801561001057600080fd5b506004361061012c5760003560e01c806370a08231116100ad578063d5b271f511610071578063d5b271f5146102a3578063dd62ed3e146102c3578063e5a86833146102fc578063eaa91a3d1461030f578063ff9c8ac61461032257600080fd5b806370a082311461023957806395d89b4114610262578063a9059cbb1461026a578063c45a01551461027d578063cbd01fa41461029057600080fd5b806323b872dd116100f457806323b872dd146101b9578063313ce567146101cc578063345f5557146101db578063523fba7f146102065780636d069a671461022657600080fd5b806306fdde0314610131578063095ea7b31461014f5780631371a9571461017257806318160ddd146101925780631d978bd2146101a4575b600080fd5b610139610335565b6040516101469190611358565b60405180910390f35b61016261015d3660046113c2565b6103c7565b6040519015158152602001610146565b6101856101803660046113ec565b6103e1565b6040516101469190611440565b6002545b604051908152602001610146565b6101b76101b2366004611530565b610563565b005b6101626101c73660046115f0565b610863565b60405160128152602001610146565b6101ee6101e93660046113ec565b610887565b6040516001600160a01b039091168152602001610146565b61019661021436600461162c565b600b6020526000908152604090205481565b6101b7610234366004611647565b6108b1565b61019661024736600461162c565b6001600160a01b031660009081526020819052604090205490565b610139610c31565b6101626102783660046113c2565b610c40565b6009546101ee906001600160a01b031681565b61019661029e3660046113ec565b610c4e565b6101966102b136600461162c565b60086020526000908152604090205481565b6101966102d1366004611683565b6001600160a01b03918216600090815260016020908152604080832093909416825291909152205490565b6101b761030a366004611530565b610c6f565b6101ee61031d3660046113ec565b610f78565b610196610330366004611647565b610f88565b606060038054610344906116b6565b80601f0160208091040260200160405190810160405280929190818152602001828054610370906116b6565b80156103bd5780601f10610392576101008083540402835291602001916103bd565b820191906000526020600020905b8154815290600101906020018083116103a057829003601f168201915b5050505050905090565b6000336103d5818585610fd8565b60019150505b92915050565b60075460609060008167ffffffffffffffff8111156104025761040261145a565b60405190808252806020026020018201604052801561042b578160200160208202803683370190505b5090506000600b60006007600081548110610448576104486116f0565b60009182526020808320909101546001600160a01b03168352820192909252604001902054905060015b8381101561053b5760006007828154811061048f5761048f6116f0565b60009182526020808320909101546001600160a01b0316808352600b9091526040822054909250908181036104ee57600a84815481106104d1576104d16116f0565b9060005260206000200154896104e7919061171c565b9050610506565b816104f9868b61171c565b6105039190611733565b90505b80868581518110610519576105196116f0565b602002602001018181525050505050808061053390611755565b915050610472565b508482600081518110610550576105506116f0565b6020908102919091010152509392505050565b805182511461058d5760405162461bcd60e51b81526004016105849061176e565b60405180910390fd5b60008061059960025490565b111561061b57600b600060076000815481106105b7576105b76116f0565b60009182526020808320909101546001600160a01b031683528201929092526040019020546105e560025490565b836000815181106105f8576105f86116f0565b602002602001015161060a919061171c565b6106149190611733565b9050610639565b8160008151811061062e5761062e6116f0565b602002602001015190505b6106433382610fe5565b825160005b81811015610823576000858281518110610664576106646116f0565b60200260200101519050600060086000836001600160a01b03166001600160a01b031681526020019081526020016000205490506000600682815481106106ad576106ad6116f0565b9060005260206000200160009054906101000a90046001600160a01b03169050806001600160a01b03166323b872dd33308a88815181106106f0576106f06116f0565b60209081029190910101516040516001600160e01b031960e086901b1681526001600160a01b03938416600482015292909116602483015260448201526064016020604051808303816000875af115801561074f573d6000803e3d6000fd5b505050506040513d601f19601f8201168201806040525081019061077391906117be565b6107b85760405162461bcd60e51b8152602060048201526016602482015275151c985b9cd9995c881d1bdad95b8c0819985a5b195960521b6044820152606401610584565b8684815181106107ca576107ca6116f0565b6020026020010151600b6000856001600160a01b03166001600160a01b03168152602001908152602001600020600082825461080691906117e0565b92505081905550505050808061081b90611755565b915050610648565b507f7f63fc1ab7d4b22633cca91cd87319f6e7b3229ace7baa90f114b15f33e847ae84846040516108559291906117f3565b60405180910390a150505050565b60003361087185828561101b565b61087c85858561109a565b506001949350505050565b6006818154811061089757600080fd5b6000918252602090912001546001600160a01b0316905081565b6108b96110f9565b806001600160a01b0316836001600160a01b0316036109085760405162461bcd60e51b815260206004820152600b60248201526a53616d6520746f6b656e7360a81b6044820152606401610584565b6001600160a01b038316600090815260086020526040812054900361096f5760405162461bcd60e51b815260206004820152601b60248201527f746f6b656e496e206e6f7420696e20695f746f6b656e735f6d617000000000006044820152606401610584565b6001600160a01b03811660009081526008602052604081205490036109d65760405162461bcd60e51b815260206004820152601c60248201527f746f6b656e4f7574206e6f7420696e20695f746f6b656e735f6d6170000000006044820152606401610584565b60008211610a145760405162461bcd60e51b815260206004820152600b60248201526a16995c9bc8185b5bdd5b9d60aa1b6044820152606401610584565b6000610a21848484610f88565b6040516323b872dd60e01b8152336004820152306024820152604481018590529091506001600160a01b038516906323b872dd906064016020604051808303816000875af1158015610a77573d6000803e3d6000fd5b505050506040513d601f19601f82011682018060405250810190610a9b91906117be565b610ad55760405162461bcd60e51b815260206004820152600b60248201526a14ddd85c0811985a5b195960aa1b6044820152606401610584565b60405163a9059cbb60e01b8152336004820152602481018290526001600160a01b0383169063a9059cbb906044016020604051808303816000875af1158015610b22573d6000803e3d6000fd5b505050506040513d601f19601f82011682018060405250810190610b4691906117be565b610b805760405162461bcd60e51b815260206004820152600b60248201526a14ddd85c0811985a5b195960aa1b6044820152606401610584565b6001600160a01b0384166000908152600b602052604081208054859290610ba8908490611853565b90915550506001600160a01b0382166000908152600b602052604081208054839290610bd59084906117e0565b9091555050604080516001600160a01b03808716825284166020820152829185917fdb587d878116df0bdd4fe154699aa2c5f439da001cc811dfd05d9f589fc5a8ee910160405180910390a350610c2c6001600555565b505050565b606060048054610344906116b6565b6000336103d581858561109a565b600a8181548110610c5e57600080fd5b600091825260209091200154905081565b610c776110f9565b8051825114610c985760405162461bcd60e51b81526004016105849061176e565b600080610ca460025490565b1115610d2657600b60006007600081548110610cc257610cc26116f0565b60009182526020808320909101546001600160a01b03168352820192909252604001902054610cf060025490565b83600081518110610d0357610d036116f0565b6020026020010151610d15919061171c565b610d1f9190611733565b9050610d44565b81600081518110610d3957610d396116f0565b602002602001015190505b610d4e3382611123565b825160005b81811015610f2e576000858281518110610d6f57610d6f6116f0565b60200260200101519050600060086000836001600160a01b03166001600160a01b03168152602001908152602001600020549050600060068281548110610db857610db86116f0565b9060005260206000200160009054906101000a90046001600160a01b03169050806001600160a01b03166323b872dd33308a8881518110610dfb57610dfb6116f0565b60209081029190910101516040516001600160e01b031960e086901b1681526001600160a01b03938416600482015292909116602483015260448201526064016020604051808303816000875af1158015610e5a573d6000803e3d6000fd5b505050506040513d601f19601f82011682018060405250810190610e7e91906117be565b610ec35760405162461bcd60e51b8152602060048201526016602482015275151c985b9cd9995c881d1bdad95b8c0819985a5b195960521b6044820152606401610584565b868481518110610ed557610ed56116f0565b6020026020010151600b6000856001600160a01b03166001600160a01b031681526020019081526020016000206000828254610f119190611853565b925050819055505050508080610f2690611755565b915050610d53565b507fb1b40d6e24db4f4144d860844c12ef0cee735402334d5e8682124a4c03bce4c78484604051610f609291906117f3565b60405180910390a15050610f746001600555565b5050565b6007818154811061089757600080fd5b6001600160a01b038082166000908152600b602052604080822054928616825281205490919082610fb98683611853565b610fc3878561171c565b610fcd9190611733565b979650505050505050565b610c2c8383836001611159565b6001600160a01b03821661100f57604051634b637e8f60e11b815260006004820152602401610584565b610f748260008361122e565b6001600160a01b03838116600090815260016020908152604080832093861683529290522054600019811015611094578181101561108557604051637dc7a0d960e11b81526001600160a01b03841660048201526024810182905260448101839052606401610584565b61109484848484036000611159565b50505050565b6001600160a01b0383166110c457604051634b637e8f60e11b815260006004820152602401610584565b6001600160a01b0382166110ee5760405163ec442f0560e01b815260006004820152602401610584565b610c2c83838361122e565b60026005540361111c57604051633ee5aeb560e01b815260040160405180910390fd5b6002600555565b6001600160a01b03821661114d5760405163ec442f0560e01b815260006004820152602401610584565b610f746000838361122e565b6001600160a01b0384166111835760405163e602df0560e01b815260006004820152602401610584565b6001600160a01b0383166111ad57604051634a1406b160e11b815260006004820152602401610584565b6001600160a01b038085166000908152600160209081526040808320938716835292905220829055801561109457826001600160a01b0316846001600160a01b03167f8c5be1e5ebec7d5bd14f71427d1e84f3dd0314c0f7b2291e5b200ac8c7c3b9258460405161122091815260200190565b60405180910390a350505050565b6001600160a01b03831661125957806002600082825461124e9190611853565b909155506112cb9050565b6001600160a01b038316600090815260208190526040902054818110156112ac5760405163391434e360e21b81526001600160a01b03851660048201526024810182905260448101839052606401610584565b6001600160a01b03841660009081526020819052604090209082900390555b6001600160a01b0382166112e757600280548290039055611306565b6001600160a01b03821660009081526020819052604090208054820190555b816001600160a01b0316836001600160a01b03167fddf252ad1be2c89b69c2b068fc378daa952ba7f163c4a11628f55a4df523b3ef8360405161134b91815260200190565b60405180910390a3505050565b600060208083528351808285015260005b8181101561138557858101830151858201604001528201611369565b506000604082860101526040601f19601f8301168501019250505092915050565b80356001600160a01b03811681146113bd57600080fd5b919050565b600080604083850312156113d557600080fd5b6113de836113a6565b946020939093013593505050565b6000602082840312156113fe57600080fd5b5035919050565b600081518084526020808501945080840160005b8381101561143557815187529582019590820190600101611419565b509495945050505050565b6020815260006114536020830184611405565b9392505050565b634e487b7160e01b600052604160045260246000fd5b604051601f8201601f1916810167ffffffffffffffff811182821017156114995761149961145a565b604052919050565b600067ffffffffffffffff8211156114bb576114bb61145a565b5060051b60200190565b600082601f8301126114d657600080fd5b813560206114eb6114e6836114a1565b611470565b82815260059290921b8401810191818101908684111561150a57600080fd5b8286015b84811015611525578035835291830191830161150e565b509695505050505050565b6000806040838503121561154357600080fd5b823567ffffffffffffffff8082111561155b57600080fd5b818501915085601f83011261156f57600080fd5b8135602061157f6114e6836114a1565b82815260059290921b8401810191818101908984111561159e57600080fd5b948201945b838610156115c3576115b4866113a6565b825294820194908201906115a3565b965050860135925050808211156115d957600080fd5b506115e6858286016114c5565b9150509250929050565b60008060006060848603121561160557600080fd5b61160e846113a6565b925061161c602085016113a6565b9150604084013590509250925092565b60006020828403121561163e57600080fd5b611453826113a6565b60008060006060848603121561165c57600080fd5b611665846113a6565b92506020840135915061167a604085016113a6565b90509250925092565b6000806040838503121561169657600080fd5b61169f836113a6565b91506116ad602084016113a6565b90509250929050565b600181811c908216806116ca57607f821691505b6020821081036116ea57634e487b7160e01b600052602260045260246000fd5b50919050565b634e487b7160e01b600052603260045260246000fd5b634e487b7160e01b600052601160045260246000fd5b80820281158282048414176103db576103db611706565b60008261175057634e487b7160e01b600052601260045260246000fd5b500490565b60006001820161176757611767611706565b5060010190565b60208082526030908201527f746865206c656e73206f6620616d6f756e7420616e6420746f6b656e5f61646460408201526f081cda1bdd5b1908189948195c5d585b60821b606082015260800190565b6000602082840312156117d057600080fd5b8151801515811461145357600080fd5b818103818111156103db576103db611706565b604080825283519082018190526000906020906060840190828701845b828110156118355781516001600160a01b031684529284019290840190600101611810565b505050838103828501526118498186611405565b9695505050505050565b808201808211156103db576103db61170656fea2646970667358221220c7ed7a53e7a7fcfdc1042d914bbababd5040a014f69d4fb7894bce403d5c904c64736f6c63430008140033a264697066735822122001798487fb0a51dbb80d0ada7ff104d89d3b7af5e24e9e6f0f7909dc8562fb2564736f6c63430008140033",
  "linkReferences": {},
  "deployedLinkReferences": {}
}