{
  "_format": "hh-sol-artifact-1",
  "contractName": "Factory",
  "sourceName": "contracts/Factory.sol",
  "abi": [
    {
      "anonymous": false,
      "inputs": [
        {
          "indexed": true,
          "internalType": "address",
          "name": "token0",
          "type": "address"
        },
        {
          "indexed": true,
          "internalType": "address",
          "name": "token1",
          "type": "address"
        },
        {
          "indexed": true,
          "internalType": "address",
          "name": "token2",
          "type": "address"
        },
        {
          "indexed": false,
          "internalType": "address",
          "name": "pool",
          "type": "address"
        }
      ],
      "name": "PoolCreated",
      "type": "event"
    },
    {
      "inputs": [
        {
          "internalType": "address",
          "name": "tokenA",
          "type": "address"
        },
        {
          "internalType": "address",
          "name": "tokenB",
          "type": "address"
        },
        {
          "internalType": "address",
          "name": "tokenC",
          "type": "address"
        }
      ],
      "name": "createPool",
      "outputs": [
        {
          "internalType": "address",
          "name": "",
          "type": "address"
        }
      ],
      "stateMutability": "nonpayable",
      "type": "function"
    },
    {
      "inputs": [
        {
          "internalType": "address",
          "name": "tokenA",
          "type": "address"
        },
        {
          "internalType": "address",
          "name": "tokenB",
          "type": "address"
        },
        {
          "internalType": "address",
          "name": "tokenC",
          "type": "address"
        }
      ],
      "name": "getPool",
      "outputs": [
        {
          "internalType": "address",
          "name": "",
          "type": "address"
        }
      ],
      "stateMutability": "view",
      "type": "function"
    },
    {
      "inputs": [],
      "name": "getSupportedTokensLength",
      "outputs": [
        {
          "internalType": "uint256",
          "name": "",
          "type": "uint256"
        }
      ],
      "stateMutability": "view",
      "type": "function"
    },
    {
      "inputs": [
        {
          "internalType": "address",
          "name": "token",
          "type": "address"
        }
      ],
      "name": "isTokenSupported",
      "outputs": [
        {
          "internalType": "bool",
          "name": "",
          "type": "bool"
        }
      ],
      "stateMutability": "view",
      "type": "function"
    },
    {
      "inputs": [
        {
          "internalType": "address",
          "name": "",
          "type": "address"
        },
        {
          "internalType": "address",
          "name": "",
          "type": "address"
        },
        {
          "internalType": "address",
          "name": "",
          "type": "address"
        }
      ],
      "name": "pools",
      "outputs": [
        {
          "internalType": "address",
          "name": "",
          "type": "address"
        }
      ],
      "stateMutability": "view",
      "type": "function"
    },
    {
      "inputs": [
        {
          "internalType": "uint256",
          "name": "",
          "type": "uint256"
        }
      ],
      "name": "supportedTokens",
      "outputs": [
        {
          "internalType": "address",
          "name": "",
          "type": "address"
        }
      ],
      "stateMutability": "view",
      "type": "function"
    }
  ],
  "bytecode": "0x608060405234801561001057600080fd5b5061493b806100206000396000f3fe60806040523480156200001157600080fd5b50600436106200006a5760003560e01c8063236aea2e146200006f5780632fca419414620000a557806375151b6314620000db578063c62556261462000111578063f960cd6b1462000147578063fce360d51462000169575b600080fd5b6200008d6004803603810190620000879190620010b9565b6200019f565b6040516200009c919062001126565b60405180910390f35b620000c36004803603810190620000bd9190620010b9565b62000e0a565b604051620000d2919062001126565b60405180910390f35b620000f96004803603810190620000f3919062001143565b62000eee565b60405162000108919062001192565b60405180910390f35b6200012f6004803603810190620001299190620011ea565b62000fa5565b6040516200013e919062001126565b60405180910390f35b6200015162000fe5565b6040516200016091906200122d565b60405180910390f35b620001876004803603810190620001819190620010b9565b62000ff2565b60405162000196919062001126565b60405180910390f35b60008273ffffffffffffffffffffffffffffffffffffffff168473ffffffffffffffffffffffffffffffffffffffff16141580156200020a57508173ffffffffffffffffffffffffffffffffffffffff168473ffffffffffffffffffffffffffffffffffffffff1614155b80156200024357508173ffffffffffffffffffffffffffffffffffffffff168373ffffffffffffffffffffffffffffffffffffffff1614155b62000285576040517f08c379a00000000000000000000000000000000000000000000000000000000081526004016200027c90620012ab565b60405180910390fd5b600073ffffffffffffffffffffffffffffffffffffffff168473ffffffffffffffffffffffffffffffffffffffff1614158015620002f05750600073ffffffffffffffffffffffffffffffffffffffff168373ffffffffffffffffffffffffffffffffffffffff1614155b80156200032a5750600073ffffffffffffffffffffffffffffffffffffffff168273ffffffffffffffffffffffffffffffffffffffff1614155b6200036c576040517f08c379a000000000000000000000000000000000000000000000000000000000815260040162000363906200131d565b60405180910390fd5b60008060008573ffffffffffffffffffffffffffffffffffffffff168773ffffffffffffffffffffffffffffffffffffffff1610156200043c578473ffffffffffffffffffffffffffffffffffffffff168773ffffffffffffffffffffffffffffffffffffffff1610156200042c578692508473ffffffffffffffffffffffffffffffffffffffff168673ffffffffffffffffffffffffffffffffffffffff1610156200041f5785915084905062000426565b8491508590505b62000436565b8492508691508590505b620004cd565b8473ffffffffffffffffffffffffffffffffffffffff168673ffffffffffffffffffffffffffffffffffffffff161015620004c2578592508473ffffffffffffffffffffffffffffffffffffffff168773ffffffffffffffffffffffffffffffffffffffff161015620004b557869150849050620004bc565b8491508690505b620004cc565b8492508591508690505b5b600073ffffffffffffffffffffffffffffffffffffffff166000808573ffffffffffffffffffffffffffffffffffffffff1673ffffffffffffffffffffffffffffffffffffffff16815260200190815260200160002060008473ffffffffffffffffffffffffffffffffffffffff1673ffffffffffffffffffffffffffffffffffffffff16815260200190815260200160002060008373ffffffffffffffffffffffffffffffffffffffff1673ffffffffffffffffffffffffffffffffffffffff16815260200190815260200160002060009054906101000a900473ffffffffffffffffffffffffffffffffffffffff1673ffffffffffffffffffffffffffffffffffffffff161462000617576040517f08c379a00000000000000000000000000000000000000000000000000000000081526004016200060e906200138f565b60405180910390fd5b60008383836040516200062a9062001041565b6200063893929190620013b1565b604051809103906000f08015801562000655573d6000803e3d6000fd5b509050806000808673ffffffffffffffffffffffffffffffffffffffff1673ffffffffffffffffffffffffffffffffffffffff16815260200190815260200160002060008573ffffffffffffffffffffffffffffffffffffffff1673ffffffffffffffffffffffffffffffffffffffff16815260200190815260200160002060008473ffffffffffffffffffffffffffffffffffffffff1673ffffffffffffffffffffffffffffffffffffffff16815260200190815260200160002060006101000a81548173ffffffffffffffffffffffffffffffffffffffff021916908373ffffffffffffffffffffffffffffffffffffffff160217905550806000808673ffffffffffffffffffffffffffffffffffffffff1673ffffffffffffffffffffffffffffffffffffffff16815260200190815260200160002060008473ffffffffffffffffffffffffffffffffffffffff1673ffffffffffffffffffffffffffffffffffffffff16815260200190815260200160002060008573ffffffffffffffffffffffffffffffffffffffff1673ffffffffffffffffffffffffffffffffffffffff16815260200190815260200160002060006101000a81548173ffffffffffffffffffffffffffffffffffffffff021916908373ffffffffffffffffffffffffffffffffffffffff160217905550806000808573ffffffffffffffffffffffffffffffffffffffff1673ffffffffffffffffffffffffffffffffffffffff16815260200190815260200160002060008673ffffffffffffffffffffffffffffffffffffffff1673ffffffffffffffffffffffffffffffffffffffff16815260200190815260200160002060008473ffffffffffffffffffffffffffffffffffffffff1673ffffffffffffffffffffffffffffffffffffffff16815260200190815260200160002060006101000a81548173ffffffffffffffffffffffffffffffffffffffff021916908373ffffffffffffffffffffffffffffffffffffffff160217905550806000808573ffffffffffffffffffffffffffffffffffffffff1673ffffffffffffffffffffffffffffffffffffffff16815260200190815260200160002060008473ffffffffffffffffffffffffffffffffffffffff1673ffffffffffffffffffffffffffffffffffffffff16815260200190815260200160002060008673ffffffffffffffffffffffffffffffffffffffff1673ffffffffffffffffffffffffffffffffffffffff16815260200190815260200160002060006101000a81548173ffffffffffffffffffffffffffffffffffffffff021916908373ffffffffffffffffffffffffffffffffffffffff160217905550806000808473ffffffffffffffffffffffffffffffffffffffff1673ffffffffffffffffffffffffffffffffffffffff16815260200190815260200160002060008673ffffffffffffffffffffffffffffffffffffffff1673ffffffffffffffffffffffffffffffffffffffff16815260200190815260200160002060008573ffffffffffffffffffffffffffffffffffffffff1673ffffffffffffffffffffffffffffffffffffffff16815260200190815260200160002060006101000a81548173ffffffffffffffffffffffffffffffffffffffff021916908373ffffffffffffffffffffffffffffffffffffffff160217905550806000808473ffffffffffffffffffffffffffffffffffffffff1673ffffffffffffffffffffffffffffffffffffffff16815260200190815260200160002060008573ffffffffffffffffffffffffffffffffffffffff1673ffffffffffffffffffffffffffffffffffffffff16815260200190815260200160002060008673ffffffffffffffffffffffffffffffffffffffff1673ffffffffffffffffffffffffffffffffffffffff16815260200190815260200160002060006101000a81548173ffffffffffffffffffffffffffffffffffffffff021916908373ffffffffffffffffffffffffffffffffffffffff16021790555062000c2d8462000eee565b62000c96576001849080600181540180825580915050600190039060005260206000200160009091909190916101000a81548173ffffffffffffffffffffffffffffffffffffffff021916908373ffffffffffffffffffffffffffffffffffffffff1602179055505b62000ca18362000eee565b62000d0a576001839080600181540180825580915050600190039060005260206000200160009091909190916101000a81548173ffffffffffffffffffffffffffffffffffffffff021916908373ffffffffffffffffffffffffffffffffffffffff1602179055505b62000d158262000eee565b62000d7e576001829080600181540180825580915050600190039060005260206000200160009091909190916101000a81548173ffffffffffffffffffffffffffffffffffffffff021916908373ffffffffffffffffffffffffffffffffffffffff1602179055505b8173ffffffffffffffffffffffffffffffffffffffff168373ffffffffffffffffffffffffffffffffffffffff168573ffffffffffffffffffffffffffffffffffffffff167f55b6e041bb1679bf2b32c9252ad372f3459868b982e77a0ae577d59c947e37578460405162000df4919062001126565b60405180910390a4809450505050509392505050565b60008060008573ffffffffffffffffffffffffffffffffffffffff1673ffffffffffffffffffffffffffffffffffffffff16815260200190815260200160002060008473ffffffffffffffffffffffffffffffffffffffff1673ffffffffffffffffffffffffffffffffffffffff16815260200190815260200160002060008373ffffffffffffffffffffffffffffffffffffffff1673ffffffffffffffffffffffffffffffffffffffff16815260200190815260200160002060009054906101000a900473ffffffffffffffffffffffffffffffffffffffff1690509392505050565b600080600090505b60018054905081101562000f9a578273ffffffffffffffffffffffffffffffffffffffff166001828154811062000f325762000f31620013ee565b5b9060005260206000200160009054906101000a900473ffffffffffffffffffffffffffffffffffffffff1673ffffffffffffffffffffffffffffffffffffffff160362000f8457600191505062000fa0565b808062000f91906200144c565b91505062000ef6565b50600090505b919050565b6001818154811062000fb657600080fd5b906000526020600020016000915054906101000a900473ffffffffffffffffffffffffffffffffffffffff1681565b6000600180549050905090565b6000602052826000526040600020602052816000526040600020602052806000526040600020600092509250509054906101000a900473ffffffffffffffffffffffffffffffffffffffff1681565b61346c806200149a83390190565b600080fd5b600073ffffffffffffffffffffffffffffffffffffffff82169050919050565b6000620010818262001054565b9050919050565b620010938162001074565b81146200109f57600080fd5b50565b600081359050620010b38162001088565b92915050565b600080600060608486031215620010d557620010d46200104f565b5b6000620010e586828701620010a2565b9350506020620010f886828701620010a2565b92505060406200110b86828701620010a2565b9150509250925092565b620011208162001074565b82525050565b60006020820190506200113d600083018462001115565b92915050565b6000602082840312156200115c576200115b6200104f565b5b60006200116c84828501620010a2565b91505092915050565b60008115159050919050565b6200118c8162001175565b82525050565b6000602082019050620011a9600083018462001181565b92915050565b6000819050919050565b620011c481620011af565b8114620011d057600080fd5b50565b600081359050620011e481620011b9565b92915050565b6000602082840312156200120357620012026200104f565b5b60006200121384828501620011d3565b91505092915050565b6200122781620011af565b82525050565b60006020820190506200124460008301846200121c565b92915050565b600082825260208201905092915050565b7f53616d6520746f6b656e73000000000000000000000000000000000000000000600082015250565b600062001293600b836200124a565b9150620012a0826200125b565b602082019050919050565b60006020820190508181036000830152620012c68162001284565b9050919050565b7f5a65726f20616464726573730000000000000000000000000000000000000000600082015250565b600062001305600c836200124a565b91506200131282620012cd565b602082019050919050565b600060208201905081810360008301526200133881620012f6565b9050919050565b7f506f6f6c20657869737473000000000000000000000000000000000000000000600082015250565b600062001377600b836200124a565b915062001384826200133f565b602082019050919050565b60006020820190508181036000830152620013aa8162001368565b9050919050565b6000606082019050620013c8600083018662001115565b620013d7602083018562001115565b620013e6604083018462001115565b949350505050565b7f4e487b7100000000000000000000000000000000000000000000000000000000600052603260045260246000fd5b7f4e487b7100000000000000000000000000000000000000000000000000000000600052601160045260246000fd5b60006200145982620011af565b91507fffffffffffffffffffffffffffffffffffffffffffffffffffffffffffffffff82036200148e576200148d6200141d565b5b60018201905091905056fe6101606040523480156200001257600080fd5b506040516200346c3803806200346c8339818101604052810190620000389190620002b8565b6040518060400160405280600781526020017f4c50546f6b656e000000000000000000000000000000000000000000000000008152506040518060400160405280600381526020017f4c5054000000000000000000000000000000000000000000000000000000000081525081818160039081620000b791906200058e565b508060049081620000c991906200058e565b505050505060016005819055503373ffffffffffffffffffffffffffffffffffffffff166101408173ffffffffffffffffffffffffffffffffffffffff16815250508273ffffffffffffffffffffffffffffffffffffffff1660808173ffffffffffffffffffffffffffffffffffffffff16815250508173ffffffffffffffffffffffffffffffffffffffff1660a08173ffffffffffffffffffffffffffffffffffffffff16815250508073ffffffffffffffffffffffffffffffffffffffff1660c08173ffffffffffffffffffffffffffffffffffffffff16815250508273ffffffffffffffffffffffffffffffffffffffff1660e08173ffffffffffffffffffffffffffffffffffffffff16815250508173ffffffffffffffffffffffffffffffffffffffff166101008173ffffffffffffffffffffffffffffffffffffffff16815250508073ffffffffffffffffffffffffffffffffffffffff166101208173ffffffffffffffffffffffffffffffffffffffff168152505050505062000675565b600080fd5b600073ffffffffffffffffffffffffffffffffffffffff82169050919050565b6000620002808262000253565b9050919050565b620002928162000273565b81146200029e57600080fd5b50565b600081519050620002b28162000287565b92915050565b600080600060608486031215620002d457620002d36200024e565b5b6000620002e486828701620002a1565b9350506020620002f786828701620002a1565b92505060406200030a86828701620002a1565b9150509250925092565b600081519050919050565b7f4e487b7100000000000000000000000000000000000000000000000000000000600052604160045260246000fd5b7f4e487b7100000000000000000000000000000000000000000000000000000000600052602260045260246000fd5b600060028204905060018216806200039657607f821691505b602082108103620003ac57620003ab6200034e565b5b50919050565b60008190508160005260206000209050919050565b60006020601f8301049050919050565b600082821b905092915050565b600060088302620004167fffffffffffffffffffffffffffffffffffffffffffffffffffffffffffffffff82620003d7565b620004228683620003d7565b95508019841693508086168417925050509392505050565b6000819050919050565b6000819050919050565b60006200046f6200046962000463846200043a565b62000444565b6200043a565b9050919050565b6000819050919050565b6200048b836200044e565b620004a36200049a8262000476565b848454620003e4565b825550505050565b600090565b620004ba620004ab565b620004c781848462000480565b505050565b5b81811015620004ef57620004e3600082620004b0565b600181019050620004cd565b5050565b601f8211156200053e576200050881620003b2565b6200051384620003c7565b8101602085101562000523578190505b6200053b6200053285620003c7565b830182620004cc565b50505b505050565b600082821c905092915050565b6000620005636000198460080262000543565b1980831691505092915050565b60006200057e838362000550565b9150826002028217905092915050565b620005998262000314565b67ffffffffffffffff811115620005b557620005b46200031f565b5b620005c182546200037d565b620005ce828285620004f3565b600060209050601f831160018114620006065760008415620005f1578287015190505b620005fd858262000570565b8655506200066d565b601f1984166200061686620003b2565b60005b82811015620006405784890151825560018201915060208501945060208101905062000619565b868310156200066057848901516200065c601f89168262000550565b8355505b6001600288020188555050505b505050505050565b60805160a05160c05160e051610100516101205161014051612ce66200078660003960006119c50152600081816106d301528181610c7f01528181610d5601528181610ebf01528181610ff9015281816117f901526118d001526000818161066f01528181610b2a01528181610d3501528181610e6901528181610fa3015281816116a601526118af01526000818161060b01528181610863015281816109d501528181610d1401528181610e1401528181610f4e015281816113ec01528181611553015261188e01526000818161052f01528181610b9b015261171701526000818161049501528181610a4601526115c40152600081816103fb015281816108f101526114710152612ce66000f3fe608060405234801561001057600080fd5b50600436106101005760003560e01c80636d069a6711610097578063a9059cbb11610066578063a9059cbb146102b3578063c45a0155146102e3578063dd62ed3e14610301578063ff9c8ac61461033157610100565b80636d069a671461022d57806370a0823114610249578063796b1c131461027957806395d89b411461029557610100565b806318160ddd116100d357806318160ddd146101a557806323b872dd146101c3578063313ce567146101f357806351c6590a1461021157610100565b806306fdde03146101055780630902f1ac14610123578063095ea7b3146101445780631371a95714610174575b600080fd5b61010d610361565b60405161011a91906122ad565b60405180910390f35b61012b6103f3565b60405161013b94939291906122e8565b60405180910390f35b61015e600480360381019061015991906123bc565b6105dd565b60405161016b9190612417565b60405180910390f35b61018e60048036038101906101899190612432565b610600565b60405161019c92919061245f565b60405180910390f35b6101ad6107af565b6040516101ba9190612488565b60405180910390f35b6101dd60048036038101906101d891906124a3565b6107b9565b6040516101ea9190612417565b60405180910390f35b6101fb6107e8565b6040516102089190612512565b60405180910390f35b61022b60048036038101906102269190612432565b6107f1565b005b6102476004803603810190610242919061252d565b610d9c565b005b610263600480360381019061025e9190612580565b611349565b6040516102709190612488565b60405180910390f35b610293600480360381019061028e9190612432565b611391565b005b61029d61190e565b6040516102aa91906122ad565b60405180910390f35b6102cd60048036038101906102c891906123bc565b6119a0565b6040516102da9190612417565b60405180910390f35b6102eb6119c3565b6040516102f891906125bc565b60405180910390f35b61031b600480360381019061031691906125d7565b6119e7565b6040516103289190612488565b60405180910390f35b61034b6004803603810190610346919061252d565b611a6e565b6040516103589190612488565b60405180910390f35b60606003805461037090612646565b80601f016020809104026020016040519081016040528092919081815260200182805461039c90612646565b80156103e95780601f106103be576101008083540402835291602001916103e9565b820191906000526020600020905b8154815290600101906020018083116103cc57829003601f168201915b5050505050905090565b6000806000807f000000000000000000000000000000000000000000000000000000000000000073ffffffffffffffffffffffffffffffffffffffff166370a08231306040518263ffffffff1660e01b815260040161045291906125bc565b602060405180830381865afa15801561046f573d6000803e3d6000fd5b505050506040513d601f19601f82011682018060405250810190610493919061268c565b7f000000000000000000000000000000000000000000000000000000000000000073ffffffffffffffffffffffffffffffffffffffff166370a08231306040518263ffffffff1660e01b81526004016104ec91906125bc565b602060405180830381865afa158015610509573d6000803e3d6000fd5b505050506040513d601f19601f8201168201806040525081019061052d919061268c565b7f000000000000000000000000000000000000000000000000000000000000000073ffffffffffffffffffffffffffffffffffffffff166370a08231306040518263ffffffff1660e01b815260040161058691906125bc565b602060405180830381865afa1580156105a3573d6000803e3d6000fd5b505050506040513d601f19601f820116820180604052508101906105c7919061268c565b6105cf6107af565b935093509350935090919293565b6000806105e8611b2a565b90506105f5818585611b32565b600191505092915050565b6000806000600660007f000000000000000000000000000000000000000000000000000000000000000073ffffffffffffffffffffffffffffffffffffffff1673ffffffffffffffffffffffffffffffffffffffff1681526020019081526020016000205490506000600660007f000000000000000000000000000000000000000000000000000000000000000073ffffffffffffffffffffffffffffffffffffffff1673ffffffffffffffffffffffffffffffffffffffff1681526020019081526020016000205490506000600660007f000000000000000000000000000000000000000000000000000000000000000073ffffffffffffffffffffffffffffffffffffffff1673ffffffffffffffffffffffffffffffffffffffff168152602001908152602001600020549050600083148061073e5750600082145b806107495750600081145b156107745760028661075b91906126e8565b60038761076891906126e8565b945094505050506107aa565b82828761078191906126e8565b61078b9190612759565b83828861079891906126e8565b6107a29190612759565b945094505050505b915091565b6000600254905090565b6000806107c4611b2a565b90506107d1858285611b44565b6107dc858585611bd9565b60019150509392505050565b60006012905090565b6107f9611ccd565b6000811161083c576040517f08c379a0000000000000000000000000000000000000000000000000000000008152600401610833906127d6565b60405180910390fd5b60008061084883610600565b915091506000806108576107af565b11156108e157600660007f000000000000000000000000000000000000000000000000000000000000000073ffffffffffffffffffffffffffffffffffffffff1673ffffffffffffffffffffffffffffffffffffffff168152602001908152602001600020546108c56107af565b856108d091906126e8565b6108da9190612759565b90506108e5565b8390505b6108ef3382611d13565b7f000000000000000000000000000000000000000000000000000000000000000073ffffffffffffffffffffffffffffffffffffffff166323b872dd3330876040518463ffffffff1660e01b815260040161094c939291906127f6565b6020604051808303816000875af115801561096b573d6000803e3d6000fd5b505050506040513d601f19601f8201168201806040525081019061098f9190612859565b6109ce576040517f08c379a00000000000000000000000000000000000000000000000000000000081526004016109c5906128d2565b60405180910390fd5b83600660007f000000000000000000000000000000000000000000000000000000000000000073ffffffffffffffffffffffffffffffffffffffff1673ffffffffffffffffffffffffffffffffffffffff1681526020019081526020016000206000828254610a3d91906128f2565b925050819055507f000000000000000000000000000000000000000000000000000000000000000073ffffffffffffffffffffffffffffffffffffffff166323b872dd3330866040518463ffffffff1660e01b8152600401610aa1939291906127f6565b6020604051808303816000875af1158015610ac0573d6000803e3d6000fd5b505050506040513d601f19601f82011682018060405250810190610ae49190612859565b610b23576040517f08c379a0000000000000000000000000000000000000000000000000000000008152600401610b1a90612972565b60405180910390fd5b82600660007f000000000000000000000000000000000000000000000000000000000000000073ffffffffffffffffffffffffffffffffffffffff1673ffffffffffffffffffffffffffffffffffffffff1681526020019081526020016000206000828254610b9291906128f2565b925050819055507f000000000000000000000000000000000000000000000000000000000000000073ffffffffffffffffffffffffffffffffffffffff166323b872dd3330856040518463ffffffff1660e01b8152600401610bf6939291906127f6565b6020604051808303816000875af1158015610c15573d6000803e3d6000fd5b505050506040513d601f19601f82011682018060405250810190610c399190612859565b610c78576040517f08c379a0000000000000000000000000000000000000000000000000000000008152600401610c6f906129de565b60405180910390fd5b81600660007f000000000000000000000000000000000000000000000000000000000000000073ffffffffffffffffffffffffffffffffffffffff1673ffffffffffffffffffffffffffffffffffffffff1681526020019081526020016000206000828254610ce791906128f2565b925050819055508284827f24b2abfeaaa0c2a1a9a7f3e2985de6feae1a41fbe9ea5864e7cc06ebe7cb71867f00000000000000000000000000000000000000000000000000000000000000007f00000000000000000000000000000000000000000000000000000000000000007f000000000000000000000000000000000000000000000000000000000000000088604051610d8694939291906129fe565b60405180910390a4505050610d99611d95565b50565b610da4611ccd565b8073ffffffffffffffffffffffffffffffffffffffff168373ffffffffffffffffffffffffffffffffffffffff1603610e12576040517f08c379a0000000000000000000000000000000000000000000000000000000008152600401610e0990612a8f565b60405180910390fd5b7f000000000000000000000000000000000000000000000000000000000000000073ffffffffffffffffffffffffffffffffffffffff168373ffffffffffffffffffffffffffffffffffffffff161480610eb757507f000000000000000000000000000000000000000000000000000000000000000073ffffffffffffffffffffffffffffffffffffffff168373ffffffffffffffffffffffffffffffffffffffff16145b80610f0d57507f000000000000000000000000000000000000000000000000000000000000000073ffffffffffffffffffffffffffffffffffffffff168373ffffffffffffffffffffffffffffffffffffffff16145b610f4c576040517f08c379a0000000000000000000000000000000000000000000000000000000008152600401610f4390612afb565b60405180910390fd5b7f000000000000000000000000000000000000000000000000000000000000000073ffffffffffffffffffffffffffffffffffffffff168173ffffffffffffffffffffffffffffffffffffffff161480610ff157507f000000000000000000000000000000000000000000000000000000000000000073ffffffffffffffffffffffffffffffffffffffff168173ffffffffffffffffffffffffffffffffffffffff16145b8061104757507f000000000000000000000000000000000000000000000000000000000000000073ffffffffffffffffffffffffffffffffffffffff168173ffffffffffffffffffffffffffffffffffffffff16145b611086576040517f08c379a000000000000000000000000000000000000000000000000000000000815260040161107d90612afb565b60405180910390fd5b600082116110c9576040517f08c379a00000000000000000000000000000000000000000000000000000000081526004016110c090612b67565b60405180910390fd5b60006110d6848484611a6e565b90508373ffffffffffffffffffffffffffffffffffffffff166323b872dd3330866040518463ffffffff1660e01b8152600401611115939291906127f6565b6020604051808303816000875af1158015611134573d6000803e3d6000fd5b505050506040513d601f19601f820116820180604052508101906111589190612859565b611197576040517f08c379a000000000000000000000000000000000000000000000000000000000815260040161118e90612bd3565b60405180910390fd5b8173ffffffffffffffffffffffffffffffffffffffff1663a9059cbb33836040518363ffffffff1660e01b81526004016111d2929190612bf3565b6020604051808303816000875af11580156111f1573d6000803e3d6000fd5b505050506040513d601f19601f820116820180604052508101906112159190612859565b611254576040517f08c379a000000000000000000000000000000000000000000000000000000000815260040161124b90612bd3565b60405180910390fd5b82600660008673ffffffffffffffffffffffffffffffffffffffff1673ffffffffffffffffffffffffffffffffffffffff16815260200190815260200160002060008282546112a391906128f2565b9250508190555080600660008473ffffffffffffffffffffffffffffffffffffffff1673ffffffffffffffffffffffffffffffffffffffff16815260200190815260200160002060008282546112f99190612c1c565b9250508190555080837fdb587d878116df0bdd4fe154699aa2c5f439da001cc811dfd05d9f589fc5a8ee8685604051611333929190612c50565b60405180910390a350611344611d95565b505050565b60008060008373ffffffffffffffffffffffffffffffffffffffff1673ffffffffffffffffffffffffffffffffffffffff168152602001908152602001600020549050919050565b600081116113d4576040517f08c379a00000000000000000000000000000000000000000000000000000000081526004016113cb906127d6565b60405180910390fd5b6000806113e083610600565b915091506000600660007f000000000000000000000000000000000000000000000000000000000000000073ffffffffffffffffffffffffffffffffffffffff1673ffffffffffffffffffffffffffffffffffffffff1681526020019081526020016000205461144e6107af565b8561145991906126e8565b6114639190612759565b905061146f3382611d9f565b7f000000000000000000000000000000000000000000000000000000000000000073ffffffffffffffffffffffffffffffffffffffff1663a9059cbb33866040518363ffffffff1660e01b81526004016114ca929190612bf3565b6020604051808303816000875af11580156114e9573d6000803e3d6000fd5b505050506040513d601f19601f8201168201806040525081019061150d9190612859565b61154c576040517f08c379a0000000000000000000000000000000000000000000000000000000008152600401611543906128d2565b60405180910390fd5b83600660007f000000000000000000000000000000000000000000000000000000000000000073ffffffffffffffffffffffffffffffffffffffff1673ffffffffffffffffffffffffffffffffffffffff16815260200190815260200160002060008282546115bb9190612c1c565b925050819055507f000000000000000000000000000000000000000000000000000000000000000073ffffffffffffffffffffffffffffffffffffffff1663a9059cbb33856040518363ffffffff1660e01b815260040161161d929190612bf3565b6020604051808303816000875af115801561163c573d6000803e3d6000fd5b505050506040513d601f19601f820116820180604052508101906116609190612859565b61169f576040517f08c379a000000000000000000000000000000000000000000000000000000000815260040161169690612972565b60405180910390fd5b82600660007f000000000000000000000000000000000000000000000000000000000000000073ffffffffffffffffffffffffffffffffffffffff1673ffffffffffffffffffffffffffffffffffffffff168152602001908152602001600020600082825461170e9190612c1c565b925050819055507f000000000000000000000000000000000000000000000000000000000000000073ffffffffffffffffffffffffffffffffffffffff1663a9059cbb33846040518363ffffffff1660e01b8152600401611770929190612bf3565b6020604051808303816000875af115801561178f573d6000803e3d6000fd5b505050506040513d601f19601f820116820180604052508101906117b39190612859565b6117f2576040517f08c379a00000000000000000000000000000000000000000000000000000000081526004016117e9906129de565b60405180910390fd5b81600660007f000000000000000000000000000000000000000000000000000000000000000073ffffffffffffffffffffffffffffffffffffffff1673ffffffffffffffffffffffffffffffffffffffff16815260200190815260200160002060008282546118619190612c1c565b925050819055508284827fa27b345ea82fa526ba700245114bb24fd0daa1ae756c5866cc4c00383b3bf1857f00000000000000000000000000000000000000000000000000000000000000007f00000000000000000000000000000000000000000000000000000000000000007f00000000000000000000000000000000000000000000000000000000000000008860405161190094939291906129fe565b60405180910390a450505050565b60606004805461191d90612646565b80601f016020809104026020016040519081016040528092919081815260200182805461194990612646565b80156119965780601f1061196b57610100808354040283529160200191611996565b820191906000526020600020905b81548152906001019060200180831161197957829003601f168201915b5050505050905090565b6000806119ab611b2a565b90506119b8818585611bd9565b600191505092915050565b7f000000000000000000000000000000000000000000000000000000000000000081565b6000600160008473ffffffffffffffffffffffffffffffffffffffff1673ffffffffffffffffffffffffffffffffffffffff16815260200190815260200160002060008373ffffffffffffffffffffffffffffffffffffffff1673ffffffffffffffffffffffffffffffffffffffff16815260200190815260200160002054905092915050565b600080600660008473ffffffffffffffffffffffffffffffffffffffff1673ffffffffffffffffffffffffffffffffffffffff1681526020019081526020016000205490506000600660008773ffffffffffffffffffffffffffffffffffffffff1673ffffffffffffffffffffffffffffffffffffffff16815260200190815260200160002054905060008582611b0591906128f2565b8684611b1191906126e8565b611b1b9190612759565b90508093505050509392505050565b600033905090565b611b3f8383836001611e21565b505050565b6000611b5084846119e7565b90507fffffffffffffffffffffffffffffffffffffffffffffffffffffffffffffffff811015611bd35781811015611bc3578281836040517ffb8f41b2000000000000000000000000000000000000000000000000000000008152600401611bba93929190612c79565b60405180910390fd5b611bd284848484036000611e21565b5b50505050565b600073ffffffffffffffffffffffffffffffffffffffff168373ffffffffffffffffffffffffffffffffffffffff1603611c4b5760006040517f96c6fd1e000000000000000000000000000000000000000000000000000000008152600401611c4291906125bc565b60405180910390fd5b600073ffffffffffffffffffffffffffffffffffffffff168273ffffffffffffffffffffffffffffffffffffffff1603611cbd5760006040517fec442f05000000000000000000000000000000000000000000000000000000008152600401611cb491906125bc565b60405180910390fd5b611cc8838383611ff8565b505050565b600260055403611d09576040517f3ee5aeb500000000000000000000000000000000000000000000000000000000815260040160405180910390fd5b6002600581905550565b600073ffffffffffffffffffffffffffffffffffffffff168273ffffffffffffffffffffffffffffffffffffffff1603611d855760006040517fec442f05000000000000000000000000000000000000000000000000000000008152600401611d7c91906125bc565b60405180910390fd5b611d9160008383611ff8565b5050565b6001600581905550565b600073ffffffffffffffffffffffffffffffffffffffff168273ffffffffffffffffffffffffffffffffffffffff1603611e115760006040517f96c6fd1e000000000000000000000000000000000000000000000000000000008152600401611e0891906125bc565b60405180910390fd5b611e1d82600083611ff8565b5050565b600073ffffffffffffffffffffffffffffffffffffffff168473ffffffffffffffffffffffffffffffffffffffff1603611e935760006040517fe602df05000000000000000000000000000000000000000000000000000000008152600401611e8a91906125bc565b60405180910390fd5b600073ffffffffffffffffffffffffffffffffffffffff168373ffffffffffffffffffffffffffffffffffffffff1603611f055760006040517f94280d62000000000000000000000000000000000000000000000000000000008152600401611efc91906125bc565b60405180910390fd5b81600160008673ffffffffffffffffffffffffffffffffffffffff1673ffffffffffffffffffffffffffffffffffffffff16815260200190815260200160002060008573ffffffffffffffffffffffffffffffffffffffff1673ffffffffffffffffffffffffffffffffffffffff168152602001908152602001600020819055508015611ff2578273ffffffffffffffffffffffffffffffffffffffff168473ffffffffffffffffffffffffffffffffffffffff167f8c5be1e5ebec7d5bd14f71427d1e84f3dd0314c0f7b2291e5b200ac8c7c3b92584604051611fe99190612488565b60405180910390a35b50505050565b600073ffffffffffffffffffffffffffffffffffffffff168373ffffffffffffffffffffffffffffffffffffffff160361204a57806002600082825461203e91906128f2565b9250508190555061211d565b60008060008573ffffffffffffffffffffffffffffffffffffffff1673ffffffffffffffffffffffffffffffffffffffff168152602001908152602001600020549050818110156120d6578381836040517fe450d38c0000000000000000000000000000000000000000000000000000000081526004016120cd93929190612c79565b60405180910390fd5b8181036000808673ffffffffffffffffffffffffffffffffffffffff1673ffffffffffffffffffffffffffffffffffffffff16815260200190815260200160002081905550505b600073ffffffffffffffffffffffffffffffffffffffff168273ffffffffffffffffffffffffffffffffffffffff160361216657806002600082825403925050819055506121b3565b806000808473ffffffffffffffffffffffffffffffffffffffff1673ffffffffffffffffffffffffffffffffffffffff168152602001908152602001600020600082825401925050819055505b8173ffffffffffffffffffffffffffffffffffffffff168373ffffffffffffffffffffffffffffffffffffffff167fddf252ad1be2c89b69c2b068fc378daa952ba7f163c4a11628f55a4df523b3ef836040516122109190612488565b60405180910390a3505050565b600081519050919050565b600082825260208201905092915050565b60005b8381101561225757808201518184015260208101905061223c565b60008484015250505050565b6000601f19601f8301169050919050565b600061227f8261221d565b6122898185612228565b9350612299818560208601612239565b6122a281612263565b840191505092915050565b600060208201905081810360008301526122c78184612274565b905092915050565b6000819050919050565b6122e2816122cf565b82525050565b60006080820190506122fd60008301876122d9565b61230a60208301866122d9565b61231760408301856122d9565b61232460608301846122d9565b95945050505050565b600080fd5b600073ffffffffffffffffffffffffffffffffffffffff82169050919050565b600061235d82612332565b9050919050565b61236d81612352565b811461237857600080fd5b50565b60008135905061238a81612364565b92915050565b612399816122cf565b81146123a457600080fd5b50565b6000813590506123b681612390565b92915050565b600080604083850312156123d3576123d261232d565b5b60006123e18582860161237b565b92505060206123f2858286016123a7565b9150509250929050565b60008115159050919050565b612411816123fc565b82525050565b600060208201905061242c6000830184612408565b92915050565b6000602082840312156124485761244761232d565b5b6000612456848285016123a7565b91505092915050565b600060408201905061247460008301856122d9565b61248160208301846122d9565b9392505050565b600060208201905061249d60008301846122d9565b92915050565b6000806000606084860312156124bc576124bb61232d565b5b60006124ca8682870161237b565b93505060206124db8682870161237b565b92505060406124ec868287016123a7565b9150509250925092565b600060ff82169050919050565b61250c816124f6565b82525050565b60006020820190506125276000830184612503565b92915050565b6000806000606084860312156125465761254561232d565b5b60006125548682870161237b565b9350506020612565868287016123a7565b92505060406125768682870161237b565b9150509250925092565b6000602082840312156125965761259561232d565b5b60006125a48482850161237b565b91505092915050565b6125b681612352565b82525050565b60006020820190506125d160008301846125ad565b92915050565b600080604083850312156125ee576125ed61232d565b5b60006125fc8582860161237b565b925050602061260d8582860161237b565b9150509250929050565b7f4e487b7100000000000000000000000000000000000000000000000000000000600052602260045260246000fd5b6000600282049050600182168061265e57607f821691505b60208210810361267157612670612617565b5b50919050565b60008151905061268681612390565b92915050565b6000602082840312156126a2576126a161232d565b5b60006126b084828501612677565b91505092915050565b7f4e487b7100000000000000000000000000000000000000000000000000000000600052601160045260246000fd5b60006126f3826122cf565b91506126fe836122cf565b925082820261270c816122cf565b91508282048414831517612723576127226126b9565b5b5092915050565b7f4e487b7100000000000000000000000000000000000000000000000000000000600052601260045260246000fd5b6000612764826122cf565b915061276f836122cf565b92508261277f5761277e61272a565b5b828204905092915050565b7f416d6f756e74206d7573742062652067726561746572207468616e2030000000600082015250565b60006127c0601d83612228565b91506127cb8261278a565b602082019050919050565b600060208201905081810360008301526127ef816127b3565b9050919050565b600060608201905061280b60008301866125ad565b61281860208301856125ad565b61282560408301846122d9565b949350505050565b612836816123fc565b811461284157600080fd5b50565b6000815190506128538161282d565b92915050565b60006020828403121561286f5761286e61232d565b5b600061287d84828501612844565b91505092915050565b7f5472616e7366657220746f6b656e30206661696c656400000000000000000000600082015250565b60006128bc601683612228565b91506128c782612886565b602082019050919050565b600060208201905081810360008301526128eb816128af565b9050919050565b60006128fd826122cf565b9150612908836122cf565b92508282019050808211156129205761291f6126b9565b5b92915050565b7f5472616e7366657220746f6b656e31206661696c656400000000000000000000600082015250565b600061295c601683612228565b915061296782612926565b602082019050919050565b6000602082019050818103600083015261298b8161294f565b9050919050565b7f5472616e7366657220746f6b656e32206661696c656400000000000000000000600082015250565b60006129c8601683612228565b91506129d382612992565b602082019050919050565b600060208201905081810360008301526129f7816129bb565b9050919050565b6000608082019050612a1360008301876125ad565b612a2060208301866125ad565b612a2d60408301856125ad565b612a3a60608301846122d9565b95945050505050565b7f53616d6520746f6b656e73000000000000000000000000000000000000000000600082015250565b6000612a79600b83612228565b9150612a8482612a43565b602082019050919050565b60006020820190508181036000830152612aa881612a6c565b9050919050565b7f496e76616c696420746f6b656e00000000000000000000000000000000000000600082015250565b6000612ae5600d83612228565b9150612af082612aaf565b602082019050919050565b60006020820190508181036000830152612b1481612ad8565b9050919050565b7f5a65726f20616d6f756e74000000000000000000000000000000000000000000600082015250565b6000612b51600b83612228565b9150612b5c82612b1b565b602082019050919050565b60006020820190508181036000830152612b8081612b44565b9050919050565b7f53776170204661696c6564000000000000000000000000000000000000000000600082015250565b6000612bbd600b83612228565b9150612bc882612b87565b602082019050919050565b60006020820190508181036000830152612bec81612bb0565b9050919050565b6000604082019050612c0860008301856125ad565b612c1560208301846122d9565b9392505050565b6000612c27826122cf565b9150612c32836122cf565b9250828203905081811115612c4a57612c496126b9565b5b92915050565b6000604082019050612c6560008301856125ad565b612c7260208301846125ad565b9392505050565b6000606082019050612c8e60008301866125ad565b612c9b60208301856122d9565b612ca860408301846122d9565b94935050505056fea2646970667358221220e02f4e01c38a80a9bb74ef54d5bebc9eb03c3bff52b0d729e2926c9452c9840664736f6c63430008140033a2646970667358221220e89676fec3bcd37d4ffb93dfd3c21f635ddd34c1529ee4f917af569f28913cdc64736f6c63430008140033",
  "linkReferences": {},
  "deployedLinkReferences": {}
}