{"contracts/Pool.sol":{"Pool":{"abi":[{"inputs":[{"internalType":"address","name":"token0","type":"address"},{"internalType":"address","name":"token1","type":"address"},{"internalType":"address","name":"_feeCollector","type":"address"}],"stateMutability":"nonpayable","type":"constructor"},{"inputs":[{"internalType":"address","name":"spender","type":"address"},{"internalType":"uint256","name":"allowance","type":"uint256"},{"internalType":"uint256","name":"needed","type":"uint256"}],"name":"ERC20InsufficientAllowance","type":"error"},{"inputs":[{"internalType":"address","name":"sender","type":"address"},{"internalType":"uint256","name":"balance","type":"uint256"},{"internalType":"uint256","name":"needed","type":"uint256"}],"name":"ERC20InsufficientBalance","type":"error"},{"inputs":[{"internalType":"address","name":"approver","type":"address"}],"name":"ERC20InvalidApprover","type":"error"},{"inputs":[{"internalType":"address","name":"receiver","type":"address"}],"name":"ERC20InvalidReceiver","type":"error"},{"inputs":[{"internalType":"address","name":"sender","type":"address"}],"name":"ERC20InvalidSender","type":"error"},{"inputs":[{"internalType":"address","name":"spender","type":"address"}],"name":"ERC20InvalidSpender","type":"error"},{"inputs":[{"internalType":"address","name":"owner","type":"address"}],"name":"OwnableInvalidOwner","type":"error"},{"inputs":[{"internalType":"address","name":"account","type":"address"}],"name":"OwnableUnauthorizedAccount","type":"error"},{"inputs":[],"name":"ReentrancyGuardReentrantCall","type":"error"},{"anonymous":false,"inputs":[{"indexed":true,"internalType":"uint256","name":"lpToken","type":"uint256"},{"indexed":false,"internalType":"address","name":"token0","type":"address"},{"indexed":true,"internalType":"uint256","name":"amount0","type":"uint256"},{"indexed":false,"internalType":"address","name":"token1","type":"address"},{"indexed":true,"internalType":"uint256","name":"amount1","type":"uint256"}],"name":"AddedLiquidity","type":"event"},{"anonymous":false,"inputs":[{"indexed":true,"internalType":"address","name":"owner","type":"address"},{"indexed":true,"internalType":"address","name":"spender","type":"address"},{"indexed":false,"internalType":"uint256","name":"value","type":"uint256"}],"name":"Approval","type":"event"},{"anonymous":false,"inputs":[{"indexed":true,"internalType":"address","name":"token","type":"address"},{"indexed":true,"internalType":"uint256","name":"amount","type":"uint256"}],"name":"FeeCollected","type":"event"},{"anonymous":false,"inputs":[{"indexed":false,"internalType":"uint256","name":"lpShare","type":"uint256"},{"indexed":false,"internalType":"uint256","name":"swapperShare","type":"uint256"},{"indexed":false,"internalType":"uint256","name":"protocolShare","type":"uint256"}],"name":"FeeSharesUpdated","type":"event"},{"anonymous":false,"inputs":[{"indexed":true,"internalType":"address","name":"recipient","type":"address"},{"indexed":false,"internalType":"uint256","name":"amount","type":"uint256"},{"indexed":false,"internalType":"string","name":"incentiveType","type":"string"}],"name":"IncentiveDistributed","type":"event"},{"anonymous":false,"inputs":[{"indexed":true,"internalType":"address","name":"previousOwner","type":"address"},{"indexed":true,"internalType":"address","name":"newOwner","type":"address"}],"name":"OwnershipTransferred","type":"event"},{"anonymous":false,"inputs":[{"indexed":false,"internalType":"address","name":"tokenIn","type":"address"},{"indexed":true,"internalType":"uint256","name":"amountIn","type":"uint256"},{"indexed":false,"internalType":"address","name":"tokenOut","type":"address"},{"indexed":true,"internalType":"uint256","name":"amountOut","type":"uint256"}],"name":"Swapped","type":"event"},{"anonymous":false,"inputs":[{"indexed":true,"internalType":"address","name":"from","type":"address"},{"indexed":true,"internalType":"address","name":"to","type":"address"},{"indexed":false,"internalType":"uint256","name":"value","type":"uint256"}],"name":"Transfer","type":"event"},{"anonymous":false,"inputs":[{"indexed":true,"internalType":"uint256","name":"lpToken","type":"uint256"},{"indexed":false,"internalType":"address","name":"token0","type":"address"},{"indexed":true,"internalType":"uint256","name":"amount0","type":"uint256"},{"indexed":false,"internalType":"address","name":"token1","type":"address"},{"indexed":true,"internalType":"uint256","name":"amount1","type":"uint256"}],"name":"WithdrawLiquidity","type":"event"},{"inputs":[],"name":"FEE_DENOMINATOR","outputs":[{"internalType":"uint256","name":"","type":"uint256"}],"stateMutability":"view","type":"function"},{"inputs":[{"internalType":"uint256","name":"amount0","type":"uint256"}],"name":"addLiquidity","outputs":[],"stateMutability":"nonpayable","type":"function"},{"inputs":[{"internalType":"address","name":"owner","type":"address"},{"internalType":"address","name":"spender","type":"address"}],"name":"allowance","outputs":[{"internalType":"uint256","name":"","type":"uint256"}],"stateMutability":"view","type":"function"},{"inputs":[{"internalType":"address","name":"spender","type":"address"},{"internalType":"uint256","name":"value","type":"uint256"}],"name":"approve","outputs":[{"internalType":"bool","name":"","type":"bool"}],"stateMutability":"nonpayable","type":"function"},{"inputs":[{"internalType":"address","name":"account","type":"address"}],"name":"balanceOf","outputs":[{"internalType":"uint256","name":"","type":"uint256"}],"stateMutability":"view","type":"function"},{"inputs":[{"internalType":"bool","name":"useToken0","type":"bool"}],"name":"claimLpIncentives","outputs":[],"stateMutability":"nonpayable","type":"function"},{"inputs":[],"name":"decimals","outputs":[{"internalType":"uint8","name":"","type":"uint8"}],"stateMutability":"view","type":"function"},{"inputs":[{"internalType":"address[]","name":"providers","type":"address[]"},{"internalType":"uint256[]","name":"amounts","type":"uint256[]"}],"name":"distributeLpIncentives","outputs":[],"stateMutability":"nonpayable","type":"function"},{"inputs":[],"name":"feeCollector","outputs":[{"internalType":"address","name":"","type":"address"}],"stateMutability":"view","type":"function"},{"inputs":[{"internalType":"address","name":"tokenIn","type":"address"},{"internalType":"uint256","name":"amountIn","type":"uint256"},{"internalType":"address","name":"tokenOut","type":"address"}],"name":"getAmountOut","outputs":[{"internalType":"uint256","name":"","type":"uint256"}],"stateMutability":"view","type":"function"},{"inputs":[{"internalType":"uint256","name":"amount0","type":"uint256"}],"name":"getRequiredAmount1","outputs":[{"internalType":"uint256","name":"","type":"uint256"}],"stateMutability":"view","type":"function"},{"inputs":[],"name":"getReserves","outputs":[{"internalType":"uint256","name":"","type":"uint256"},{"internalType":"uint256","name":"","type":"uint256"},{"internalType":"uint256","name":"","type":"uint256"}],"stateMutability":"view","type":"function"},{"inputs":[],"name":"liquidityProviderIncentives","outputs":[{"internalType":"uint256","name":"","type":"uint256"}],"stateMutability":"view","type":"function"},{"inputs":[],"name":"lpIncentiveShare","outputs":[{"internalType":"uint256","name":"","type":"uint256"}],"stateMutability":"view","type":"function"},{"inputs":[],"name":"name","outputs":[{"internalType":"string","name":"","type":"string"}],"stateMutability":"view","type":"function"},{"inputs":[],"name":"owner","outputs":[{"internalType":"address","name":"","type":"address"}],"stateMutability":"view","type":"function"},{"inputs":[],"name":"protocolFeeShare","outputs":[{"internalType":"uint256","name":"","type":"uint256"}],"stateMutability":"view","type":"function"},{"inputs":[],"name":"renounceOwnership","outputs":[],"stateMutability":"nonpayable","type":"function"},{"inputs":[{"internalType":"address","name":"_feeCollector","type":"address"}],"name":"setFeeCollector","outputs":[],"stateMutability":"nonpayable","type":"function"},{"inputs":[{"internalType":"uint256","name":"_lpShare","type":"uint256"},{"internalType":"uint256","name":"_swapperShare","type":"uint256"},{"internalType":"uint256","name":"_protocolShare","type":"uint256"}],"name":"setFeeShares","outputs":[],"stateMutability":"nonpayable","type":"function"},{"inputs":[{"internalType":"uint256","name":"_tradingFee","type":"uint256"}],"name":"setTradingFee","outputs":[],"stateMutability":"nonpayable","type":"function"},{"inputs":[{"internalType":"address","name":"tokenIn","type":"address"},{"internalType":"uint256","name":"amountIn","type":"uint256"},{"internalType":"address","name":"tokenOut","type":"address"}],"name":"swap","outputs":[],"stateMutability":"nonpayable","type":"function"},{"inputs":[],"name":"swapperRebateShare","outputs":[{"internalType":"uint256","name":"","type":"uint256"}],"stateMutability":"view","type":"function"},{"inputs":[],"name":"swapperRebates","outputs":[{"internalType":"uint256","name":"","type":"uint256"}],"stateMutability":"view","type":"function"},{"inputs":[],"name":"symbol","outputs":[{"internalType":"string","name":"","type":"string"}],"stateMutability":"view","type":"function"},{"inputs":[],"name":"syncBalances","outputs":[],"stateMutability":"nonpayable","type":"function"},{"inputs":[],"name":"totalSupply","outputs":[{"internalType":"uint256","name":"","type":"uint256"}],"stateMutability":"view","type":"function"},{"inputs":[],"name":"tradingFee","outputs":[{"internalType":"uint256","name":"","type":"uint256"}],"stateMutability":"view","type":"function"},{"inputs":[{"internalType":"address","name":"to","type":"address"},{"internalType":"uint256","name":"value","type":"uint256"}],"name":"transfer","outputs":[{"internalType":"bool","name":"","type":"bool"}],"stateMutability":"nonpayable","type":"function"},{"inputs":[{"internalType":"address","name":"from","type":"address"},{"internalType":"address","name":"to","type":"address"},{"internalType":"uint256","name":"value","type":"uint256"}],"name":"transferFrom","outputs":[{"internalType":"bool","name":"","type":"bool"}],"stateMutability":"nonpayable","type":"function"},{"inputs":[{"internalType":"address","name":"newOwner","type":"address"}],"name":"transferOwnership","outputs":[],"stateMutability":"nonpayable","type":"function"},{"inputs":[{"internalType":"uint256","name":"lpAmount","type":"uint256"}],"name":"withdrawLiquidity","outputs":[],"stateMutability":"nonpayable","type":"function"}],"evm":{"bytecode":{"linkReferences":{},"object":"610100604052601e600855611388600c556107d0600d55610bb8600e553480156200002957600080fd5b5060405162002efb38038062002efb8339810160408190526200004c916200019e565b336040518060400160405280600781526020016626282a37b5b2b760c91b8152506040518060400160405280600381526020016213141560ea1b815250818181600390816200009c91906200028d565b506004620000ab82826200028d565b505060016005555050506001600160a01b038116620000e457604051631e4fbdf760e01b81526000600482015260240160405180910390fd5b620000ef816200012f565b506001600160a01b03928316608081905291831660a081905260c09290925260e091909152600980546001600160a01b0319169190921617905562000359565b600680546001600160a01b038381166001600160a01b0319831681179093556040519116919082907f8be0079c531659141344cd1fd0a4f28419497f9722a3daafe3b4186f6b6457e090600090a35050565b80516001600160a01b03811681146200019957600080fd5b919050565b600080600060608486031215620001b457600080fd5b620001bf8462000181565b9250620001cf6020850162000181565b9150620001df6040850162000181565b90509250925092565b634e487b7160e01b600052604160045260246000fd5b600181811c908216806200021357607f821691505b6020821081036200023457634e487b7160e01b600052602260045260246000fd5b50919050565b601f8211156200028857600081815260208120601f850160051c81016020861015620002635750805b601f850160051c820191505b8181101562000284578281556001016200026f565b5050505b505050565b81516001600160401b03811115620002a957620002a9620001e8565b620002c181620002ba8454620001fe565b846200023a565b602080601f831160018114620002f95760008415620002e05750858301515b600019600386901b1c1916600185901b17855562000284565b600085815260208120601f198616915b828110156200032a5788860151825594840194600190910190840162000309565b5085821015620003495787850151600019600388901b60f8161c191681555b5050505050600190811b01905550565b60805160a05160c05160e051612a96620004656000396000818161075a01528181610a0701528181610a7d01528181610c5901528181610f7101528181610fe7015281816110dd0152818161118a01528181611b0c01528181611f0e0152612032015260008181610707015281816109ba01528181610a5801528181610b9901528181610d0301528181610e4a01528181610fc2015281816110a20152818161114f01528181611ad901528181611e310152611edb01526000818161059a015281816108f601528181610be201528181610eaf0152611f6b01526000818161051a0152818161082001528181610b1c01528181610d87015281816118fa0152611d6a0152612a966000f3fe608060405234801561001057600080fd5b50600436106101f05760003560e01c80638da5cb5b1161010f578063c415b95c116100a2578063e4383cdb11610071578063e4383cdb14610422578063f28f79721461042b578063f2fde38b1461043e578063ff9c8ac61461045157600080fd5b8063c415b95c146103ba578063c5492b4e146103cd578063d73792a9146103e0578063dd62ed3e146103e957600080fd5b80639d4e74c7116100de5780639d4e74c714610378578063a42dce8014610381578063a9059cbb14610394578063b0d54bcf146103a757600080fd5b80638da5cb5b1461032f578063929f8c751461035457806395d89b4114610367578063960b26a21461036f57600080fd5b8063336b78a01161018757806370a082311161015657806370a08231146102e2578063715018a61461030b5780638163e4251461031357806389cdfb3a1461031c57600080fd5b8063336b78a0146102ab57806351c6590a146102b357806356f43352146102c65780636d069a67146102cf57600080fd5b806318160ddd116101c357806318160ddd1461026e57806323b872dd146102805780632c237d2214610293578063313ce5671461029c57600080fd5b806306fdde03146101f55780630902f1ac14610213578063095ea7b3146102365780630a861f2a14610259575b600080fd5b6101fd610464565b60405161020a91906126a3565b60405180910390f35b61021b6104f6565b6040805193845260208401929092529082015260600161020a565b61024961024436600461270d565b61061b565b604051901515815260200161020a565b61026c610267366004612737565b610635565b005b6002545b60405190815260200161020a565b61024961028e366004612750565b610ae3565b610272600b5481565b6040516012815260200161020a565b61026c610b07565b61026c6102c1366004612737565b610c8a565b61027260085481565b61026c6102dd36600461278c565b611049565b6102726102f03660046127c8565b6001600160a01b031660009081526020819052604090205490565b61026c6117af565b610272600c5481565b61026c61032a366004612836565b6117c3565b6006546001600160a01b03165b6040516001600160a01b03909116815260200161020a565b610272610362366004612737565b611acf565b6101fd611b6e565b610272600e5481565b610272600a5481565b61026c61038f3660046127c8565b611b7d565b6102496103a236600461270d565b611bec565b61026c6103b5366004612737565b611bfa565b60095461033c906001600160a01b031681565b61026c6103db3660046128b0565b611c47565b61027261271081565b6102726103f73660046128cd565b6001600160a01b03918216600090815260016020908152604080832093909416825291909152205490565b610272600d5481565b61026c610439366004612900565b6120d5565b61026c61044c3660046127c8565b612197565b61027261045f36600461278c565b6121d2565b6060600380546104739061292c565b80601f016020809104026020016040519081016040528092919081815260200182805461049f9061292c565b80156104ec5780601f106104c1576101008083540402835291602001916104ec565b820191906000526020600020905b8154815290600101906020018083116104cf57829003601f168201915b5050505050905090565b6040516370a0823160e01b8152306004820152600090819081906001600160a01b037f000000000000000000000000000000000000000000000000000000000000000016906370a0823190602401602060405180830381865afa158015610561573d6000803e3d6000fd5b505050506040513d601f19601f820116820180604052508101906105859190612966565b6040516370a0823160e01b81523060048201527f00000000000000000000000000000000000000000000000000000000000000006001600160a01b0316906370a0823190602401602060405180830381865afa1580156105e9573d6000803e3d6000fd5b505050506040513d601f19601f8201168201806040525081019061060d9190612966565b600254925092509250909192565b6000336106298185856122a6565b60019150505b92915050565b61063d6122b3565b610645610b07565b6000811161069a5760405162461bcd60e51b815260206004820152601d60248201527f416d6f756e74206d7573742062652067726561746572207468616e203000000060448201526064015b60405180910390fd5b336000908152602081905260409020548111156106f25760405162461bcd60e51b8152602060048201526016602482015275496e73756666696369656e74204c5020746f6b656e7360501b6044820152606401610691565b60006106fd60025490565b6001600160a01b037f0000000000000000000000000000000000000000000000000000000000000000166000908152600760205260408120549192509082906107469085612995565b61075091906129ac565b6001600160a01b037f0000000000000000000000000000000000000000000000000000000000000000166000908152600760205260408120549192509083906107999086612995565b6107a391906129ac565b90506000821180156107b55750600081115b6107fa5760405162461bcd60e51b8152602060048201526016602482015275496e73756666696369656e74206c697175696469747960501b6044820152606401610691565b61080433856122dd565b60405163a9059cbb60e01b8152336004820152602481018390527f00000000000000000000000000000000000000000000000000000000000000006001600160a01b03169063a9059cbb906044016020604051808303816000875af1158015610871573d6000803e3d6000fd5b505050506040513d601f19601f8201168201806040525081019061089591906129ce565b6108da5760405162461bcd60e51b8152602060048201526016602482015275151c985b9cd9995c881d1bdad95b8c0819985a5b195960521b6044820152606401610691565b60405163a9059cbb60e01b8152336004820152602481018290527f00000000000000000000000000000000000000000000000000000000000000006001600160a01b03169063a9059cbb906044016020604051808303816000875af1158015610947573d6000803e3d6000fd5b505050506040513d601f19601f8201168201806040525081019061096b91906129ce565b6109b05760405162461bcd60e51b8152602060048201526016602482015275151c985b9cd9995c881d1bdad95b8c4819985a5b195960521b6044820152606401610691565b6001600160a01b037f000000000000000000000000000000000000000000000000000000000000000016600090815260076020526040812080548492906109f89084906129eb565b90915550506001600160a01b037f00000000000000000000000000000000000000000000000000000000000000001660009081526007602052604081208054839290610a459084906129eb565b9091555050604080516001600160a01b037f0000000000000000000000000000000000000000000000000000000000000000811682527f00000000000000000000000000000000000000000000000000000000000000001660208201528291849187917f4feefb98a7c84001da15ccf33564ab7260004d4ad400a973da1fbdfed0b650a8910160405180910390a4505050610ae06001600555565b50565b600033610af1858285612317565b610afc858585612390565b506001949350505050565b6040516370a0823160e01b81523060048201527f00000000000000000000000000000000000000000000000000000000000000006001600160a01b0316906370a0823190602401602060405180830381865afa158015610b6b573d6000803e3d6000fd5b505050506040513d601f19601f82011682018060405250810190610b8f9190612966565b6001600160a01b037f00000000000000000000000000000000000000000000000000000000000000008116600090815260076020526040908190209290925590516370a0823160e01b81523060048201527f0000000000000000000000000000000000000000000000000000000000000000909116906370a0823190602401602060405180830381865afa158015610c2b573d6000803e3d6000fd5b505050506040513d601f19601f82011682018060405250810190610c4f9190612966565b6001600160a01b037f000000000000000000000000000000000000000000000000000000000000000016600090815260076020526040902055565b610c926122b3565b60008111610ce25760405162461bcd60e51b815260206004820152601d60248201527f416d6f756e74206d7573742062652067726561746572207468616e20300000006044820152606401610691565b6000610ced82611acf565b9050600080610cfb60025490565b1115610d58577f00000000000000000000000000000000000000000000000000000000000000006001600160a01b0316600090815260076020526040902054600254610d479085612995565b610d5191906129ac565b9050610d5b565b50815b610d6533826123ef565b6040516323b872dd60e01b8152336004820152306024820152604481018490527f00000000000000000000000000000000000000000000000000000000000000006001600160a01b0316906323b872dd906064016020604051808303816000875af1158015610dd8573d6000803e3d6000fd5b505050506040513d601f19601f82011682018060405250810190610dfc91906129ce565b610e405760405162461bcd60e51b8152602060048201526015602482015274151c985b9cd9995c88105b1c1a184819985a5b1959605a1b6044820152606401610691565b6001600160a01b037f00000000000000000000000000000000000000000000000000000000000000001660009081526007602052604081208054859290610e889084906129fe565b90915550506040516323b872dd60e01b8152336004820152306024820152604481018390527f00000000000000000000000000000000000000000000000000000000000000006001600160a01b0316906323b872dd906064016020604051808303816000875af1158015610f00573d6000803e3d6000fd5b505050506040513d601f19601f82011682018060405250810190610f2491906129ce565b610f675760405162461bcd60e51b8152602060048201526014602482015273151c985b9cd9995c8810995d184819985a5b195960621b6044820152606401610691565b6001600160a01b037f00000000000000000000000000000000000000000000000000000000000000001660009081526007602052604081208054849290610faf9084906129fe565b9091555050604080516001600160a01b037f0000000000000000000000000000000000000000000000000000000000000000811682527f00000000000000000000000000000000000000000000000000000000000000001660208201528391859184917f86c3929a230b573aa47cd83759aed11b800d147abc23e246dfeb5ebbd7a110e3910160405180910390a45050610ae06001600555565b6110516122b3565b806001600160a01b0316836001600160a01b0316036110a05760405162461bcd60e51b815260206004820152600b60248201526a53616d6520746f6b656e7360a81b6044820152606401610691565b7f00000000000000000000000000000000000000000000000000000000000000006001600160a01b0316836001600160a01b0316148061111157507f00000000000000000000000000000000000000000000000000000000000000006001600160a01b0316836001600160a01b0316145b61114d5760405162461bcd60e51b815260206004820152600d60248201526c24b73b30b634b2103a37b5b2b760991b6044820152606401610691565b7f00000000000000000000000000000000000000000000000000000000000000006001600160a01b0316816001600160a01b031614806111be57507f00000000000000000000000000000000000000000000000000000000000000006001600160a01b0316816001600160a01b0316145b6111fa5760405162461bcd60e51b815260206004820152600d60248201526c24b73b30b634b2103a37b5b2b760991b6044820152606401610691565b600082116112385760405162461bcd60e51b815260206004820152600b60248201526a16995c9bc8185b5bdd5b9d60aa1b6044820152606401610691565b6001600160a01b038084166000908152600760205260408082205492841682528120546008549091906127109061126f9087612995565b61127991906129ac565b9050600061128782876129eb565b90506000612710600c548461129c9190612995565b6112a691906129ac565b90506000612710600d54856112bb9190612995565b6112c591906129ac565b90506000816112d484876129eb565b6112de91906129eb565b6040516323b872dd60e01b8152336004820152306024820152604481018b90529091506001600160a01b038b16906323b872dd906064016020604051808303816000875af1158015611334573d6000803e3d6000fd5b505050506040513d601f19601f8201168201806040525081019061135891906129ce565b6113a45760405162461bcd60e51b815260206004820152601760248201527f5472616e7366657220746f6b656e496e206661696c65640000000000000000006044820152606401610691565b82156113ef5782600a60008282546113bc91906129fe565b90915550506001600160a01b038a16600090815260076020526040812080548592906113e99084906129fe565b90915550505b81156115025760405163a9059cbb60e01b8152336004820152602481018390526001600160a01b038b169063a9059cbb906044016020604051808303816000875af1158015611442573d6000803e3d6000fd5b505050506040513d601f19601f8201168201806040525081019061146691906129ce565b6114aa5760405162461bcd60e51b815260206004820152601560248201527414ddd85c1c195c881c9958985d194819985a5b1959605a1b6044820152606401610691565b336001600160a01b0316600080516020612a41833981519152836040516114f9918152604060208201819052600e908201526d535741505045525f52454241544560901b606082015260800190565b60405180910390a25b80156116025760095460405163a9059cbb60e01b81526001600160a01b03918216600482015260248101839052908b169063a9059cbb906044016020604051808303816000875af115801561155b573d6000803e3d6000fd5b505050506040513d601f19601f8201168201806040525081019061157f91906129ce565b6115cb5760405162461bcd60e51b815260206004820152601c60248201527f50726f746f636f6c20666565207472616e73666572206661696c6564000000006044820152606401610691565b60405181906001600160a01b038c16907f06c5efeff5c320943d265dc4e5f1af95ad523555ce0c1957e367dda5514572df90600090a35b600061160f8b8b8b6121d2565b9050600081116116615760405162461bcd60e51b815260206004820152601a60248201527f496e73756666696369656e74206f757470757420616d6f756e740000000000006044820152606401610691565b60405163a9059cbb60e01b8152336004820152602481018290526001600160a01b038a169063a9059cbb906044016020604051808303816000875af11580156116ae573d6000803e3d6000fd5b505050506040513d601f19601f820116820180604052508101906116d291906129ce565b61170c5760405162461bcd60e51b815260206004820152600b60248201526a14ddd85c0811985a5b195960aa1b6044820152606401610691565b61171685896129fe565b6001600160a01b03808d1660009081526007602052604080822093909355908b168152908120805483929061174c9084906129eb565b9091555050604080516001600160a01b03808e1682528b166020820152829187917fdb587d878116df0bdd4fe154699aa2c5f439da001cc811dfd05d9f589fc5a8ee910160405180910390a350505050505050506117aa6001600555565b505050565b6117b7612425565b6117c16000612452565b565b6117cb612425565b8281146118135760405162461bcd60e51b8152602060048201526016602482015275082e4e4c2f2e640d8cadccee8d040dad2e6dac2e8c6d60531b6044820152606401610691565b6000805b828110156118575783838281811061183157611831612a11565b905060200201358261184391906129fe565b91508061184f81612a27565b915050611817565b50600a548111156118b45760405162461bcd60e51b815260206004820152602160248201527f496e73756666696369656e74204c5020696e63656e746976652062616c616e636044820152606560f81b6064820152608401610691565b80600a60008282546118c691906129eb565b90915550600090505b84811015611ac75760008484838181106118eb576118eb612a11565b905060200201351115611ab5577f00000000000000000000000000000000000000000000000000000000000000006001600160a01b031663a9059cbb87878481811061193957611939612a11565b905060200201602081019061194e91906127c8565b86868581811061196057611960612a11565b6040516001600160e01b031960e087901b1681526001600160a01b03909416600485015260200291909101356024830152506044016020604051808303816000875af11580156119b4573d6000803e3d6000fd5b505050506040513d601f19601f820116820180604052508101906119d891906129ce565b611a245760405162461bcd60e51b815260206004820152601c60248201527f4c5020696e63656e74697665207472616e73666572206661696c6564000000006044820152606401610691565b858582818110611a3657611a36612a11565b9050602002016020810190611a4b91906127c8565b6001600160a01b0316600080516020612a41833981519152858584818110611a7557611a75612a11565b90506020020135604051611aac91815260406020820181905260099082015268131417d49155d0549160ba1b606082015260800190565b60405180910390a25b80611abf81612a27565b9150506118cf565b505050505050565b6001600160a01b037f00000000000000000000000000000000000000000000000000000000000000008116600090815260076020526040808220547f00000000000000000000000000000000000000000000000000000000000000009093168252812054909190811580611b41575080155b15611b5957611b51600285612995565b949350505050565b81611b648286612995565b611b5191906129ac565b6060600480546104739061292c565b611b85612425565b6001600160a01b038116611bca5760405162461bcd60e51b815260206004820152600c60248201526b5a65726f206164647265737360a01b6044820152606401610691565b600980546001600160a01b0319166001600160a01b0392909216919091179055565b600033610629818585612390565b611c02612425565b6064811115611c425760405162461bcd60e51b815260206004820152600c60248201526b08ccaca40e8dede40d0d2ced60a31b6044820152606401610691565b600855565b3360009081526020819052604090205480611c995760405162461bcd60e51b8152602060048201526012602482015271139bc81314081d1bdad95b9cc81bdddb995960721b6044820152606401610691565b6000611ca460025490565b90506000670de0b6b3a76400008284600a54611cc09190612995565b611cd290670de0b6b3a7640000612995565b611cdc91906129ac565b611ce691906129ac565b905060008111611d315760405162461bcd60e51b81526020600482015260166024820152754e6f20696e63656e746976657320746f20636c61696d60501b6044820152606401610691565b80600a6000828254611d4391906129eb565b90915550508315611ed15760405163a9059cbb60e01b8152336004820152602481018290527f00000000000000000000000000000000000000000000000000000000000000006001600160a01b03169063a9059cbb906044016020604051808303816000875af1158015611dbb573d6000803e3d6000fd5b505050506040513d601f19601f82011682018060405250810190611ddf91906129ce565b611e275760405162461bcd60e51b8152602060048201526019602482015278125b98d95b9d1a5d99481d1c985b9cd9995c8819985a5b1959603a1b6044820152606401610691565b6001600160a01b037f00000000000000000000000000000000000000000000000000000000000000001660009081526007602052604081208054839290611e6f9084906129eb565b90915550506040513390600080516020612a4183398151915290611ec4908481526040602082018190526016908201527504c505f5245574152445f434c41494d5f544f4b454e360541b606082015260800190565b60405180910390a26120cf565b6001600160a01b037f00000000000000000000000000000000000000000000000000000000000000008116600090815260076020526040808220547f00000000000000000000000000000000000000000000000000000000000000009093168252812054909190611f429084612995565b611f4c91906129ac565b60405163a9059cbb60e01b8152336004820152602481018290529091507f00000000000000000000000000000000000000000000000000000000000000006001600160a01b03169063a9059cbb906044016020604051808303816000875af1158015611fbc573d6000803e3d6000fd5b505050506040513d601f19601f82011682018060405250810190611fe091906129ce565b6120285760405162461bcd60e51b8152602060048201526019602482015278125b98d95b9d1a5d99481d1c985b9cd9995c8819985a5b1959603a1b6044820152606401610691565b6001600160a01b037f000000000000000000000000000000000000000000000000000000000000000016600090815260076020526040812080548392906120709084906129eb565b90915550506040513390600080516020612a41833981519152906120c590848152604060208201819052601690820152754c505f5245574152445f434c41494d5f544f4b454e3160501b606082015260800190565b60405180910390a2505b50505050565b6120dd612425565b612710816120eb84866129fe565b6120f591906129fe565b146121425760405162461bcd60e51b815260206004820152601760248201527f536861726573206d7573742073756d20746f20313030250000000000000000006044820152606401610691565b600c839055600d829055600e81905560408051848152602081018490529081018290527f4677abe8dbff9a9de3cc464f74e0c16415fc3e839597772eb5fe5ece02a6a90a9060600160405180910390a1505050565b61219f612425565b6001600160a01b0381166121c957604051631e4fbdf760e01b815260006004820152602401610691565b610ae081612452565b6001600160a01b0380821660009081526007602052604080822054928616825281205490919080158015906122075750600082115b61224c5760405162461bcd60e51b8152602060048201526016602482015275496e73756666696369656e74206c697175696469747960501b6044820152606401610691565b60006127106008548761225f9190612995565b61226991906129ac565b9050600061227782886129eb565b9050600061228582856129fe565b61228f8387612995565b61229991906129ac565b9998505050505050505050565b6117aa83838360016124a4565b6002600554036122d657604051633ee5aeb560e01b815260040160405180910390fd5b6002600555565b6001600160a01b03821661230757604051634b637e8f60e11b815260006004820152602401610691565b61231382600083612579565b5050565b6001600160a01b038381166000908152600160209081526040808320938616835292905220546000198110156120cf578181101561238157604051637dc7a0d960e11b81526001600160a01b03841660048201526024810182905260448101839052606401610691565b6120cf848484840360006124a4565b6001600160a01b0383166123ba57604051634b637e8f60e11b815260006004820152602401610691565b6001600160a01b0382166123e45760405163ec442f0560e01b815260006004820152602401610691565b6117aa838383612579565b6001600160a01b0382166124195760405163ec442f0560e01b815260006004820152602401610691565b61231360008383612579565b6006546001600160a01b031633146117c15760405163118cdaa760e01b8152336004820152602401610691565b600680546001600160a01b038381166001600160a01b0319831681179093556040519116919082907f8be0079c531659141344cd1fd0a4f28419497f9722a3daafe3b4186f6b6457e090600090a35050565b6001600160a01b0384166124ce5760405163e602df0560e01b815260006004820152602401610691565b6001600160a01b0383166124f857604051634a1406b160e11b815260006004820152602401610691565b6001600160a01b03808516600090815260016020908152604080832093871683529290522082905580156120cf57826001600160a01b0316846001600160a01b03167f8c5be1e5ebec7d5bd14f71427d1e84f3dd0314c0f7b2291e5b200ac8c7c3b9258460405161256b91815260200190565b60405180910390a350505050565b6001600160a01b0383166125a457806002600082825461259991906129fe565b909155506126169050565b6001600160a01b038316600090815260208190526040902054818110156125f75760405163391434e360e21b81526001600160a01b03851660048201526024810182905260448101839052606401610691565b6001600160a01b03841660009081526020819052604090209082900390555b6001600160a01b03821661263257600280548290039055612651565b6001600160a01b03821660009081526020819052604090208054820190555b816001600160a01b0316836001600160a01b03167fddf252ad1be2c89b69c2b068fc378daa952ba7f163c4a11628f55a4df523b3ef8360405161269691815260200190565b60405180910390a3505050565b600060208083528351808285015260005b818110156126d0578581018301518582016040015282016126b4565b506000604082860101526040601f19601f8301168501019250505092915050565b80356001600160a01b038116811461270857600080fd5b919050565b6000806040838503121561272057600080fd5b612729836126f1565b946020939093013593505050565b60006020828403121561274957600080fd5b5035919050565b60008060006060848603121561276557600080fd5b61276e846126f1565b925061277c602085016126f1565b9150604084013590509250925092565b6000806000606084860312156127a157600080fd5b6127aa846126f1565b9250602084013591506127bf604085016126f1565b90509250925092565b6000602082840312156127da57600080fd5b6127e3826126f1565b9392505050565b60008083601f8401126127fc57600080fd5b50813567ffffffffffffffff81111561281457600080fd5b6020830191508360208260051b850101111561282f57600080fd5b9250929050565b6000806000806040858703121561284c57600080fd5b843567ffffffffffffffff8082111561286457600080fd5b612870888389016127ea565b9096509450602087013591508082111561288957600080fd5b50612896878288016127ea565b95989497509550505050565b8015158114610ae057600080fd5b6000602082840312156128c257600080fd5b81356127e3816128a2565b600080604083850312156128e057600080fd5b6128e9836126f1565b91506128f7602084016126f1565b90509250929050565b60008060006060848603121561291557600080fd5b505081359360208301359350604090920135919050565b600181811c9082168061294057607f821691505b60208210810361296057634e487b7160e01b600052602260045260246000fd5b50919050565b60006020828403121561297857600080fd5b5051919050565b634e487b7160e01b600052601160045260246000fd5b808202811582820484141761062f5761062f61297f565b6000826129c957634e487b7160e01b600052601260045260246000fd5b500490565b6000602082840312156129e057600080fd5b81516127e3816128a2565b8181038181111561062f5761062f61297f565b8082018082111561062f5761062f61297f565b634e487b7160e01b600052603260045260246000fd5b600060018201612a3957612a3961297f565b506001019056fef0b441e8c48cf479a1c110ac8f67967e2c14c98ec18d7905b013cc9ce4b4106ba2646970667358221220f97ee6b9808f9d0294693c734d7a97aa4d466d433e9f4f52cd3063e69b58731064736f6c63430008140033","opcodes":"PUSH2 0x100 PUSH1 0x40 MSTORE PUSH1 0x1E PUSH1 0x8 SSTORE PUSH2 0x1388 PUSH1 0xC SSTORE PUSH2 0x7D0 PUSH1 0xD SSTORE PUSH2 0xBB8 PUSH1 0xE SSTORE CALLVALUE DUP1 ISZERO PUSH3 0x29 JUMPI PUSH1 0x0 DUP1 REVERT JUMPDEST POP PUSH1 0x40 MLOAD PUSH3 0x2EFB CODESIZE SUB DUP1 PUSH3 0x2EFB DUP4 CODECOPY DUP2 ADD PUSH1 0x40 DUP2 SWAP1 MSTORE PUSH3 0x4C SWAP2 PUSH3 0x19E JUMP JUMPDEST CALLER PUSH1 0x40 MLOAD DUP1 PUSH1 0x40 ADD PUSH1 0x40 MSTORE DUP1 PUSH1 0x7 DUP2 MSTORE PUSH1 0x20 ADD PUSH7 0x26282A37B5B2B7 PUSH1 0xC9 SHL DUP2 MSTORE POP PUSH1 0x40 MLOAD DUP1 PUSH1 0x40 ADD PUSH1 0x40 MSTORE DUP1 PUSH1 0x3 DUP2 MSTORE PUSH1 0x20 ADD PUSH3 0x131415 PUSH1 0xEA SHL DUP2 MSTORE POP DUP2 DUP2 DUP2 PUSH1 0x3 SWAP1 DUP2 PUSH3 0x9C SWAP2 SWAP1 PUSH3 0x28D JUMP JUMPDEST POP PUSH1 0x4 PUSH3 0xAB DUP3 DUP3 PUSH3 0x28D JUMP JUMPDEST POP POP PUSH1 0x1 PUSH1 0x5 SSTORE POP POP POP PUSH1 0x1 PUSH1 0x1 PUSH1 0xA0 SHL SUB DUP2 AND PUSH3 0xE4 JUMPI PUSH1 0x40 MLOAD PUSH4 0x1E4FBDF7 PUSH1 0xE0 SHL DUP2 MSTORE PUSH1 0x0 PUSH1 0x4 DUP3 ADD MSTORE PUSH1 0x24 ADD PUSH1 0x40 MLOAD DUP1 SWAP2 SUB SWAP1 REVERT JUMPDEST PUSH3 0xEF DUP2 PUSH3 0x12F JUMP JUMPDEST POP PUSH1 0x1 PUSH1 0x1 PUSH1 0xA0 SHL SUB SWAP3 DUP4 AND PUSH1 0x80 DUP2 SWAP1 MSTORE SWAP2 DUP4 AND PUSH1 0xA0 DUP2 SWAP1 MSTORE PUSH1 0xC0 SWAP3 SWAP1 SWAP3 MSTORE PUSH1 0xE0 SWAP2 SWAP1 SWAP2 MSTORE PUSH1 0x9 DUP1 SLOAD PUSH1 0x1 PUSH1 0x1 PUSH1 0xA0 SHL SUB NOT AND SWAP2 SWAP1 SWAP3 AND OR SWAP1 SSTORE PUSH3 0x359 JUMP JUMPDEST PUSH1 0x6 DUP1 SLOAD PUSH1 0x1 PUSH1 0x1 PUSH1 0xA0 SHL SUB DUP4 DUP2 AND PUSH1 0x1 PUSH1 0x1 PUSH1 0xA0 SHL SUB NOT DUP4 AND DUP2 OR SWAP1 SWAP4 SSTORE PUSH1 0x40 MLOAD SWAP2 AND SWAP2 SWAP1 DUP3 SWAP1 PUSH32 0x8BE0079C531659141344CD1FD0A4F28419497F9722A3DAAFE3B4186F6B6457E0 SWAP1 PUSH1 0x0 SWAP1 LOG3 POP POP JUMP JUMPDEST DUP1 MLOAD PUSH1 0x1 PUSH1 0x1 PUSH1 0xA0 SHL SUB DUP2 AND DUP2 EQ PUSH3 0x199 JUMPI PUSH1 0x0 DUP1 REVERT JUMPDEST SWAP2 SWAP1 POP JUMP JUMPDEST PUSH1 0x0 DUP1 PUSH1 0x0 PUSH1 0x60 DUP5 DUP7 SUB SLT ISZERO PUSH3 0x1B4 JUMPI PUSH1 0x0 DUP1 REVERT JUMPDEST PUSH3 0x1BF DUP5 PUSH3 0x181 JUMP JUMPDEST SWAP3 POP PUSH3 0x1CF PUSH1 0x20 DUP6 ADD PUSH3 0x181 JUMP JUMPDEST SWAP2 POP PUSH3 0x1DF PUSH1 0x40 DUP6 ADD PUSH3 0x181 JUMP JUMPDEST SWAP1 POP SWAP3 POP SWAP3 POP SWAP3 JUMP JUMPDEST PUSH4 0x4E487B71 PUSH1 0xE0 SHL PUSH1 0x0 MSTORE PUSH1 0x41 PUSH1 0x4 MSTORE PUSH1 0x24 PUSH1 0x0 REVERT JUMPDEST PUSH1 0x1 DUP2 DUP2 SHR SWAP1 DUP3 AND DUP1 PUSH3 0x213 JUMPI PUSH1 0x7F DUP3 AND SWAP2 POP JUMPDEST PUSH1 0x20 DUP3 LT DUP2 SUB PUSH3 0x234 JUMPI PUSH4 0x4E487B71 PUSH1 0xE0 SHL PUSH1 0x0 MSTORE PUSH1 0x22 PUSH1 0x4 MSTORE PUSH1 0x24 PUSH1 0x0 REVERT JUMPDEST POP SWAP2 SWAP1 POP JUMP JUMPDEST PUSH1 0x1F DUP3 GT ISZERO PUSH3 0x288 JUMPI PUSH1 0x0 DUP2 DUP2 MSTORE PUSH1 0x20 DUP2 KECCAK256 PUSH1 0x1F DUP6 ADD PUSH1 0x5 SHR DUP2 ADD PUSH1 0x20 DUP7 LT ISZERO PUSH3 0x263 JUMPI POP DUP1 JUMPDEST PUSH1 0x1F DUP6 ADD PUSH1 0x5 SHR DUP3 ADD SWAP2 POP JUMPDEST DUP2 DUP2 LT ISZERO PUSH3 0x284 JUMPI DUP3 DUP2 SSTORE PUSH1 0x1 ADD PUSH3 0x26F JUMP JUMPDEST POP POP POP JUMPDEST POP POP POP JUMP JUMPDEST DUP2 MLOAD PUSH1 0x1 PUSH1 0x1 PUSH1 0x40 SHL SUB DUP2 GT ISZERO PUSH3 0x2A9 JUMPI PUSH3 0x2A9 PUSH3 0x1E8 JUMP JUMPDEST PUSH3 0x2C1 DUP2 PUSH3 0x2BA DUP5 SLOAD PUSH3 0x1FE JUMP JUMPDEST DUP5 PUSH3 0x23A JUMP JUMPDEST PUSH1 0x20 DUP1 PUSH1 0x1F DUP4 GT PUSH1 0x1 DUP2 EQ PUSH3 0x2F9 JUMPI PUSH1 0x0 DUP5 ISZERO PUSH3 0x2E0 JUMPI POP DUP6 DUP4 ADD MLOAD JUMPDEST PUSH1 0x0 NOT PUSH1 0x3 DUP7 SWAP1 SHL SHR NOT AND PUSH1 0x1 DUP6 SWAP1 SHL OR DUP6 SSTORE PUSH3 0x284 JUMP JUMPDEST PUSH1 0x0 DUP6 DUP2 MSTORE PUSH1 0x20 DUP2 KECCAK256 PUSH1 0x1F NOT DUP7 AND SWAP2 JUMPDEST DUP3 DUP2 LT ISZERO PUSH3 0x32A JUMPI DUP9 DUP7 ADD MLOAD DUP3 SSTORE SWAP5 DUP5 ADD SWAP5 PUSH1 0x1 SWAP1 SWAP2 ADD SWAP1 DUP5 ADD PUSH3 0x309 JUMP JUMPDEST POP DUP6 DUP3 LT ISZERO PUSH3 0x349 JUMPI DUP8 DUP6 ADD MLOAD PUSH1 0x0 NOT PUSH1 0x3 DUP9 SWAP1 SHL PUSH1 0xF8 AND SHR NOT AND DUP2 SSTORE JUMPDEST POP POP POP POP POP PUSH1 0x1 SWAP1 DUP2 SHL ADD SWAP1 SSTORE POP JUMP JUMPDEST PUSH1 0x80 MLOAD PUSH1 0xA0 MLOAD PUSH1 0xC0 MLOAD PUSH1 0xE0 MLOAD PUSH2 0x2A96 PUSH3 0x465 PUSH1 0x0 CODECOPY PUSH1 0x0 DUP2 DUP2 PUSH2 0x75A ADD MSTORE DUP2 DUP2 PUSH2 0xA07 ADD MSTORE DUP2 DUP2 PUSH2 0xA7D ADD MSTORE DUP2 DUP2 PUSH2 0xC59 ADD MSTORE DUP2 DUP2 PUSH2 0xF71 ADD MSTORE DUP2 DUP2 PUSH2 0xFE7 ADD MSTORE DUP2 DUP2 PUSH2 0x10DD ADD MSTORE DUP2 DUP2 PUSH2 0x118A ADD MSTORE DUP2 DUP2 PUSH2 0x1B0C ADD MSTORE DUP2 DUP2 PUSH2 0x1F0E ADD MSTORE PUSH2 0x2032 ADD MSTORE PUSH1 0x0 DUP2 DUP2 PUSH2 0x707 ADD MSTORE DUP2 DUP2 PUSH2 0x9BA ADD MSTORE DUP2 DUP2 PUSH2 0xA58 ADD MSTORE DUP2 DUP2 PUSH2 0xB99 ADD MSTORE DUP2 DUP2 PUSH2 0xD03 ADD MSTORE DUP2 DUP2 PUSH2 0xE4A ADD MSTORE DUP2 DUP2 PUSH2 0xFC2 ADD MSTORE DUP2 DUP2 PUSH2 0x10A2 ADD MSTORE DUP2 DUP2 PUSH2 0x114F ADD MSTORE DUP2 DUP2 PUSH2 0x1AD9 ADD MSTORE DUP2 DUP2 PUSH2 0x1E31 ADD MSTORE PUSH2 0x1EDB ADD MSTORE PUSH1 0x0 DUP2 DUP2 PUSH2 0x59A ADD MSTORE DUP2 DUP2 PUSH2 0x8F6 ADD MSTORE DUP2 DUP2 PUSH2 0xBE2 ADD MSTORE DUP2 DUP2 PUSH2 0xEAF ADD MSTORE PUSH2 0x1F6B ADD MSTORE PUSH1 0x0 DUP2 DUP2 PUSH2 0x51A ADD MSTORE DUP2 DUP2 PUSH2 0x820 ADD MSTORE DUP2 DUP2 PUSH2 0xB1C ADD MSTORE DUP2 DUP2 PUSH2 0xD87 ADD MSTORE DUP2 DUP2 PUSH2 0x18FA ADD MSTORE PUSH2 0x1D6A ADD MSTORE PUSH2 0x2A96 PUSH1 0x0 RETURN INVALID PUSH1 0x80 PUSH1 0x40 MSTORE CALLVALUE DUP1 ISZERO PUSH2 0x10 JUMPI PUSH1 0x0 DUP1 REVERT JUMPDEST POP PUSH1 0x4 CALLDATASIZE LT PUSH2 0x1F0 JUMPI PUSH1 0x0 CALLDATALOAD PUSH1 0xE0 SHR DUP1 PUSH4 0x8DA5CB5B GT PUSH2 0x10F JUMPI DUP1 PUSH4 0xC415B95C GT PUSH2 0xA2 JUMPI DUP1 PUSH4 0xE4383CDB GT PUSH2 0x71 JUMPI DUP1 PUSH4 0xE4383CDB EQ PUSH2 0x422 JUMPI DUP1 PUSH4 0xF28F7972 EQ PUSH2 0x42B JUMPI DUP1 PUSH4 0xF2FDE38B EQ PUSH2 0x43E JUMPI DUP1 PUSH4 0xFF9C8AC6 EQ PUSH2 0x451 JUMPI PUSH1 0x0 DUP1 REVERT JUMPDEST DUP1 PUSH4 0xC415B95C EQ PUSH2 0x3BA JUMPI DUP1 PUSH4 0xC5492B4E EQ PUSH2 0x3CD JUMPI DUP1 PUSH4 0xD73792A9 EQ PUSH2 0x3E0 JUMPI DUP1 PUSH4 0xDD62ED3E EQ PUSH2 0x3E9 JUMPI PUSH1 0x0 DUP1 REVERT JUMPDEST DUP1 PUSH4 0x9D4E74C7 GT PUSH2 0xDE JUMPI DUP1 PUSH4 0x9D4E74C7 EQ PUSH2 0x378 JUMPI DUP1 PUSH4 0xA42DCE80 EQ PUSH2 0x381 JUMPI DUP1 PUSH4 0xA9059CBB EQ PUSH2 0x394 JUMPI DUP1 PUSH4 0xB0D54BCF EQ PUSH2 0x3A7 JUMPI PUSH1 0x0 DUP1 REVERT JUMPDEST DUP1 PUSH4 0x8DA5CB5B EQ PUSH2 0x32F JUMPI DUP1 PUSH4 0x929F8C75 EQ PUSH2 0x354 JUMPI DUP1 PUSH4 0x95D89B41 EQ PUSH2 0x367 JUMPI DUP1 PUSH4 0x960B26A2 EQ PUSH2 0x36F JUMPI PUSH1 0x0 DUP1 REVERT JUMPDEST DUP1 PUSH4 0x336B78A0 GT PUSH2 0x187 JUMPI DUP1 PUSH4 0x70A08231 GT PUSH2 0x156 JUMPI DUP1 PUSH4 0x70A08231 EQ PUSH2 0x2E2 JUMPI DUP1 PUSH4 0x715018A6 EQ PUSH2 0x30B JUMPI DUP1 PUSH4 0x8163E425 EQ PUSH2 0x313 JUMPI DUP1 PUSH4 0x89CDFB3A EQ PUSH2 0x31C JUMPI PUSH1 0x0 DUP1 REVERT JUMPDEST DUP1 PUSH4 0x336B78A0 EQ PUSH2 0x2AB JUMPI DUP1 PUSH4 0x51C6590A EQ PUSH2 0x2B3 JUMPI DUP1 PUSH4 0x56F43352 EQ PUSH2 0x2C6 JUMPI DUP1 PUSH4 0x6D069A67 EQ PUSH2 0x2CF JUMPI PUSH1 0x0 DUP1 REVERT JUMPDEST DUP1 PUSH4 0x18160DDD GT PUSH2 0x1C3 JUMPI DUP1 PUSH4 0x18160DDD EQ PUSH2 0x26E JUMPI DUP1 PUSH4 0x23B872DD EQ PUSH2 0x280 JUMPI DUP1 PUSH4 0x2C237D22 EQ PUSH2 0x293 JUMPI DUP1 PUSH4 0x313CE567 EQ PUSH2 0x29C JUMPI PUSH1 0x0 DUP1 REVERT JUMPDEST DUP1 PUSH4 0x6FDDE03 EQ PUSH2 0x1F5 JUMPI DUP1 PUSH4 0x902F1AC EQ PUSH2 0x213 JUMPI DUP1 PUSH4 0x95EA7B3 EQ PUSH2 0x236 JUMPI DUP1 PUSH4 0xA861F2A EQ PUSH2 0x259 JUMPI JUMPDEST PUSH1 0x0 DUP1 REVERT JUMPDEST PUSH2 0x1FD PUSH2 0x464 JUMP JUMPDEST PUSH1 0x40 MLOAD PUSH2 0x20A SWAP2 SWAP1 PUSH2 0x26A3 JUMP JUMPDEST PUSH1 0x40 MLOAD DUP1 SWAP2 SUB SWAP1 RETURN JUMPDEST PUSH2 0x21B PUSH2 0x4F6 JUMP JUMPDEST PUSH1 0x40 DUP1 MLOAD SWAP4 DUP5 MSTORE PUSH1 0x20 DUP5 ADD SWAP3 SWAP1 SWAP3 MSTORE SWAP1 DUP3 ADD MSTORE PUSH1 0x60 ADD PUSH2 0x20A JUMP JUMPDEST PUSH2 0x249 PUSH2 0x244 CALLDATASIZE PUSH1 0x4 PUSH2 0x270D JUMP JUMPDEST PUSH2 0x61B JUMP JUMPDEST PUSH1 0x40 MLOAD SWAP1 ISZERO ISZERO DUP2 MSTORE PUSH1 0x20 ADD PUSH2 0x20A JUMP JUMPDEST PUSH2 0x26C PUSH2 0x267 CALLDATASIZE PUSH1 0x4 PUSH2 0x2737 JUMP JUMPDEST PUSH2 0x635 JUMP JUMPDEST STOP JUMPDEST PUSH1 0x2 SLOAD JUMPDEST PUSH1 0x40 MLOAD SWAP1 DUP2 MSTORE PUSH1 0x20 ADD PUSH2 0x20A JUMP JUMPDEST PUSH2 0x249 PUSH2 0x28E CALLDATASIZE PUSH1 0x4 PUSH2 0x2750 JUMP JUMPDEST PUSH2 0xAE3 JUMP JUMPDEST PUSH2 0x272 PUSH1 0xB SLOAD DUP2 JUMP JUMPDEST PUSH1 0x40 MLOAD PUSH1 0x12 DUP2 MSTORE PUSH1 0x20 ADD PUSH2 0x20A JUMP JUMPDEST PUSH2 0x26C PUSH2 0xB07 JUMP JUMPDEST PUSH2 0x26C PUSH2 0x2C1 CALLDATASIZE PUSH1 0x4 PUSH2 0x2737 JUMP JUMPDEST PUSH2 0xC8A JUMP JUMPDEST PUSH2 0x272 PUSH1 0x8 SLOAD DUP2 JUMP JUMPDEST PUSH2 0x26C PUSH2 0x2DD CALLDATASIZE PUSH1 0x4 PUSH2 0x278C JUMP JUMPDEST PUSH2 0x1049 JUMP JUMPDEST PUSH2 0x272 PUSH2 0x2F0 CALLDATASIZE PUSH1 0x4 PUSH2 0x27C8 JUMP JUMPDEST PUSH1 0x1 PUSH1 0x1 PUSH1 0xA0 SHL SUB AND PUSH1 0x0 SWAP1 DUP2 MSTORE PUSH1 0x20 DUP2 SWAP1 MSTORE PUSH1 0x40 SWAP1 KECCAK256 SLOAD SWAP1 JUMP JUMPDEST PUSH2 0x26C PUSH2 0x17AF JUMP JUMPDEST PUSH2 0x272 PUSH1 0xC SLOAD DUP2 JUMP JUMPDEST PUSH2 0x26C PUSH2 0x32A CALLDATASIZE PUSH1 0x4 PUSH2 0x2836 JUMP JUMPDEST PUSH2 0x17C3 JUMP JUMPDEST PUSH1 0x6 SLOAD PUSH1 0x1 PUSH1 0x1 PUSH1 0xA0 SHL SUB AND JUMPDEST PUSH1 0x40 MLOAD PUSH1 0x1 PUSH1 0x1 PUSH1 0xA0 SHL SUB SWAP1 SWAP2 AND DUP2 MSTORE PUSH1 0x20 ADD PUSH2 0x20A JUMP JUMPDEST PUSH2 0x272 PUSH2 0x362 CALLDATASIZE PUSH1 0x4 PUSH2 0x2737 JUMP JUMPDEST PUSH2 0x1ACF JUMP JUMPDEST PUSH2 0x1FD PUSH2 0x1B6E JUMP JUMPDEST PUSH2 0x272 PUSH1 0xE SLOAD DUP2 JUMP JUMPDEST PUSH2 0x272 PUSH1 0xA SLOAD DUP2 JUMP JUMPDEST PUSH2 0x26C PUSH2 0x38F CALLDATASIZE PUSH1 0x4 PUSH2 0x27C8 JUMP JUMPDEST PUSH2 0x1B7D JUMP JUMPDEST PUSH2 0x249 PUSH2 0x3A2 CALLDATASIZE PUSH1 0x4 PUSH2 0x270D JUMP JUMPDEST PUSH2 0x1BEC JUMP JUMPDEST PUSH2 0x26C PUSH2 0x3B5 CALLDATASIZE PUSH1 0x4 PUSH2 0x2737 JUMP JUMPDEST PUSH2 0x1BFA JUMP JUMPDEST PUSH1 0x9 SLOAD PUSH2 0x33C SWAP1 PUSH1 0x1 PUSH1 0x1 PUSH1 0xA0 SHL SUB AND DUP2 JUMP JUMPDEST PUSH2 0x26C PUSH2 0x3DB CALLDATASIZE PUSH1 0x4 PUSH2 0x28B0 JUMP JUMPDEST PUSH2 0x1C47 JUMP JUMPDEST PUSH2 0x272 PUSH2 0x2710 DUP2 JUMP JUMPDEST PUSH2 0x272 PUSH2 0x3F7 CALLDATASIZE PUSH1 0x4 PUSH2 0x28CD JUMP JUMPDEST PUSH1 0x1 PUSH1 0x1 PUSH1 0xA0 SHL SUB SWAP2 DUP3 AND PUSH1 0x0 SWAP1 DUP2 MSTORE PUSH1 0x1 PUSH1 0x20 SWAP1 DUP2 MSTORE PUSH1 0x40 DUP1 DUP4 KECCAK256 SWAP4 SWAP1 SWAP5 AND DUP3 MSTORE SWAP2 SWAP1 SWAP2 MSTORE KECCAK256 SLOAD SWAP1 JUMP JUMPDEST PUSH2 0x272 PUSH1 0xD SLOAD DUP2 JUMP JUMPDEST PUSH2 0x26C PUSH2 0x439 CALLDATASIZE PUSH1 0x4 PUSH2 0x2900 JUMP JUMPDEST PUSH2 0x20D5 JUMP JUMPDEST PUSH2 0x26C PUSH2 0x44C CALLDATASIZE PUSH1 0x4 PUSH2 0x27C8 JUMP JUMPDEST PUSH2 0x2197 JUMP JUMPDEST PUSH2 0x272 PUSH2 0x45F CALLDATASIZE PUSH1 0x4 PUSH2 0x278C JUMP JUMPDEST PUSH2 0x21D2 JUMP JUMPDEST PUSH1 0x60 PUSH1 0x3 DUP1 SLOAD PUSH2 0x473 SWAP1 PUSH2 0x292C JUMP JUMPDEST DUP1 PUSH1 0x1F ADD PUSH1 0x20 DUP1 SWAP2 DIV MUL PUSH1 0x20 ADD PUSH1 0x40 MLOAD SWAP1 DUP2 ADD PUSH1 0x40 MSTORE DUP1 SWAP3 SWAP2 SWAP1 DUP2 DUP2 MSTORE PUSH1 0x20 ADD DUP3 DUP1 SLOAD PUSH2 0x49F SWAP1 PUSH2 0x292C JUMP JUMPDEST DUP1 ISZERO PUSH2 0x4EC JUMPI DUP1 PUSH1 0x1F LT PUSH2 0x4C1 JUMPI PUSH2 0x100 DUP1 DUP4 SLOAD DIV MUL DUP4 MSTORE SWAP2 PUSH1 0x20 ADD SWAP2 PUSH2 0x4EC JUMP JUMPDEST DUP3 ADD SWAP2 SWAP1 PUSH1 0x0 MSTORE PUSH1 0x20 PUSH1 0x0 KECCAK256 SWAP1 JUMPDEST DUP2 SLOAD DUP2 MSTORE SWAP1 PUSH1 0x1 ADD SWAP1 PUSH1 0x20 ADD DUP1 DUP4 GT PUSH2 0x4CF JUMPI DUP3 SWAP1 SUB PUSH1 0x1F AND DUP3 ADD SWAP2 JUMPDEST POP POP POP POP POP SWAP1 POP SWAP1 JUMP JUMPDEST PUSH1 0x40 MLOAD PUSH4 0x70A08231 PUSH1 0xE0 SHL DUP2 MSTORE ADDRESS PUSH1 0x4 DUP3 ADD MSTORE PUSH1 0x0 SWAP1 DUP2 SWAP1 DUP2 SWAP1 PUSH1 0x1 PUSH1 0x1 PUSH1 0xA0 SHL SUB PUSH32 0x0 AND SWAP1 PUSH4 0x70A08231 SWAP1 PUSH1 0x24 ADD PUSH1 0x20 PUSH1 0x40 MLOAD DUP1 DUP4 SUB DUP2 DUP7 GAS STATICCALL ISZERO DUP1 ISZERO PUSH2 0x561 JUMPI RETURNDATASIZE PUSH1 0x0 DUP1 RETURNDATACOPY RETURNDATASIZE PUSH1 0x0 REVERT JUMPDEST POP POP POP POP PUSH1 0x40 MLOAD RETURNDATASIZE PUSH1 0x1F NOT PUSH1 0x1F DUP3 ADD AND DUP3 ADD DUP1 PUSH1 0x40 MSTORE POP DUP2 ADD SWAP1 PUSH2 0x585 SWAP2 SWAP1 PUSH2 0x2966 JUMP JUMPDEST PUSH1 0x40 MLOAD PUSH4 0x70A08231 PUSH1 0xE0 SHL DUP2 MSTORE ADDRESS PUSH1 0x4 DUP3 ADD MSTORE PUSH32 0x0 PUSH1 0x1 PUSH1 0x1 PUSH1 0xA0 SHL SUB AND SWAP1 PUSH4 0x70A08231 SWAP1 PUSH1 0x24 ADD PUSH1 0x20 PUSH1 0x40 MLOAD DUP1 DUP4 SUB DUP2 DUP7 GAS STATICCALL ISZERO DUP1 ISZERO PUSH2 0x5E9 JUMPI RETURNDATASIZE PUSH1 0x0 DUP1 RETURNDATACOPY RETURNDATASIZE PUSH1 0x0 REVERT JUMPDEST POP POP POP POP PUSH1 0x40 MLOAD RETURNDATASIZE PUSH1 0x1F NOT PUSH1 0x1F DUP3 ADD AND DUP3 ADD DUP1 PUSH1 0x40 MSTORE POP DUP2 ADD SWAP1 PUSH2 0x60D SWAP2 SWAP1 PUSH2 0x2966 JUMP JUMPDEST PUSH1 0x2 SLOAD SWAP3 POP SWAP3 POP SWAP3 POP SWAP1 SWAP2 SWAP3 JUMP JUMPDEST PUSH1 0x0 CALLER PUSH2 0x629 DUP2 DUP6 DUP6 PUSH2 0x22A6 JUMP JUMPDEST PUSH1 0x1 SWAP2 POP POP JUMPDEST SWAP3 SWAP2 POP POP JUMP JUMPDEST PUSH2 0x63D PUSH2 0x22B3 JUMP JUMPDEST PUSH2 0x645 PUSH2 0xB07 JUMP JUMPDEST PUSH1 0x0 DUP2 GT PUSH2 0x69A JUMPI PUSH1 0x40 MLOAD PUSH3 0x461BCD PUSH1 0xE5 SHL DUP2 MSTORE PUSH1 0x20 PUSH1 0x4 DUP3 ADD MSTORE PUSH1 0x1D PUSH1 0x24 DUP3 ADD MSTORE PUSH32 0x416D6F756E74206D7573742062652067726561746572207468616E2030000000 PUSH1 0x44 DUP3 ADD MSTORE PUSH1 0x64 ADD JUMPDEST PUSH1 0x40 MLOAD DUP1 SWAP2 SUB SWAP1 REVERT JUMPDEST CALLER PUSH1 0x0 SWAP1 DUP2 MSTORE PUSH1 0x20 DUP2 SWAP1 MSTORE PUSH1 0x40 SWAP1 KECCAK256 SLOAD DUP2 GT ISZERO PUSH2 0x6F2 JUMPI PUSH1 0x40 MLOAD PUSH3 0x461BCD PUSH1 0xE5 SHL DUP2 MSTORE PUSH1 0x20 PUSH1 0x4 DUP3 ADD MSTORE PUSH1 0x16 PUSH1 0x24 DUP3 ADD MSTORE PUSH22 0x496E73756666696369656E74204C5020746F6B656E73 PUSH1 0x50 SHL PUSH1 0x44 DUP3 ADD MSTORE PUSH1 0x64 ADD PUSH2 0x691 JUMP JUMPDEST PUSH1 0x0 PUSH2 0x6FD PUSH1 0x2 SLOAD SWAP1 JUMP JUMPDEST PUSH1 0x1 PUSH1 0x1 PUSH1 0xA0 SHL SUB PUSH32 0x0 AND PUSH1 0x0 SWAP1 DUP2 MSTORE PUSH1 0x7 PUSH1 0x20 MSTORE PUSH1 0x40 DUP2 KECCAK256 SLOAD SWAP2 SWAP3 POP SWAP1 DUP3 SWAP1 PUSH2 0x746 SWAP1 DUP6 PUSH2 0x2995 JUMP JUMPDEST PUSH2 0x750 SWAP2 SWAP1 PUSH2 0x29AC JUMP JUMPDEST PUSH1 0x1 PUSH1 0x1 PUSH1 0xA0 SHL SUB PUSH32 0x0 AND PUSH1 0x0 SWAP1 DUP2 MSTORE PUSH1 0x7 PUSH1 0x20 MSTORE PUSH1 0x40 DUP2 KECCAK256 SLOAD SWAP2 SWAP3 POP SWAP1 DUP4 SWAP1 PUSH2 0x799 SWAP1 DUP7 PUSH2 0x2995 JUMP JUMPDEST PUSH2 0x7A3 SWAP2 SWAP1 PUSH2 0x29AC JUMP JUMPDEST SWAP1 POP PUSH1 0x0 DUP3 GT DUP1 ISZERO PUSH2 0x7B5 JUMPI POP PUSH1 0x0 DUP2 GT JUMPDEST PUSH2 0x7FA JUMPI PUSH1 0x40 MLOAD PUSH3 0x461BCD PUSH1 0xE5 SHL DUP2 MSTORE PUSH1 0x20 PUSH1 0x4 DUP3 ADD MSTORE PUSH1 0x16 PUSH1 0x24 DUP3 ADD MSTORE PUSH22 0x496E73756666696369656E74206C6971756964697479 PUSH1 0x50 SHL PUSH1 0x44 DUP3 ADD MSTORE PUSH1 0x64 ADD PUSH2 0x691 JUMP JUMPDEST PUSH2 0x804 CALLER DUP6 PUSH2 0x22DD JUMP JUMPDEST PUSH1 0x40 MLOAD PUSH4 0xA9059CBB PUSH1 0xE0 SHL DUP2 MSTORE CALLER PUSH1 0x4 DUP3 ADD MSTORE PUSH1 0x24 DUP2 ADD DUP4 SWAP1 MSTORE PUSH32 0x0 PUSH1 0x1 PUSH1 0x1 PUSH1 0xA0 SHL SUB AND SWAP1 PUSH4 0xA9059CBB SWAP1 PUSH1 0x44 ADD PUSH1 0x20 PUSH1 0x40 MLOAD DUP1 DUP4 SUB DUP2 PUSH1 0x0 DUP8 GAS CALL ISZERO DUP1 ISZERO PUSH2 0x871 JUMPI RETURNDATASIZE PUSH1 0x0 DUP1 RETURNDATACOPY RETURNDATASIZE PUSH1 0x0 REVERT JUMPDEST POP POP POP POP PUSH1 0x40 MLOAD RETURNDATASIZE PUSH1 0x1F NOT PUSH1 0x1F DUP3 ADD AND DUP3 ADD DUP1 PUSH1 0x40 MSTORE POP DUP2 ADD SWAP1 PUSH2 0x895 SWAP2 SWAP1 PUSH2 0x29CE JUMP JUMPDEST PUSH2 0x8DA JUMPI PUSH1 0x40 MLOAD PUSH3 0x461BCD PUSH1 0xE5 SHL DUP2 MSTORE PUSH1 0x20 PUSH1 0x4 DUP3 ADD MSTORE PUSH1 0x16 PUSH1 0x24 DUP3 ADD MSTORE PUSH22 0x151C985B9CD9995C881D1BDAD95B8C0819985A5B1959 PUSH1 0x52 SHL PUSH1 0x44 DUP3 ADD MSTORE PUSH1 0x64 ADD PUSH2 0x691 JUMP JUMPDEST PUSH1 0x40 MLOAD PUSH4 0xA9059CBB PUSH1 0xE0 SHL DUP2 MSTORE CALLER PUSH1 0x4 DUP3 ADD MSTORE PUSH1 0x24 DUP2 ADD DUP3 SWAP1 MSTORE PUSH32 0x0 PUSH1 0x1 PUSH1 0x1 PUSH1 0xA0 SHL SUB AND SWAP1 PUSH4 0xA9059CBB SWAP1 PUSH1 0x44 ADD PUSH1 0x20 PUSH1 0x40 MLOAD DUP1 DUP4 SUB DUP2 PUSH1 0x0 DUP8 GAS CALL ISZERO DUP1 ISZERO PUSH2 0x947 JUMPI RETURNDATASIZE PUSH1 0x0 DUP1 RETURNDATACOPY RETURNDATASIZE PUSH1 0x0 REVERT JUMPDEST POP POP POP POP PUSH1 0x40 MLOAD RETURNDATASIZE PUSH1 0x1F NOT PUSH1 0x1F DUP3 ADD AND DUP3 ADD DUP1 PUSH1 0x40 MSTORE POP DUP2 ADD SWAP1 PUSH2 0x96B SWAP2 SWAP1 PUSH2 0x29CE JUMP JUMPDEST PUSH2 0x9B0 JUMPI PUSH1 0x40 MLOAD PUSH3 0x461BCD PUSH1 0xE5 SHL DUP2 MSTORE PUSH1 0x20 PUSH1 0x4 DUP3 ADD MSTORE PUSH1 0x16 PUSH1 0x24 DUP3 ADD MSTORE PUSH22 0x151C985B9CD9995C881D1BDAD95B8C4819985A5B1959 PUSH1 0x52 SHL PUSH1 0x44 DUP3 ADD MSTORE PUSH1 0x64 ADD PUSH2 0x691 JUMP JUMPDEST PUSH1 0x1 PUSH1 0x1 PUSH1 0xA0 SHL SUB PUSH32 0x0 AND PUSH1 0x0 SWAP1 DUP2 MSTORE PUSH1 0x7 PUSH1 0x20 MSTORE PUSH1 0x40 DUP2 KECCAK256 DUP1 SLOAD DUP5 SWAP3 SWAP1 PUSH2 0x9F8 SWAP1 DUP5 SWAP1 PUSH2 0x29EB JUMP JUMPDEST SWAP1 SWAP2 SSTORE POP POP PUSH1 0x1 PUSH1 0x1 PUSH1 0xA0 SHL SUB PUSH32 0x0 AND PUSH1 0x0 SWAP1 DUP2 MSTORE PUSH1 0x7 PUSH1 0x20 MSTORE PUSH1 0x40 DUP2 KECCAK256 DUP1 SLOAD DUP4 SWAP3 SWAP1 PUSH2 0xA45 SWAP1 DUP5 SWAP1 PUSH2 0x29EB JUMP JUMPDEST SWAP1 SWAP2 SSTORE POP POP PUSH1 0x40 DUP1 MLOAD PUSH1 0x1 PUSH1 0x1 PUSH1 0xA0 SHL SUB PUSH32 0x0 DUP2 AND DUP3 MSTORE PUSH32 0x0 AND PUSH1 0x20 DUP3 ADD MSTORE DUP3 SWAP2 DUP5 SWAP2 DUP8 SWAP2 PUSH32 0x4FEEFB98A7C84001DA15CCF33564AB7260004D4AD400A973DA1FBDFED0B650A8 SWAP2 ADD PUSH1 0x40 MLOAD DUP1 SWAP2 SUB SWAP1 LOG4 POP POP POP PUSH2 0xAE0 PUSH1 0x1 PUSH1 0x5 SSTORE JUMP JUMPDEST POP JUMP JUMPDEST PUSH1 0x0 CALLER PUSH2 0xAF1 DUP6 DUP3 DUP6 PUSH2 0x2317 JUMP JUMPDEST PUSH2 0xAFC DUP6 DUP6 DUP6 PUSH2 0x2390 JUMP JUMPDEST POP PUSH1 0x1 SWAP5 SWAP4 POP POP POP POP JUMP JUMPDEST PUSH1 0x40 MLOAD PUSH4 0x70A08231 PUSH1 0xE0 SHL DUP2 MSTORE ADDRESS PUSH1 0x4 DUP3 ADD MSTORE PUSH32 0x0 PUSH1 0x1 PUSH1 0x1 PUSH1 0xA0 SHL SUB AND SWAP1 PUSH4 0x70A08231 SWAP1 PUSH1 0x24 ADD PUSH1 0x20 PUSH1 0x40 MLOAD DUP1 DUP4 SUB DUP2 DUP7 GAS STATICCALL ISZERO DUP1 ISZERO PUSH2 0xB6B JUMPI RETURNDATASIZE PUSH1 0x0 DUP1 RETURNDATACOPY RETURNDATASIZE PUSH1 0x0 REVERT JUMPDEST POP POP POP POP PUSH1 0x40 MLOAD RETURNDATASIZE PUSH1 0x1F NOT PUSH1 0x1F DUP3 ADD AND DUP3 ADD DUP1 PUSH1 0x40 MSTORE POP DUP2 ADD SWAP1 PUSH2 0xB8F SWAP2 SWAP1 PUSH2 0x2966 JUMP JUMPDEST PUSH1 0x1 PUSH1 0x1 PUSH1 0xA0 SHL SUB PUSH32 0x0 DUP2 AND PUSH1 0x0 SWAP1 DUP2 MSTORE PUSH1 0x7 PUSH1 0x20 MSTORE PUSH1 0x40 SWAP1 DUP2 SWAP1 KECCAK256 SWAP3 SWAP1 SWAP3 SSTORE SWAP1 MLOAD PUSH4 0x70A08231 PUSH1 0xE0 SHL DUP2 MSTORE ADDRESS PUSH1 0x4 DUP3 ADD MSTORE PUSH32 0x0 SWAP1 SWAP2 AND SWAP1 PUSH4 0x70A08231 SWAP1 PUSH1 0x24 ADD PUSH1 0x20 PUSH1 0x40 MLOAD DUP1 DUP4 SUB DUP2 DUP7 GAS STATICCALL ISZERO DUP1 ISZERO PUSH2 0xC2B JUMPI RETURNDATASIZE PUSH1 0x0 DUP1 RETURNDATACOPY RETURNDATASIZE PUSH1 0x0 REVERT JUMPDEST POP POP POP POP PUSH1 0x40 MLOAD RETURNDATASIZE PUSH1 0x1F NOT PUSH1 0x1F DUP3 ADD AND DUP3 ADD DUP1 PUSH1 0x40 MSTORE POP DUP2 ADD SWAP1 PUSH2 0xC4F SWAP2 SWAP1 PUSH2 0x2966 JUMP JUMPDEST PUSH1 0x1 PUSH1 0x1 PUSH1 0xA0 SHL SUB PUSH32 0x0 AND PUSH1 0x0 SWAP1 DUP2 MSTORE PUSH1 0x7 PUSH1 0x20 MSTORE PUSH1 0x40 SWAP1 KECCAK256 SSTORE JUMP JUMPDEST PUSH2 0xC92 PUSH2 0x22B3 JUMP JUMPDEST PUSH1 0x0 DUP2 GT PUSH2 0xCE2 JUMPI PUSH1 0x40 MLOAD PUSH3 0x461BCD PUSH1 0xE5 SHL DUP2 MSTORE PUSH1 0x20 PUSH1 0x4 DUP3 ADD MSTORE PUSH1 0x1D PUSH1 0x24 DUP3 ADD MSTORE PUSH32 0x416D6F756E74206D7573742062652067726561746572207468616E2030000000 PUSH1 0x44 DUP3 ADD MSTORE PUSH1 0x64 ADD PUSH2 0x691 JUMP JUMPDEST PUSH1 0x0 PUSH2 0xCED DUP3 PUSH2 0x1ACF JUMP JUMPDEST SWAP1 POP PUSH1 0x0 DUP1 PUSH2 0xCFB PUSH1 0x2 SLOAD SWAP1 JUMP JUMPDEST GT ISZERO PUSH2 0xD58 JUMPI PUSH32 0x0 PUSH1 0x1 PUSH1 0x1 PUSH1 0xA0 SHL SUB AND PUSH1 0x0 SWAP1 DUP2 MSTORE PUSH1 0x7 PUSH1 0x20 MSTORE PUSH1 0x40 SWAP1 KECCAK256 SLOAD PUSH1 0x2 SLOAD PUSH2 0xD47 SWAP1 DUP6 PUSH2 0x2995 JUMP JUMPDEST PUSH2 0xD51 SWAP2 SWAP1 PUSH2 0x29AC JUMP JUMPDEST SWAP1 POP PUSH2 0xD5B JUMP JUMPDEST POP DUP2 JUMPDEST PUSH2 0xD65 CALLER DUP3 PUSH2 0x23EF JUMP JUMPDEST PUSH1 0x40 MLOAD PUSH4 0x23B872DD PUSH1 0xE0 SHL DUP2 MSTORE CALLER PUSH1 0x4 DUP3 ADD MSTORE ADDRESS PUSH1 0x24 DUP3 ADD MSTORE PUSH1 0x44 DUP2 ADD DUP5 SWAP1 MSTORE PUSH32 0x0 PUSH1 0x1 PUSH1 0x1 PUSH1 0xA0 SHL SUB AND SWAP1 PUSH4 0x23B872DD SWAP1 PUSH1 0x64 ADD PUSH1 0x20 PUSH1 0x40 MLOAD DUP1 DUP4 SUB DUP2 PUSH1 0x0 DUP8 GAS CALL ISZERO DUP1 ISZERO PUSH2 0xDD8 JUMPI RETURNDATASIZE PUSH1 0x0 DUP1 RETURNDATACOPY RETURNDATASIZE PUSH1 0x0 REVERT JUMPDEST POP POP POP POP PUSH1 0x40 MLOAD RETURNDATASIZE PUSH1 0x1F NOT PUSH1 0x1F DUP3 ADD AND DUP3 ADD DUP1 PUSH1 0x40 MSTORE POP DUP2 ADD SWAP1 PUSH2 0xDFC SWAP2 SWAP1 PUSH2 0x29CE JUMP JUMPDEST PUSH2 0xE40 JUMPI PUSH1 0x40 MLOAD PUSH3 0x461BCD PUSH1 0xE5 SHL DUP2 MSTORE PUSH1 0x20 PUSH1 0x4 DUP3 ADD MSTORE PUSH1 0x15 PUSH1 0x24 DUP3 ADD MSTORE PUSH21 0x151C985B9CD9995C88105B1C1A184819985A5B1959 PUSH1 0x5A SHL PUSH1 0x44 DUP3 ADD MSTORE PUSH1 0x64 ADD PUSH2 0x691 JUMP JUMPDEST PUSH1 0x1 PUSH1 0x1 PUSH1 0xA0 SHL SUB PUSH32 0x0 AND PUSH1 0x0 SWAP1 DUP2 MSTORE PUSH1 0x7 PUSH1 0x20 MSTORE PUSH1 0x40 DUP2 KECCAK256 DUP1 SLOAD DUP6 SWAP3 SWAP1 PUSH2 0xE88 SWAP1 DUP5 SWAP1 PUSH2 0x29FE JUMP JUMPDEST SWAP1 SWAP2 SSTORE POP POP PUSH1 0x40 MLOAD PUSH4 0x23B872DD PUSH1 0xE0 SHL DUP2 MSTORE CALLER PUSH1 0x4 DUP3 ADD MSTORE ADDRESS PUSH1 0x24 DUP3 ADD MSTORE PUSH1 0x44 DUP2 ADD DUP4 SWAP1 MSTORE PUSH32 0x0 PUSH1 0x1 PUSH1 0x1 PUSH1 0xA0 SHL SUB AND SWAP1 PUSH4 0x23B872DD SWAP1 PUSH1 0x64 ADD PUSH1 0x20 PUSH1 0x40 MLOAD DUP1 DUP4 SUB DUP2 PUSH1 0x0 DUP8 GAS CALL ISZERO DUP1 ISZERO PUSH2 0xF00 JUMPI RETURNDATASIZE PUSH1 0x0 DUP1 RETURNDATACOPY RETURNDATASIZE PUSH1 0x0 REVERT JUMPDEST POP POP POP POP PUSH1 0x40 MLOAD RETURNDATASIZE PUSH1 0x1F NOT PUSH1 0x1F DUP3 ADD AND DUP3 ADD DUP1 PUSH1 0x40 MSTORE POP DUP2 ADD SWAP1 PUSH2 0xF24 SWAP2 SWAP1 PUSH2 0x29CE JUMP JUMPDEST PUSH2 0xF67 JUMPI PUSH1 0x40 MLOAD PUSH3 0x461BCD PUSH1 0xE5 SHL DUP2 MSTORE PUSH1 0x20 PUSH1 0x4 DUP3 ADD MSTORE PUSH1 0x14 PUSH1 0x24 DUP3 ADD MSTORE PUSH20 0x151C985B9CD9995C8810995D184819985A5B1959 PUSH1 0x62 SHL PUSH1 0x44 DUP3 ADD MSTORE PUSH1 0x64 ADD PUSH2 0x691 JUMP JUMPDEST PUSH1 0x1 PUSH1 0x1 PUSH1 0xA0 SHL SUB PUSH32 0x0 AND PUSH1 0x0 SWAP1 DUP2 MSTORE PUSH1 0x7 PUSH1 0x20 MSTORE PUSH1 0x40 DUP2 KECCAK256 DUP1 SLOAD DUP5 SWAP3 SWAP1 PUSH2 0xFAF SWAP1 DUP5 SWAP1 PUSH2 0x29FE JUMP JUMPDEST SWAP1 SWAP2 SSTORE POP POP PUSH1 0x40 DUP1 MLOAD PUSH1 0x1 PUSH1 0x1 PUSH1 0xA0 SHL SUB PUSH32 0x0 DUP2 AND DUP3 MSTORE PUSH32 0x0 AND PUSH1 0x20 DUP3 ADD MSTORE DUP4 SWAP2 DUP6 SWAP2 DUP5 SWAP2 PUSH32 0x86C3929A230B573AA47CD83759AED11B800D147ABC23E246DFEB5EBBD7A110E3 SWAP2 ADD PUSH1 0x40 MLOAD DUP1 SWAP2 SUB SWAP1 LOG4 POP POP PUSH2 0xAE0 PUSH1 0x1 PUSH1 0x5 SSTORE JUMP JUMPDEST PUSH2 0x1051 PUSH2 0x22B3 JUMP JUMPDEST DUP1 PUSH1 0x1 PUSH1 0x1 PUSH1 0xA0 SHL SUB AND DUP4 PUSH1 0x1 PUSH1 0x1 PUSH1 0xA0 SHL SUB AND SUB PUSH2 0x10A0 JUMPI PUSH1 0x40 MLOAD PUSH3 0x461BCD PUSH1 0xE5 SHL DUP2 MSTORE PUSH1 0x20 PUSH1 0x4 DUP3 ADD MSTORE PUSH1 0xB PUSH1 0x24 DUP3 ADD MSTORE PUSH11 0x53616D6520746F6B656E73 PUSH1 0xA8 SHL PUSH1 0x44 DUP3 ADD MSTORE PUSH1 0x64 ADD PUSH2 0x691 JUMP JUMPDEST PUSH32 0x0 PUSH1 0x1 PUSH1 0x1 PUSH1 0xA0 SHL SUB AND DUP4 PUSH1 0x1 PUSH1 0x1 PUSH1 0xA0 SHL SUB AND EQ DUP1 PUSH2 0x1111 JUMPI POP PUSH32 0x0 PUSH1 0x1 PUSH1 0x1 PUSH1 0xA0 SHL SUB AND DUP4 PUSH1 0x1 PUSH1 0x1 PUSH1 0xA0 SHL SUB AND EQ JUMPDEST PUSH2 0x114D JUMPI PUSH1 0x40 MLOAD PUSH3 0x461BCD PUSH1 0xE5 SHL DUP2 MSTORE PUSH1 0x20 PUSH1 0x4 DUP3 ADD MSTORE PUSH1 0xD PUSH1 0x24 DUP3 ADD MSTORE PUSH13 0x24B73B30B634B2103A37B5B2B7 PUSH1 0x99 SHL PUSH1 0x44 DUP3 ADD MSTORE PUSH1 0x64 ADD PUSH2 0x691 JUMP JUMPDEST PUSH32 0x0 PUSH1 0x1 PUSH1 0x1 PUSH1 0xA0 SHL SUB AND DUP2 PUSH1 0x1 PUSH1 0x1 PUSH1 0xA0 SHL SUB AND EQ DUP1 PUSH2 0x11BE JUMPI POP PUSH32 0x0 PUSH1 0x1 PUSH1 0x1 PUSH1 0xA0 SHL SUB AND DUP2 PUSH1 0x1 PUSH1 0x1 PUSH1 0xA0 SHL SUB AND EQ JUMPDEST PUSH2 0x11FA JUMPI PUSH1 0x40 MLOAD PUSH3 0x461BCD PUSH1 0xE5 SHL DUP2 MSTORE PUSH1 0x20 PUSH1 0x4 DUP3 ADD MSTORE PUSH1 0xD PUSH1 0x24 DUP3 ADD MSTORE PUSH13 0x24B73B30B634B2103A37B5B2B7 PUSH1 0x99 SHL PUSH1 0x44 DUP3 ADD MSTORE PUSH1 0x64 ADD PUSH2 0x691 JUMP JUMPDEST PUSH1 0x0 DUP3 GT PUSH2 0x1238 JUMPI PUSH1 0x40 MLOAD PUSH3 0x461BCD PUSH1 0xE5 SHL DUP2 MSTORE PUSH1 0x20 PUSH1 0x4 DUP3 ADD MSTORE PUSH1 0xB PUSH1 0x24 DUP3 ADD MSTORE PUSH11 0x16995C9BC8185B5BDD5B9D PUSH1 0xAA SHL PUSH1 0x44 DUP3 ADD MSTORE PUSH1 0x64 ADD PUSH2 0x691 JUMP JUMPDEST PUSH1 0x1 PUSH1 0x1 PUSH1 0xA0 SHL SUB DUP1 DUP5 AND PUSH1 0x0 SWAP1 DUP2 MSTORE PUSH1 0x7 PUSH1 0x20 MSTORE PUSH1 0x40 DUP1 DUP3 KECCAK256 SLOAD SWAP3 DUP5 AND DUP3 MSTORE DUP2 KECCAK256 SLOAD PUSH1 0x8 SLOAD SWAP1 SWAP2 SWAP1 PUSH2 0x2710 SWAP1 PUSH2 0x126F SWAP1 DUP8 PUSH2 0x2995 JUMP JUMPDEST PUSH2 0x1279 SWAP2 SWAP1 PUSH2 0x29AC JUMP JUMPDEST SWAP1 POP PUSH1 0x0 PUSH2 0x1287 DUP3 DUP8 PUSH2 0x29EB JUMP JUMPDEST SWAP1 POP PUSH1 0x0 PUSH2 0x2710 PUSH1 0xC SLOAD DUP5 PUSH2 0x129C SWAP2 SWAP1 PUSH2 0x2995 JUMP JUMPDEST PUSH2 0x12A6 SWAP2 SWAP1 PUSH2 0x29AC JUMP JUMPDEST SWAP1 POP PUSH1 0x0 PUSH2 0x2710 PUSH1 0xD SLOAD DUP6 PUSH2 0x12BB SWAP2 SWAP1 PUSH2 0x2995 JUMP JUMPDEST PUSH2 0x12C5 SWAP2 SWAP1 PUSH2 0x29AC JUMP JUMPDEST SWAP1 POP PUSH1 0x0 DUP2 PUSH2 0x12D4 DUP5 DUP8 PUSH2 0x29EB JUMP JUMPDEST PUSH2 0x12DE SWAP2 SWAP1 PUSH2 0x29EB JUMP JUMPDEST PUSH1 0x40 MLOAD PUSH4 0x23B872DD PUSH1 0xE0 SHL DUP2 MSTORE CALLER PUSH1 0x4 DUP3 ADD MSTORE ADDRESS PUSH1 0x24 DUP3 ADD MSTORE PUSH1 0x44 DUP2 ADD DUP12 SWAP1 MSTORE SWAP1 SWAP2 POP PUSH1 0x1 PUSH1 0x1 PUSH1 0xA0 SHL SUB DUP12 AND SWAP1 PUSH4 0x23B872DD SWAP1 PUSH1 0x64 ADD PUSH1 0x20 PUSH1 0x40 MLOAD DUP1 DUP4 SUB DUP2 PUSH1 0x0 DUP8 GAS CALL ISZERO DUP1 ISZERO PUSH2 0x1334 JUMPI RETURNDATASIZE PUSH1 0x0 DUP1 RETURNDATACOPY RETURNDATASIZE PUSH1 0x0 REVERT JUMPDEST POP POP POP POP PUSH1 0x40 MLOAD RETURNDATASIZE PUSH1 0x1F NOT PUSH1 0x1F DUP3 ADD AND DUP3 ADD DUP1 PUSH1 0x40 MSTORE POP DUP2 ADD SWAP1 PUSH2 0x1358 SWAP2 SWAP1 PUSH2 0x29CE JUMP JUMPDEST PUSH2 0x13A4 JUMPI PUSH1 0x40 MLOAD PUSH3 0x461BCD PUSH1 0xE5 SHL DUP2 MSTORE PUSH1 0x20 PUSH1 0x4 DUP3 ADD MSTORE PUSH1 0x17 PUSH1 0x24 DUP3 ADD MSTORE PUSH32 0x5472616E7366657220746F6B656E496E206661696C6564000000000000000000 PUSH1 0x44 DUP3 ADD MSTORE PUSH1 0x64 ADD PUSH2 0x691 JUMP JUMPDEST DUP3 ISZERO PUSH2 0x13EF JUMPI DUP3 PUSH1 0xA PUSH1 0x0 DUP3 DUP3 SLOAD PUSH2 0x13BC SWAP2 SWAP1 PUSH2 0x29FE JUMP JUMPDEST SWAP1 SWAP2 SSTORE POP POP PUSH1 0x1 PUSH1 0x1 PUSH1 0xA0 SHL SUB DUP11 AND PUSH1 0x0 SWAP1 DUP2 MSTORE PUSH1 0x7 PUSH1 0x20 MSTORE PUSH1 0x40 DUP2 KECCAK256 DUP1 SLOAD DUP6 SWAP3 SWAP1 PUSH2 0x13E9 SWAP1 DUP5 SWAP1 PUSH2 0x29FE JUMP JUMPDEST SWAP1 SWAP2 SSTORE POP POP JUMPDEST DUP2 ISZERO PUSH2 0x1502 JUMPI PUSH1 0x40 MLOAD PUSH4 0xA9059CBB PUSH1 0xE0 SHL DUP2 MSTORE CALLER PUSH1 0x4 DUP3 ADD MSTORE PUSH1 0x24 DUP2 ADD DUP4 SWAP1 MSTORE PUSH1 0x1 PUSH1 0x1 PUSH1 0xA0 SHL SUB DUP12 AND SWAP1 PUSH4 0xA9059CBB SWAP1 PUSH1 0x44 ADD PUSH1 0x20 PUSH1 0x40 MLOAD DUP1 DUP4 SUB DUP2 PUSH1 0x0 DUP8 GAS CALL ISZERO DUP1 ISZERO PUSH2 0x1442 JUMPI RETURNDATASIZE PUSH1 0x0 DUP1 RETURNDATACOPY RETURNDATASIZE PUSH1 0x0 REVERT JUMPDEST POP POP POP POP PUSH1 0x40 MLOAD RETURNDATASIZE PUSH1 0x1F NOT PUSH1 0x1F DUP3 ADD AND DUP3 ADD DUP1 PUSH1 0x40 MSTORE POP DUP2 ADD SWAP1 PUSH2 0x1466 SWAP2 SWAP1 PUSH2 0x29CE JUMP JUMPDEST PUSH2 0x14AA JUMPI PUSH1 0x40 MLOAD PUSH3 0x461BCD PUSH1 0xE5 SHL DUP2 MSTORE PUSH1 0x20 PUSH1 0x4 DUP3 ADD MSTORE PUSH1 0x15 PUSH1 0x24 DUP3 ADD MSTORE PUSH21 0x14DDD85C1C195C881C9958985D194819985A5B1959 PUSH1 0x5A SHL PUSH1 0x44 DUP3 ADD MSTORE PUSH1 0x64 ADD PUSH2 0x691 JUMP JUMPDEST CALLER PUSH1 0x1 PUSH1 0x1 PUSH1 0xA0 SHL SUB AND PUSH1 0x0 DUP1 MLOAD PUSH1 0x20 PUSH2 0x2A41 DUP4 CODECOPY DUP2 MLOAD SWAP2 MSTORE DUP4 PUSH1 0x40 MLOAD PUSH2 0x14F9 SWAP2 DUP2 MSTORE PUSH1 0x40 PUSH1 0x20 DUP3 ADD DUP2 SWAP1 MSTORE PUSH1 0xE SWAP1 DUP3 ADD MSTORE PUSH14 0x535741505045525F524542415445 PUSH1 0x90 SHL PUSH1 0x60 DUP3 ADD MSTORE PUSH1 0x80 ADD SWAP1 JUMP JUMPDEST PUSH1 0x40 MLOAD DUP1 SWAP2 SUB SWAP1 LOG2 JUMPDEST DUP1 ISZERO PUSH2 0x1602 JUMPI PUSH1 0x9 SLOAD PUSH1 0x40 MLOAD PUSH4 0xA9059CBB PUSH1 0xE0 SHL DUP2 MSTORE PUSH1 0x1 PUSH1 0x1 PUSH1 0xA0 SHL SUB SWAP2 DUP3 AND PUSH1 0x4 DUP3 ADD MSTORE PUSH1 0x24 DUP2 ADD DUP4 SWAP1 MSTORE SWAP1 DUP12 AND SWAP1 PUSH4 0xA9059CBB SWAP1 PUSH1 0x44 ADD PUSH1 0x20 PUSH1 0x40 MLOAD DUP1 DUP4 SUB DUP2 PUSH1 0x0 DUP8 GAS CALL ISZERO DUP1 ISZERO PUSH2 0x155B JUMPI RETURNDATASIZE PUSH1 0x0 DUP1 RETURNDATACOPY RETURNDATASIZE PUSH1 0x0 REVERT JUMPDEST POP POP POP POP PUSH1 0x40 MLOAD RETURNDATASIZE PUSH1 0x1F NOT PUSH1 0x1F DUP3 ADD AND DUP3 ADD DUP1 PUSH1 0x40 MSTORE POP DUP2 ADD SWAP1 PUSH2 0x157F SWAP2 SWAP1 PUSH2 0x29CE JUMP JUMPDEST PUSH2 0x15CB JUMPI PUSH1 0x40 MLOAD PUSH3 0x461BCD PUSH1 0xE5 SHL DUP2 MSTORE PUSH1 0x20 PUSH1 0x4 DUP3 ADD MSTORE PUSH1 0x1C PUSH1 0x24 DUP3 ADD MSTORE PUSH32 0x50726F746F636F6C20666565207472616E73666572206661696C656400000000 PUSH1 0x44 DUP3 ADD MSTORE PUSH1 0x64 ADD PUSH2 0x691 JUMP JUMPDEST PUSH1 0x40 MLOAD DUP2 SWAP1 PUSH1 0x1 PUSH1 0x1 PUSH1 0xA0 SHL SUB DUP13 AND SWAP1 PUSH32 0x6C5EFEFF5C320943D265DC4E5F1AF95AD523555CE0C1957E367DDA5514572DF SWAP1 PUSH1 0x0 SWAP1 LOG3 JUMPDEST PUSH1 0x0 PUSH2 0x160F DUP12 DUP12 DUP12 PUSH2 0x21D2 JUMP JUMPDEST SWAP1 POP PUSH1 0x0 DUP2 GT PUSH2 0x1661 JUMPI PUSH1 0x40 MLOAD PUSH3 0x461BCD PUSH1 0xE5 SHL DUP2 MSTORE PUSH1 0x20 PUSH1 0x4 DUP3 ADD MSTORE PUSH1 0x1A PUSH1 0x24 DUP3 ADD MSTORE PUSH32 0x496E73756666696369656E74206F757470757420616D6F756E74000000000000 PUSH1 0x44 DUP3 ADD MSTORE PUSH1 0x64 ADD PUSH2 0x691 JUMP JUMPDEST PUSH1 0x40 MLOAD PUSH4 0xA9059CBB PUSH1 0xE0 SHL DUP2 MSTORE CALLER PUSH1 0x4 DUP3 ADD MSTORE PUSH1 0x24 DUP2 ADD DUP3 SWAP1 MSTORE PUSH1 0x1 PUSH1 0x1 PUSH1 0xA0 SHL SUB DUP11 AND SWAP1 PUSH4 0xA9059CBB SWAP1 PUSH1 0x44 ADD PUSH1 0x20 PUSH1 0x40 MLOAD DUP1 DUP4 SUB DUP2 PUSH1 0x0 DUP8 GAS CALL ISZERO DUP1 ISZERO PUSH2 0x16AE JUMPI RETURNDATASIZE PUSH1 0x0 DUP1 RETURNDATACOPY RETURNDATASIZE PUSH1 0x0 REVERT JUMPDEST POP POP POP POP PUSH1 0x40 MLOAD RETURNDATASIZE PUSH1 0x1F NOT PUSH1 0x1F DUP3 ADD AND DUP3 ADD DUP1 PUSH1 0x40 MSTORE POP DUP2 ADD SWAP1 PUSH2 0x16D2 SWAP2 SWAP1 PUSH2 0x29CE JUMP JUMPDEST PUSH2 0x170C JUMPI PUSH1 0x40 MLOAD PUSH3 0x461BCD PUSH1 0xE5 SHL DUP2 MSTORE PUSH1 0x20 PUSH1 0x4 DUP3 ADD MSTORE PUSH1 0xB PUSH1 0x24 DUP3 ADD MSTORE PUSH11 0x14DDD85C0811985A5B1959 PUSH1 0xAA SHL PUSH1 0x44 DUP3 ADD MSTORE PUSH1 0x64 ADD PUSH2 0x691 JUMP JUMPDEST PUSH2 0x1716 DUP6 DUP10 PUSH2 0x29FE JUMP JUMPDEST PUSH1 0x1 PUSH1 0x1 PUSH1 0xA0 SHL SUB DUP1 DUP14 AND PUSH1 0x0 SWAP1 DUP2 MSTORE PUSH1 0x7 PUSH1 0x20 MSTORE PUSH1 0x40 DUP1 DUP3 KECCAK256 SWAP4 SWAP1 SWAP4 SSTORE SWAP1 DUP12 AND DUP2 MSTORE SWAP1 DUP2 KECCAK256 DUP1 SLOAD DUP4 SWAP3 SWAP1 PUSH2 0x174C SWAP1 DUP5 SWAP1 PUSH2 0x29EB JUMP JUMPDEST SWAP1 SWAP2 SSTORE POP POP PUSH1 0x40 DUP1 MLOAD PUSH1 0x1 PUSH1 0x1 PUSH1 0xA0 SHL SUB DUP1 DUP15 AND DUP3 MSTORE DUP12 AND PUSH1 0x20 DUP3 ADD MSTORE DUP3 SWAP2 DUP8 SWAP2 PUSH32 0xDB587D878116DF0BDD4FE154699AA2C5F439DA001CC811DFD05D9F589FC5A8EE SWAP2 ADD PUSH1 0x40 MLOAD DUP1 SWAP2 SUB SWAP1 LOG3 POP POP POP POP POP POP POP POP PUSH2 0x17AA PUSH1 0x1 PUSH1 0x5 SSTORE JUMP JUMPDEST POP POP POP JUMP JUMPDEST PUSH2 0x17B7 PUSH2 0x2425 JUMP JUMPDEST PUSH2 0x17C1 PUSH1 0x0 PUSH2 0x2452 JUMP JUMPDEST JUMP JUMPDEST PUSH2 0x17CB PUSH2 0x2425 JUMP JUMPDEST DUP3 DUP2 EQ PUSH2 0x1813 JUMPI PUSH1 0x40 MLOAD PUSH3 0x461BCD PUSH1 0xE5 SHL DUP2 MSTORE PUSH1 0x20 PUSH1 0x4 DUP3 ADD MSTORE PUSH1 0x16 PUSH1 0x24 DUP3 ADD MSTORE PUSH22 0x82E4E4C2F2E640D8CADCCEE8D040DAD2E6DAC2E8C6D PUSH1 0x53 SHL PUSH1 0x44 DUP3 ADD MSTORE PUSH1 0x64 ADD PUSH2 0x691 JUMP JUMPDEST PUSH1 0x0 DUP1 JUMPDEST DUP3 DUP2 LT ISZERO PUSH2 0x1857 JUMPI DUP4 DUP4 DUP3 DUP2 DUP2 LT PUSH2 0x1831 JUMPI PUSH2 0x1831 PUSH2 0x2A11 JUMP JUMPDEST SWAP1 POP PUSH1 0x20 MUL ADD CALLDATALOAD DUP3 PUSH2 0x1843 SWAP2 SWAP1 PUSH2 0x29FE JUMP JUMPDEST SWAP2 POP DUP1 PUSH2 0x184F DUP2 PUSH2 0x2A27 JUMP JUMPDEST SWAP2 POP POP PUSH2 0x1817 JUMP JUMPDEST POP PUSH1 0xA SLOAD DUP2 GT ISZERO PUSH2 0x18B4 JUMPI PUSH1 0x40 MLOAD PUSH3 0x461BCD PUSH1 0xE5 SHL DUP2 MSTORE PUSH1 0x20 PUSH1 0x4 DUP3 ADD MSTORE PUSH1 0x21 PUSH1 0x24 DUP3 ADD MSTORE PUSH32 0x496E73756666696369656E74204C5020696E63656E746976652062616C616E63 PUSH1 0x44 DUP3 ADD MSTORE PUSH1 0x65 PUSH1 0xF8 SHL PUSH1 0x64 DUP3 ADD MSTORE PUSH1 0x84 ADD PUSH2 0x691 JUMP JUMPDEST DUP1 PUSH1 0xA PUSH1 0x0 DUP3 DUP3 SLOAD PUSH2 0x18C6 SWAP2 SWAP1 PUSH2 0x29EB JUMP JUMPDEST SWAP1 SWAP2 SSTORE POP PUSH1 0x0 SWAP1 POP JUMPDEST DUP5 DUP2 LT ISZERO PUSH2 0x1AC7 JUMPI PUSH1 0x0 DUP5 DUP5 DUP4 DUP2 DUP2 LT PUSH2 0x18EB JUMPI PUSH2 0x18EB PUSH2 0x2A11 JUMP JUMPDEST SWAP1 POP PUSH1 0x20 MUL ADD CALLDATALOAD GT ISZERO PUSH2 0x1AB5 JUMPI PUSH32 0x0 PUSH1 0x1 PUSH1 0x1 PUSH1 0xA0 SHL SUB AND PUSH4 0xA9059CBB DUP8 DUP8 DUP5 DUP2 DUP2 LT PUSH2 0x1939 JUMPI PUSH2 0x1939 PUSH2 0x2A11 JUMP JUMPDEST SWAP1 POP PUSH1 0x20 MUL ADD PUSH1 0x20 DUP2 ADD SWAP1 PUSH2 0x194E SWAP2 SWAP1 PUSH2 0x27C8 JUMP JUMPDEST DUP7 DUP7 DUP6 DUP2 DUP2 LT PUSH2 0x1960 JUMPI PUSH2 0x1960 PUSH2 0x2A11 JUMP JUMPDEST PUSH1 0x40 MLOAD PUSH1 0x1 PUSH1 0x1 PUSH1 0xE0 SHL SUB NOT PUSH1 0xE0 DUP8 SWAP1 SHL AND DUP2 MSTORE PUSH1 0x1 PUSH1 0x1 PUSH1 0xA0 SHL SUB SWAP1 SWAP5 AND PUSH1 0x4 DUP6 ADD MSTORE PUSH1 0x20 MUL SWAP2 SWAP1 SWAP2 ADD CALLDATALOAD PUSH1 0x24 DUP4 ADD MSTORE POP PUSH1 0x44 ADD PUSH1 0x20 PUSH1 0x40 MLOAD DUP1 DUP4 SUB DUP2 PUSH1 0x0 DUP8 GAS CALL ISZERO DUP1 ISZERO PUSH2 0x19B4 JUMPI RETURNDATASIZE PUSH1 0x0 DUP1 RETURNDATACOPY RETURNDATASIZE PUSH1 0x0 REVERT JUMPDEST POP POP POP POP PUSH1 0x40 MLOAD RETURNDATASIZE PUSH1 0x1F NOT PUSH1 0x1F DUP3 ADD AND DUP3 ADD DUP1 PUSH1 0x40 MSTORE POP DUP2 ADD SWAP1 PUSH2 0x19D8 SWAP2 SWAP1 PUSH2 0x29CE JUMP JUMPDEST PUSH2 0x1A24 JUMPI PUSH1 0x40 MLOAD PUSH3 0x461BCD PUSH1 0xE5 SHL DUP2 MSTORE PUSH1 0x20 PUSH1 0x4 DUP3 ADD MSTORE PUSH1 0x1C PUSH1 0x24 DUP3 ADD MSTORE PUSH32 0x4C5020696E63656E74697665207472616E73666572206661696C656400000000 PUSH1 0x44 DUP3 ADD MSTORE PUSH1 0x64 ADD PUSH2 0x691 JUMP JUMPDEST DUP6 DUP6 DUP3 DUP2 DUP2 LT PUSH2 0x1A36 JUMPI PUSH2 0x1A36 PUSH2 0x2A11 JUMP JUMPDEST SWAP1 POP PUSH1 0x20 MUL ADD PUSH1 0x20 DUP2 ADD SWAP1 PUSH2 0x1A4B SWAP2 SWAP1 PUSH2 0x27C8 JUMP JUMPDEST PUSH1 0x1 PUSH1 0x1 PUSH1 0xA0 SHL SUB AND PUSH1 0x0 DUP1 MLOAD PUSH1 0x20 PUSH2 0x2A41 DUP4 CODECOPY DUP2 MLOAD SWAP2 MSTORE DUP6 DUP6 DUP5 DUP2 DUP2 LT PUSH2 0x1A75 JUMPI PUSH2 0x1A75 PUSH2 0x2A11 JUMP JUMPDEST SWAP1 POP PUSH1 0x20 MUL ADD CALLDATALOAD PUSH1 0x40 MLOAD PUSH2 0x1AAC SWAP2 DUP2 MSTORE PUSH1 0x40 PUSH1 0x20 DUP3 ADD DUP2 SWAP1 MSTORE PUSH1 0x9 SWAP1 DUP3 ADD MSTORE PUSH9 0x131417D49155D05491 PUSH1 0xBA SHL PUSH1 0x60 DUP3 ADD MSTORE PUSH1 0x80 ADD SWAP1 JUMP JUMPDEST PUSH1 0x40 MLOAD DUP1 SWAP2 SUB SWAP1 LOG2 JUMPDEST DUP1 PUSH2 0x1ABF DUP2 PUSH2 0x2A27 JUMP JUMPDEST SWAP2 POP POP PUSH2 0x18CF JUMP JUMPDEST POP POP POP POP POP POP JUMP JUMPDEST PUSH1 0x1 PUSH1 0x1 PUSH1 0xA0 SHL SUB PUSH32 0x0 DUP2 AND PUSH1 0x0 SWAP1 DUP2 MSTORE PUSH1 0x7 PUSH1 0x20 MSTORE PUSH1 0x40 DUP1 DUP3 KECCAK256 SLOAD PUSH32 0x0 SWAP1 SWAP4 AND DUP3 MSTORE DUP2 KECCAK256 SLOAD SWAP1 SWAP2 SWAP1 DUP2 ISZERO DUP1 PUSH2 0x1B41 JUMPI POP DUP1 ISZERO JUMPDEST ISZERO PUSH2 0x1B59 JUMPI PUSH2 0x1B51 PUSH1 0x2 DUP6 PUSH2 0x2995 JUMP JUMPDEST SWAP5 SWAP4 POP POP POP POP JUMP JUMPDEST DUP2 PUSH2 0x1B64 DUP3 DUP7 PUSH2 0x2995 JUMP JUMPDEST PUSH2 0x1B51 SWAP2 SWAP1 PUSH2 0x29AC JUMP JUMPDEST PUSH1 0x60 PUSH1 0x4 DUP1 SLOAD PUSH2 0x473 SWAP1 PUSH2 0x292C JUMP JUMPDEST PUSH2 0x1B85 PUSH2 0x2425 JUMP JUMPDEST PUSH1 0x1 PUSH1 0x1 PUSH1 0xA0 SHL SUB DUP2 AND PUSH2 0x1BCA JUMPI PUSH1 0x40 MLOAD PUSH3 0x461BCD PUSH1 0xE5 SHL DUP2 MSTORE PUSH1 0x20 PUSH1 0x4 DUP3 ADD MSTORE PUSH1 0xC PUSH1 0x24 DUP3 ADD MSTORE PUSH12 0x5A65726F2061646472657373 PUSH1 0xA0 SHL PUSH1 0x44 DUP3 ADD MSTORE PUSH1 0x64 ADD PUSH2 0x691 JUMP JUMPDEST PUSH1 0x9 DUP1 SLOAD PUSH1 0x1 PUSH1 0x1 PUSH1 0xA0 SHL SUB NOT AND PUSH1 0x1 PUSH1 0x1 PUSH1 0xA0 SHL SUB SWAP3 SWAP1 SWAP3 AND SWAP2 SWAP1 SWAP2 OR SWAP1 SSTORE JUMP JUMPDEST PUSH1 0x0 CALLER PUSH2 0x629 DUP2 DUP6 DUP6 PUSH2 0x2390 JUMP JUMPDEST PUSH2 0x1C02 PUSH2 0x2425 JUMP JUMPDEST PUSH1 0x64 DUP2 GT ISZERO PUSH2 0x1C42 JUMPI PUSH1 0x40 MLOAD PUSH3 0x461BCD PUSH1 0xE5 SHL DUP2 MSTORE PUSH1 0x20 PUSH1 0x4 DUP3 ADD MSTORE PUSH1 0xC PUSH1 0x24 DUP3 ADD MSTORE PUSH12 0x8CCACA40E8DEDE40D0D2CED PUSH1 0xA3 SHL PUSH1 0x44 DUP3 ADD MSTORE PUSH1 0x64 ADD PUSH2 0x691 JUMP JUMPDEST PUSH1 0x8 SSTORE JUMP JUMPDEST CALLER PUSH1 0x0 SWAP1 DUP2 MSTORE PUSH1 0x20 DUP2 SWAP1 MSTORE PUSH1 0x40 SWAP1 KECCAK256 SLOAD DUP1 PUSH2 0x1C99 JUMPI PUSH1 0x40 MLOAD PUSH3 0x461BCD PUSH1 0xE5 SHL DUP2 MSTORE PUSH1 0x20 PUSH1 0x4 DUP3 ADD MSTORE PUSH1 0x12 PUSH1 0x24 DUP3 ADD MSTORE PUSH18 0x139BC81314081D1BDAD95B9CC81BDDDB9959 PUSH1 0x72 SHL PUSH1 0x44 DUP3 ADD MSTORE PUSH1 0x64 ADD PUSH2 0x691 JUMP JUMPDEST PUSH1 0x0 PUSH2 0x1CA4 PUSH1 0x2 SLOAD SWAP1 JUMP JUMPDEST SWAP1 POP PUSH1 0x0 PUSH8 0xDE0B6B3A7640000 DUP3 DUP5 PUSH1 0xA SLOAD PUSH2 0x1CC0 SWAP2 SWAP1 PUSH2 0x2995 JUMP JUMPDEST PUSH2 0x1CD2 SWAP1 PUSH8 0xDE0B6B3A7640000 PUSH2 0x2995 JUMP JUMPDEST PUSH2 0x1CDC SWAP2 SWAP1 PUSH2 0x29AC JUMP JUMPDEST PUSH2 0x1CE6 SWAP2 SWAP1 PUSH2 0x29AC JUMP JUMPDEST SWAP1 POP PUSH1 0x0 DUP2 GT PUSH2 0x1D31 JUMPI PUSH1 0x40 MLOAD PUSH3 0x461BCD PUSH1 0xE5 SHL DUP2 MSTORE PUSH1 0x20 PUSH1 0x4 DUP3 ADD MSTORE PUSH1 0x16 PUSH1 0x24 DUP3 ADD MSTORE PUSH22 0x4E6F20696E63656E746976657320746F20636C61696D PUSH1 0x50 SHL PUSH1 0x44 DUP3 ADD MSTORE PUSH1 0x64 ADD PUSH2 0x691 JUMP JUMPDEST DUP1 PUSH1 0xA PUSH1 0x0 DUP3 DUP3 SLOAD PUSH2 0x1D43 SWAP2 SWAP1 PUSH2 0x29EB JUMP JUMPDEST SWAP1 SWAP2 SSTORE POP POP DUP4 ISZERO PUSH2 0x1ED1 JUMPI PUSH1 0x40 MLOAD PUSH4 0xA9059CBB PUSH1 0xE0 SHL DUP2 MSTORE CALLER PUSH1 0x4 DUP3 ADD MSTORE PUSH1 0x24 DUP2 ADD DUP3 SWAP1 MSTORE PUSH32 0x0 PUSH1 0x1 PUSH1 0x1 PUSH1 0xA0 SHL SUB AND SWAP1 PUSH4 0xA9059CBB SWAP1 PUSH1 0x44 ADD PUSH1 0x20 PUSH1 0x40 MLOAD DUP1 DUP4 SUB DUP2 PUSH1 0x0 DUP8 GAS CALL ISZERO DUP1 ISZERO PUSH2 0x1DBB JUMPI RETURNDATASIZE PUSH1 0x0 DUP1 RETURNDATACOPY RETURNDATASIZE PUSH1 0x0 REVERT JUMPDEST POP POP POP POP PUSH1 0x40 MLOAD RETURNDATASIZE PUSH1 0x1F NOT PUSH1 0x1F DUP3 ADD AND DUP3 ADD DUP1 PUSH1 0x40 MSTORE POP DUP2 ADD SWAP1 PUSH2 0x1DDF SWAP2 SWAP1 PUSH2 0x29CE JUMP JUMPDEST PUSH2 0x1E27 JUMPI PUSH1 0x40 MLOAD PUSH3 0x461BCD PUSH1 0xE5 SHL DUP2 MSTORE PUSH1 0x20 PUSH1 0x4 DUP3 ADD MSTORE PUSH1 0x19 PUSH1 0x24 DUP3 ADD MSTORE PUSH25 0x125B98D95B9D1A5D99481D1C985B9CD9995C8819985A5B1959 PUSH1 0x3A SHL PUSH1 0x44 DUP3 ADD MSTORE PUSH1 0x64 ADD PUSH2 0x691 JUMP JUMPDEST PUSH1 0x1 PUSH1 0x1 PUSH1 0xA0 SHL SUB PUSH32 0x0 AND PUSH1 0x0 SWAP1 DUP2 MSTORE PUSH1 0x7 PUSH1 0x20 MSTORE PUSH1 0x40 DUP2 KECCAK256 DUP1 SLOAD DUP4 SWAP3 SWAP1 PUSH2 0x1E6F SWAP1 DUP5 SWAP1 PUSH2 0x29EB JUMP JUMPDEST SWAP1 SWAP2 SSTORE POP POP PUSH1 0x40 MLOAD CALLER SWAP1 PUSH1 0x0 DUP1 MLOAD PUSH1 0x20 PUSH2 0x2A41 DUP4 CODECOPY DUP2 MLOAD SWAP2 MSTORE SWAP1 PUSH2 0x1EC4 SWAP1 DUP5 DUP2 MSTORE PUSH1 0x40 PUSH1 0x20 DUP3 ADD DUP2 SWAP1 MSTORE PUSH1 0x16 SWAP1 DUP3 ADD MSTORE PUSH22 0x4C505F5245574152445F434C41494D5F544F4B454E3 PUSH1 0x54 SHL PUSH1 0x60 DUP3 ADD MSTORE PUSH1 0x80 ADD SWAP1 JUMP JUMPDEST PUSH1 0x40 MLOAD DUP1 SWAP2 SUB SWAP1 LOG2 PUSH2 0x20CF JUMP JUMPDEST PUSH1 0x1 PUSH1 0x1 PUSH1 0xA0 SHL SUB PUSH32 0x0 DUP2 AND PUSH1 0x0 SWAP1 DUP2 MSTORE PUSH1 0x7 PUSH1 0x20 MSTORE PUSH1 0x40 DUP1 DUP3 KECCAK256 SLOAD PUSH32 0x0 SWAP1 SWAP4 AND DUP3 MSTORE DUP2 KECCAK256 SLOAD SWAP1 SWAP2 SWAP1 PUSH2 0x1F42 SWAP1 DUP5 PUSH2 0x2995 JUMP JUMPDEST PUSH2 0x1F4C SWAP2 SWAP1 PUSH2 0x29AC JUMP JUMPDEST PUSH1 0x40 MLOAD PUSH4 0xA9059CBB PUSH1 0xE0 SHL DUP2 MSTORE CALLER PUSH1 0x4 DUP3 ADD MSTORE PUSH1 0x24 DUP2 ADD DUP3 SWAP1 MSTORE SWAP1 SWAP2 POP PUSH32 0x0 PUSH1 0x1 PUSH1 0x1 PUSH1 0xA0 SHL SUB AND SWAP1 PUSH4 0xA9059CBB SWAP1 PUSH1 0x44 ADD PUSH1 0x20 PUSH1 0x40 MLOAD DUP1 DUP4 SUB DUP2 PUSH1 0x0 DUP8 GAS CALL ISZERO DUP1 ISZERO PUSH2 0x1FBC JUMPI RETURNDATASIZE PUSH1 0x0 DUP1 RETURNDATACOPY RETURNDATASIZE PUSH1 0x0 REVERT JUMPDEST POP POP POP POP PUSH1 0x40 MLOAD RETURNDATASIZE PUSH1 0x1F NOT PUSH1 0x1F DUP3 ADD AND DUP3 ADD DUP1 PUSH1 0x40 MSTORE POP DUP2 ADD SWAP1 PUSH2 0x1FE0 SWAP2 SWAP1 PUSH2 0x29CE JUMP JUMPDEST PUSH2 0x2028 JUMPI PUSH1 0x40 MLOAD PUSH3 0x461BCD PUSH1 0xE5 SHL DUP2 MSTORE PUSH1 0x20 PUSH1 0x4 DUP3 ADD MSTORE PUSH1 0x19 PUSH1 0x24 DUP3 ADD MSTORE PUSH25 0x125B98D95B9D1A5D99481D1C985B9CD9995C8819985A5B1959 PUSH1 0x3A SHL PUSH1 0x44 DUP3 ADD MSTORE PUSH1 0x64 ADD PUSH2 0x691 JUMP JUMPDEST PUSH1 0x1 PUSH1 0x1 PUSH1 0xA0 SHL SUB PUSH32 0x0 AND PUSH1 0x0 SWAP1 DUP2 MSTORE PUSH1 0x7 PUSH1 0x20 MSTORE PUSH1 0x40 DUP2 KECCAK256 DUP1 SLOAD DUP4 SWAP3 SWAP1 PUSH2 0x2070 SWAP1 DUP5 SWAP1 PUSH2 0x29EB JUMP JUMPDEST SWAP1 SWAP2 SSTORE POP POP PUSH1 0x40 MLOAD CALLER SWAP1 PUSH1 0x0 DUP1 MLOAD PUSH1 0x20 PUSH2 0x2A41 DUP4 CODECOPY DUP2 MLOAD SWAP2 MSTORE SWAP1 PUSH2 0x20C5 SWAP1 DUP5 DUP2 MSTORE PUSH1 0x40 PUSH1 0x20 DUP3 ADD DUP2 SWAP1 MSTORE PUSH1 0x16 SWAP1 DUP3 ADD MSTORE PUSH22 0x4C505F5245574152445F434C41494D5F544F4B454E31 PUSH1 0x50 SHL PUSH1 0x60 DUP3 ADD MSTORE PUSH1 0x80 ADD SWAP1 JUMP JUMPDEST PUSH1 0x40 MLOAD DUP1 SWAP2 SUB SWAP1 LOG2 POP JUMPDEST POP POP POP POP JUMP JUMPDEST PUSH2 0x20DD PUSH2 0x2425 JUMP JUMPDEST PUSH2 0x2710 DUP2 PUSH2 0x20EB DUP5 DUP7 PUSH2 0x29FE JUMP JUMPDEST PUSH2 0x20F5 SWAP2 SWAP1 PUSH2 0x29FE JUMP JUMPDEST EQ PUSH2 0x2142 JUMPI PUSH1 0x40 MLOAD PUSH3 0x461BCD PUSH1 0xE5 SHL DUP2 MSTORE PUSH1 0x20 PUSH1 0x4 DUP3 ADD MSTORE PUSH1 0x17 PUSH1 0x24 DUP3 ADD MSTORE PUSH32 0x536861726573206D7573742073756D20746F2031303025000000000000000000 PUSH1 0x44 DUP3 ADD MSTORE PUSH1 0x64 ADD PUSH2 0x691 JUMP JUMPDEST PUSH1 0xC DUP4 SWAP1 SSTORE PUSH1 0xD DUP3 SWAP1 SSTORE PUSH1 0xE DUP2 SWAP1 SSTORE PUSH1 0x40 DUP1 MLOAD DUP5 DUP2 MSTORE PUSH1 0x20 DUP2 ADD DUP5 SWAP1 MSTORE SWAP1 DUP2 ADD DUP3 SWAP1 MSTORE PUSH32 0x4677ABE8DBFF9A9DE3CC464F74E0C16415FC3E839597772EB5FE5ECE02A6A90A SWAP1 PUSH1 0x60 ADD PUSH1 0x40 MLOAD DUP1 SWAP2 SUB SWAP1 LOG1 POP POP POP JUMP JUMPDEST PUSH2 0x219F PUSH2 0x2425 JUMP JUMPDEST PUSH1 0x1 PUSH1 0x1 PUSH1 0xA0 SHL SUB DUP2 AND PUSH2 0x21C9 JUMPI PUSH1 0x40 MLOAD PUSH4 0x1E4FBDF7 PUSH1 0xE0 SHL DUP2 MSTORE PUSH1 0x0 PUSH1 0x4 DUP3 ADD MSTORE PUSH1 0x24 ADD PUSH2 0x691 JUMP JUMPDEST PUSH2 0xAE0 DUP2 PUSH2 0x2452 JUMP JUMPDEST PUSH1 0x1 PUSH1 0x1 PUSH1 0xA0 SHL SUB DUP1 DUP3 AND PUSH1 0x0 SWAP1 DUP2 MSTORE PUSH1 0x7 PUSH1 0x20 MSTORE PUSH1 0x40 DUP1 DUP3 KECCAK256 SLOAD SWAP3 DUP7 AND DUP3 MSTORE DUP2 KECCAK256 SLOAD SWAP1 SWAP2 SWAP1 DUP1 ISZERO DUP1 ISZERO SWAP1 PUSH2 0x2207 JUMPI POP PUSH1 0x0 DUP3 GT JUMPDEST PUSH2 0x224C JUMPI PUSH1 0x40 MLOAD PUSH3 0x461BCD PUSH1 0xE5 SHL DUP2 MSTORE PUSH1 0x20 PUSH1 0x4 DUP3 ADD MSTORE PUSH1 0x16 PUSH1 0x24 DUP3 ADD MSTORE PUSH22 0x496E73756666696369656E74206C6971756964697479 PUSH1 0x50 SHL PUSH1 0x44 DUP3 ADD MSTORE PUSH1 0x64 ADD PUSH2 0x691 JUMP JUMPDEST PUSH1 0x0 PUSH2 0x2710 PUSH1 0x8 SLOAD DUP8 PUSH2 0x225F SWAP2 SWAP1 PUSH2 0x2995 JUMP JUMPDEST PUSH2 0x2269 SWAP2 SWAP1 PUSH2 0x29AC JUMP JUMPDEST SWAP1 POP PUSH1 0x0 PUSH2 0x2277 DUP3 DUP9 PUSH2 0x29EB JUMP JUMPDEST SWAP1 POP PUSH1 0x0 PUSH2 0x2285 DUP3 DUP6 PUSH2 0x29FE JUMP JUMPDEST PUSH2 0x228F DUP4 DUP8 PUSH2 0x2995 JUMP JUMPDEST PUSH2 0x2299 SWAP2 SWAP1 PUSH2 0x29AC JUMP JUMPDEST SWAP10 SWAP9 POP POP POP POP POP POP POP POP POP JUMP JUMPDEST PUSH2 0x17AA DUP4 DUP4 DUP4 PUSH1 0x1 PUSH2 0x24A4 JUMP JUMPDEST PUSH1 0x2 PUSH1 0x5 SLOAD SUB PUSH2 0x22D6 JUMPI PUSH1 0x40 MLOAD PUSH4 0x3EE5AEB5 PUSH1 0xE0 SHL DUP2 MSTORE PUSH1 0x4 ADD PUSH1 0x40 MLOAD DUP1 SWAP2 SUB SWAP1 REVERT JUMPDEST PUSH1 0x2 PUSH1 0x5 SSTORE JUMP JUMPDEST PUSH1 0x1 PUSH1 0x1 PUSH1 0xA0 SHL SUB DUP3 AND PUSH2 0x2307 JUMPI PUSH1 0x40 MLOAD PUSH4 0x4B637E8F PUSH1 0xE1 SHL DUP2 MSTORE PUSH1 0x0 PUSH1 0x4 DUP3 ADD MSTORE PUSH1 0x24 ADD PUSH2 0x691 JUMP JUMPDEST PUSH2 0x2313 DUP3 PUSH1 0x0 DUP4 PUSH2 0x2579 JUMP JUMPDEST POP POP JUMP JUMPDEST PUSH1 0x1 PUSH1 0x1 PUSH1 0xA0 SHL SUB DUP4 DUP2 AND PUSH1 0x0 SWAP1 DUP2 MSTORE PUSH1 0x1 PUSH1 0x20 SWAP1 DUP2 MSTORE PUSH1 0x40 DUP1 DUP4 KECCAK256 SWAP4 DUP7 AND DUP4 MSTORE SWAP3 SWAP1 MSTORE KECCAK256 SLOAD PUSH1 0x0 NOT DUP2 LT ISZERO PUSH2 0x20CF JUMPI DUP2 DUP2 LT ISZERO PUSH2 0x2381 JUMPI PUSH1 0x40 MLOAD PUSH4 0x7DC7A0D9 PUSH1 0xE1 SHL DUP2 MSTORE PUSH1 0x1 PUSH1 0x1 PUSH1 0xA0 SHL SUB DUP5 AND PUSH1 0x4 DUP3 ADD MSTORE PUSH1 0x24 DUP2 ADD DUP3 SWAP1 MSTORE PUSH1 0x44 DUP2 ADD DUP4 SWAP1 MSTORE PUSH1 0x64 ADD PUSH2 0x691 JUMP JUMPDEST PUSH2 0x20CF DUP5 DUP5 DUP5 DUP5 SUB PUSH1 0x0 PUSH2 0x24A4 JUMP JUMPDEST PUSH1 0x1 PUSH1 0x1 PUSH1 0xA0 SHL SUB DUP4 AND PUSH2 0x23BA JUMPI PUSH1 0x40 MLOAD PUSH4 0x4B637E8F PUSH1 0xE1 SHL DUP2 MSTORE PUSH1 0x0 PUSH1 0x4 DUP3 ADD MSTORE PUSH1 0x24 ADD PUSH2 0x691 JUMP JUMPDEST PUSH1 0x1 PUSH1 0x1 PUSH1 0xA0 SHL SUB DUP3 AND PUSH2 0x23E4 JUMPI PUSH1 0x40 MLOAD PUSH4 0xEC442F05 PUSH1 0xE0 SHL DUP2 MSTORE PUSH1 0x0 PUSH1 0x4 DUP3 ADD MSTORE PUSH1 0x24 ADD PUSH2 0x691 JUMP JUMPDEST PUSH2 0x17AA DUP4 DUP4 DUP4 PUSH2 0x2579 JUMP JUMPDEST PUSH1 0x1 PUSH1 0x1 PUSH1 0xA0 SHL SUB DUP3 AND PUSH2 0x2419 JUMPI PUSH1 0x40 MLOAD PUSH4 0xEC442F05 PUSH1 0xE0 SHL DUP2 MSTORE PUSH1 0x0 PUSH1 0x4 DUP3 ADD MSTORE PUSH1 0x24 ADD PUSH2 0x691 JUMP JUMPDEST PUSH2 0x2313 PUSH1 0x0 DUP4 DUP4 PUSH2 0x2579 JUMP JUMPDEST PUSH1 0x6 SLOAD PUSH1 0x1 PUSH1 0x1 PUSH1 0xA0 SHL SUB AND CALLER EQ PUSH2 0x17C1 JUMPI PUSH1 0x40 MLOAD PUSH4 0x118CDAA7 PUSH1 0xE0 SHL DUP2 MSTORE CALLER PUSH1 0x4 DUP3 ADD MSTORE PUSH1 0x24 ADD PUSH2 0x691 JUMP JUMPDEST PUSH1 0x6 DUP1 SLOAD PUSH1 0x1 PUSH1 0x1 PUSH1 0xA0 SHL SUB DUP4 DUP2 AND PUSH1 0x1 PUSH1 0x1 PUSH1 0xA0 SHL SUB NOT DUP4 AND DUP2 OR SWAP1 SWAP4 SSTORE PUSH1 0x40 MLOAD SWAP2 AND SWAP2 SWAP1 DUP3 SWAP1 PUSH32 0x8BE0079C531659141344CD1FD0A4F28419497F9722A3DAAFE3B4186F6B6457E0 SWAP1 PUSH1 0x0 SWAP1 LOG3 POP POP JUMP JUMPDEST PUSH1 0x1 PUSH1 0x1 PUSH1 0xA0 SHL SUB DUP5 AND PUSH2 0x24CE JUMPI PUSH1 0x40 MLOAD PUSH4 0xE602DF05 PUSH1 0xE0 SHL DUP2 MSTORE PUSH1 0x0 PUSH1 0x4 DUP3 ADD MSTORE PUSH1 0x24 ADD PUSH2 0x691 JUMP JUMPDEST PUSH1 0x1 PUSH1 0x1 PUSH1 0xA0 SHL SUB DUP4 AND PUSH2 0x24F8 JUMPI PUSH1 0x40 MLOAD PUSH4 0x4A1406B1 PUSH1 0xE1 SHL DUP2 MSTORE PUSH1 0x0 PUSH1 0x4 DUP3 ADD MSTORE PUSH1 0x24 ADD PUSH2 0x691 JUMP JUMPDEST PUSH1 0x1 PUSH1 0x1 PUSH1 0xA0 SHL SUB DUP1 DUP6 AND PUSH1 0x0 SWAP1 DUP2 MSTORE PUSH1 0x1 PUSH1 0x20 SWAP1 DUP2 MSTORE PUSH1 0x40 DUP1 DUP4 KECCAK256 SWAP4 DUP8 AND DUP4 MSTORE SWAP3 SWAP1 MSTORE KECCAK256 DUP3 SWAP1 SSTORE DUP1 ISZERO PUSH2 0x20CF JUMPI DUP3 PUSH1 0x1 PUSH1 0x1 PUSH1 0xA0 SHL SUB AND DUP5 PUSH1 0x1 PUSH1 0x1 PUSH1 0xA0 SHL SUB AND PUSH32 0x8C5BE1E5EBEC7D5BD14F71427D1E84F3DD0314C0F7B2291E5B200AC8C7C3B925 DUP5 PUSH1 0x40 MLOAD PUSH2 0x256B SWAP2 DUP2 MSTORE PUSH1 0x20 ADD SWAP1 JUMP JUMPDEST PUSH1 0x40 MLOAD DUP1 SWAP2 SUB SWAP1 LOG3 POP POP POP POP JUMP JUMPDEST PUSH1 0x1 PUSH1 0x1 PUSH1 0xA0 SHL SUB DUP4 AND PUSH2 0x25A4 JUMPI DUP1 PUSH1 0x2 PUSH1 0x0 DUP3 DUP3 SLOAD PUSH2 0x2599 SWAP2 SWAP1 PUSH2 0x29FE JUMP JUMPDEST SWAP1 SWAP2 SSTORE POP PUSH2 0x2616 SWAP1 POP JUMP JUMPDEST PUSH1 0x1 PUSH1 0x1 PUSH1 0xA0 SHL SUB DUP4 AND PUSH1 0x0 SWAP1 DUP2 MSTORE PUSH1 0x20 DUP2 SWAP1 MSTORE PUSH1 0x40 SWAP1 KECCAK256 SLOAD DUP2 DUP2 LT ISZERO PUSH2 0x25F7 JUMPI PUSH1 0x40 MLOAD PUSH4 0x391434E3 PUSH1 0xE2 SHL DUP2 MSTORE PUSH1 0x1 PUSH1 0x1 PUSH1 0xA0 SHL SUB DUP6 AND PUSH1 0x4 DUP3 ADD MSTORE PUSH1 0x24 DUP2 ADD DUP3 SWAP1 MSTORE PUSH1 0x44 DUP2 ADD DUP4 SWAP1 MSTORE PUSH1 0x64 ADD PUSH2 0x691 JUMP JUMPDEST PUSH1 0x1 PUSH1 0x1 PUSH1 0xA0 SHL SUB DUP5 AND PUSH1 0x0 SWAP1 DUP2 MSTORE PUSH1 0x20 DUP2 SWAP1 MSTORE PUSH1 0x40 SWAP1 KECCAK256 SWAP1 DUP3 SWAP1 SUB SWAP1 SSTORE JUMPDEST PUSH1 0x1 PUSH1 0x1 PUSH1 0xA0 SHL SUB DUP3 AND PUSH2 0x2632 JUMPI PUSH1 0x2 DUP1 SLOAD DUP3 SWAP1 SUB SWAP1 SSTORE PUSH2 0x2651 JUMP JUMPDEST PUSH1 0x1 PUSH1 0x1 PUSH1 0xA0 SHL SUB DUP3 AND PUSH1 0x0 SWAP1 DUP2 MSTORE PUSH1 0x20 DUP2 SWAP1 MSTORE PUSH1 0x40 SWAP1 KECCAK256 DUP1 SLOAD DUP3 ADD SWAP1 SSTORE JUMPDEST DUP2 PUSH1 0x1 PUSH1 0x1 PUSH1 0xA0 SHL SUB AND DUP4 PUSH1 0x1 PUSH1 0x1 PUSH1 0xA0 SHL SUB AND PUSH32 0xDDF252AD1BE2C89B69C2B068FC378DAA952BA7F163C4A11628F55A4DF523B3EF DUP4 PUSH1 0x40 MLOAD PUSH2 0x2696 SWAP2 DUP2 MSTORE PUSH1 0x20 ADD SWAP1 JUMP JUMPDEST PUSH1 0x40 MLOAD DUP1 SWAP2 SUB SWAP1 LOG3 POP POP POP JUMP JUMPDEST PUSH1 0x0 PUSH1 0x20 DUP1 DUP4 MSTORE DUP4 MLOAD DUP1 DUP3 DUP6 ADD MSTORE PUSH1 0x0 JUMPDEST DUP2 DUP2 LT ISZERO PUSH2 0x26D0 JUMPI DUP6 DUP2 ADD DUP4 ADD MLOAD DUP6 DUP3 ADD PUSH1 0x40 ADD MSTORE DUP3 ADD PUSH2 0x26B4 JUMP JUMPDEST POP PUSH1 0x0 PUSH1 0x40 DUP3 DUP7 ADD ADD MSTORE PUSH1 0x40 PUSH1 0x1F NOT PUSH1 0x1F DUP4 ADD AND DUP6 ADD ADD SWAP3 POP POP POP SWAP3 SWAP2 POP POP JUMP JUMPDEST DUP1 CALLDATALOAD PUSH1 0x1 PUSH1 0x1 PUSH1 0xA0 SHL SUB DUP2 AND DUP2 EQ PUSH2 0x2708 JUMPI PUSH1 0x0 DUP1 REVERT JUMPDEST SWAP2 SWAP1 POP JUMP JUMPDEST PUSH1 0x0 DUP1 PUSH1 0x40 DUP4 DUP6 SUB SLT ISZERO PUSH2 0x2720 JUMPI PUSH1 0x0 DUP1 REVERT JUMPDEST PUSH2 0x2729 DUP4 PUSH2 0x26F1 JUMP JUMPDEST SWAP5 PUSH1 0x20 SWAP4 SWAP1 SWAP4 ADD CALLDATALOAD SWAP4 POP POP POP JUMP JUMPDEST PUSH1 0x0 PUSH1 0x20 DUP3 DUP5 SUB SLT ISZERO PUSH2 0x2749 JUMPI PUSH1 0x0 DUP1 REVERT JUMPDEST POP CALLDATALOAD SWAP2 SWAP1 POP JUMP JUMPDEST PUSH1 0x0 DUP1 PUSH1 0x0 PUSH1 0x60 DUP5 DUP7 SUB SLT ISZERO PUSH2 0x2765 JUMPI PUSH1 0x0 DUP1 REVERT JUMPDEST PUSH2 0x276E DUP5 PUSH2 0x26F1 JUMP JUMPDEST SWAP3 POP PUSH2 0x277C PUSH1 0x20 DUP6 ADD PUSH2 0x26F1 JUMP JUMPDEST SWAP2 POP PUSH1 0x40 DUP5 ADD CALLDATALOAD SWAP1 POP SWAP3 POP SWAP3 POP SWAP3 JUMP JUMPDEST PUSH1 0x0 DUP1 PUSH1 0x0 PUSH1 0x60 DUP5 DUP7 SUB SLT ISZERO PUSH2 0x27A1 JUMPI PUSH1 0x0 DUP1 REVERT JUMPDEST PUSH2 0x27AA DUP5 PUSH2 0x26F1 JUMP JUMPDEST SWAP3 POP PUSH1 0x20 DUP5 ADD CALLDATALOAD SWAP2 POP PUSH2 0x27BF PUSH1 0x40 DUP6 ADD PUSH2 0x26F1 JUMP JUMPDEST SWAP1 POP SWAP3 POP SWAP3 POP SWAP3 JUMP JUMPDEST PUSH1 0x0 PUSH1 0x20 DUP3 DUP5 SUB SLT ISZERO PUSH2 0x27DA JUMPI PUSH1 0x0 DUP1 REVERT JUMPDEST PUSH2 0x27E3 DUP3 PUSH2 0x26F1 JUMP JUMPDEST SWAP4 SWAP3 POP POP POP JUMP JUMPDEST PUSH1 0x0 DUP1 DUP4 PUSH1 0x1F DUP5 ADD SLT PUSH2 0x27FC JUMPI PUSH1 0x0 DUP1 REVERT JUMPDEST POP DUP2 CALLDATALOAD PUSH8 0xFFFFFFFFFFFFFFFF DUP2 GT ISZERO PUSH2 0x2814 JUMPI PUSH1 0x0 DUP1 REVERT JUMPDEST PUSH1 0x20 DUP4 ADD SWAP2 POP DUP4 PUSH1 0x20 DUP3 PUSH1 0x5 SHL DUP6 ADD ADD GT ISZERO PUSH2 0x282F JUMPI PUSH1 0x0 DUP1 REVERT JUMPDEST SWAP3 POP SWAP3 SWAP1 POP JUMP JUMPDEST PUSH1 0x0 DUP1 PUSH1 0x0 DUP1 PUSH1 0x40 DUP6 DUP8 SUB SLT ISZERO PUSH2 0x284C JUMPI PUSH1 0x0 DUP1 REVERT JUMPDEST DUP5 CALLDATALOAD PUSH8 0xFFFFFFFFFFFFFFFF DUP1 DUP3 GT ISZERO PUSH2 0x2864 JUMPI PUSH1 0x0 DUP1 REVERT JUMPDEST PUSH2 0x2870 DUP9 DUP4 DUP10 ADD PUSH2 0x27EA JUMP JUMPDEST SWAP1 SWAP7 POP SWAP5 POP PUSH1 0x20 DUP8 ADD CALLDATALOAD SWAP2 POP DUP1 DUP3 GT ISZERO PUSH2 0x2889 JUMPI PUSH1 0x0 DUP1 REVERT JUMPDEST POP PUSH2 0x2896 DUP8 DUP3 DUP9 ADD PUSH2 0x27EA JUMP JUMPDEST SWAP6 SWAP9 SWAP5 SWAP8 POP SWAP6 POP POP POP POP JUMP JUMPDEST DUP1 ISZERO ISZERO DUP2 EQ PUSH2 0xAE0 JUMPI PUSH1 0x0 DUP1 REVERT JUMPDEST PUSH1 0x0 PUSH1 0x20 DUP3 DUP5 SUB SLT ISZERO PUSH2 0x28C2 JUMPI PUSH1 0x0 DUP1 REVERT JUMPDEST DUP2 CALLDATALOAD PUSH2 0x27E3 DUP2 PUSH2 0x28A2 JUMP JUMPDEST PUSH1 0x0 DUP1 PUSH1 0x40 DUP4 DUP6 SUB SLT ISZERO PUSH2 0x28E0 JUMPI PUSH1 0x0 DUP1 REVERT JUMPDEST PUSH2 0x28E9 DUP4 PUSH2 0x26F1 JUMP JUMPDEST SWAP2 POP PUSH2 0x28F7 PUSH1 0x20 DUP5 ADD PUSH2 0x26F1 JUMP JUMPDEST SWAP1 POP SWAP3 POP SWAP3 SWAP1 POP JUMP JUMPDEST PUSH1 0x0 DUP1 PUSH1 0x0 PUSH1 0x60 DUP5 DUP7 SUB SLT ISZERO PUSH2 0x2915 JUMPI PUSH1 0x0 DUP1 REVERT JUMPDEST POP POP DUP2 CALLDATALOAD SWAP4 PUSH1 0x20 DUP4 ADD CALLDATALOAD SWAP4 POP PUSH1 0x40 SWAP1 SWAP3 ADD CALLDATALOAD SWAP2 SWAP1 POP JUMP JUMPDEST PUSH1 0x1 DUP2 DUP2 SHR SWAP1 DUP3 AND DUP1 PUSH2 0x2940 JUMPI PUSH1 0x7F DUP3 AND SWAP2 POP JUMPDEST PUSH1 0x20 DUP3 LT DUP2 SUB PUSH2 0x2960 JUMPI PUSH4 0x4E487B71 PUSH1 0xE0 SHL PUSH1 0x0 MSTORE PUSH1 0x22 PUSH1 0x4 MSTORE PUSH1 0x24 PUSH1 0x0 REVERT JUMPDEST POP SWAP2 SWAP1 POP JUMP JUMPDEST PUSH1 0x0 PUSH1 0x20 DUP3 DUP5 SUB SLT ISZERO PUSH2 0x2978 JUMPI PUSH1 0x0 DUP1 REVERT JUMPDEST POP MLOAD SWAP2 SWAP1 POP JUMP JUMPDEST PUSH4 0x4E487B71 PUSH1 0xE0 SHL PUSH1 0x0 MSTORE PUSH1 0x11 PUSH1 0x4 MSTORE PUSH1 0x24 PUSH1 0x0 REVERT JUMPDEST DUP1 DUP3 MUL DUP2 ISZERO DUP3 DUP3 DIV DUP5 EQ OR PUSH2 0x62F JUMPI PUSH2 0x62F PUSH2 0x297F JUMP JUMPDEST PUSH1 0x0 DUP3 PUSH2 0x29C9 JUMPI PUSH4 0x4E487B71 PUSH1 0xE0 SHL PUSH1 0x0 MSTORE PUSH1 0x12 PUSH1 0x4 MSTORE PUSH1 0x24 PUSH1 0x0 REVERT JUMPDEST POP DIV SWAP1 JUMP JUMPDEST PUSH1 0x0 PUSH1 0x20 DUP3 DUP5 SUB SLT ISZERO PUSH2 0x29E0 JUMPI PUSH1 0x0 DUP1 REVERT JUMPDEST DUP2 MLOAD PUSH2 0x27E3 DUP2 PUSH2 0x28A2 JUMP JUMPDEST DUP2 DUP2 SUB DUP2 DUP2 GT ISZERO PUSH2 0x62F JUMPI PUSH2 0x62F PUSH2 0x297F JUMP JUMPDEST DUP1 DUP3 ADD DUP1 DUP3 GT ISZERO PUSH2 0x62F JUMPI PUSH2 0x62F PUSH2 0x297F JUMP JUMPDEST PUSH4 0x4E487B71 PUSH1 0xE0 SHL PUSH1 0x0 MSTORE PUSH1 0x32 PUSH1 0x4 MSTORE PUSH1 0x24 PUSH1 0x0 REVERT JUMPDEST PUSH1 0x0 PUSH1 0x1 DUP3 ADD PUSH2 0x2A39 JUMPI PUSH2 0x2A39 PUSH2 0x297F JUMP JUMPDEST POP PUSH1 0x1 ADD SWAP1 JUMP INVALID CREATE 0xB4 COINBASE 0xE8 0xC4 DUP13 DELEGATECALL PUSH26 0xA1C110AC8F67967E2C14C98EC18D7905B013CC9CE4B4106BA264 PUSH10 0x70667358221220F97EE6 0xB9 DUP1 DUP16 SWAP14 MUL SWAP5 PUSH10 0x3C734D7A97AA4D466D43 RETURNDATACOPY SWAP16 0x4F MSTORE 0xCD ADDRESS PUSH4 0xE69B5873 LT PUSH5 0x736F6C6343 STOP ADDMOD EQ STOP CALLER "},"methodIdentifiers":{"FEE_DENOMINATOR()":"d73792a9","addLiquidity(uint256)":"51c6590a","allowance(address,address)":"dd62ed3e","approve(address,uint256)":"095ea7b3","balanceOf(address)":"70a08231","claimLpIncentives(bool)":"c5492b4e","decimals()":"313ce567","distributeLpIncentives(address[],uint256[])":"89cdfb3a","feeCollector()":"c415b95c","getAmountOut(address,uint256,address)":"ff9c8ac6","getRequiredAmount1(uint256)":"929f8c75","getReserves()":"0902f1ac","liquidityProviderIncentives()":"9d4e74c7","lpIncentiveShare()":"8163e425","name()":"06fdde03","owner()":"8da5cb5b","protocolFeeShare()":"960b26a2","renounceOwnership()":"715018a6","setFeeCollector(address)":"a42dce80","setFeeShares(uint256,uint256,uint256)":"f28f7972","setTradingFee(uint256)":"b0d54bcf","swap(address,uint256,address)":"6d069a67","swapperRebateShare()":"e4383cdb","swapperRebates()":"2c237d22","symbol()":"95d89b41","syncBalances()":"336b78a0","totalSupply()":"18160ddd","tradingFee()":"56f43352","transfer(address,uint256)":"a9059cbb","transferFrom(address,address,uint256)":"23b872dd","transferOwnership(address)":"f2fde38b","withdrawLiquidity(uint256)":"0a861f2a"}}}}}