{
  "_format": "hh-sol-artifact-1",
  "contractName": "Pool",
  "sourceName": "contracts/Pool.sol",
  "abi": [
    {
      "inputs": [
        {
          "internalType": "address",
          "name": "token0",
          "type": "address"
        },
        {
          "internalType": "address",
          "name": "token1",
          "type": "address"
        }
      ],
      "stateMutability": "nonpayable",
      "type": "constructor"
    },
    {
      "inputs": [
        {
          "internalType": "address",
          "name": "spender",
          "type": "address"
        },
        {
          "internalType": "uint256",
          "name": "allowance",
          "type": "uint256"
        },
        {
          "internalType": "uint256",
          "name": "needed",
          "type": "uint256"
        }
      ],
      "name": "ERC20InsufficientAllowance",
      "type": "error"
    },
    {
      "inputs": [
        {
          "internalType": "address",
          "name": "sender",
          "type": "address"
        },
        {
          "internalType": "uint256",
          "name": "balance",
          "type": "uint256"
        },
        {
          "internalType": "uint256",
          "name": "needed",
          "type": "uint256"
        }
      ],
      "name": "ERC20InsufficientBalance",
      "type": "error"
    },
    {
      "inputs": [
        {
          "internalType": "address",
          "name": "approver",
          "type": "address"
        }
      ],
      "name": "ERC20InvalidApprover",
      "type": "error"
    },
    {
      "inputs": [
        {
          "internalType": "address",
          "name": "receiver",
          "type": "address"
        }
      ],
      "name": "ERC20InvalidReceiver",
      "type": "error"
    },
    {
      "inputs": [
        {
          "internalType": "address",
          "name": "sender",
          "type": "address"
        }
      ],
      "name": "ERC20InvalidSender",
      "type": "error"
    },
    {
      "inputs": [
        {
          "internalType": "address",
          "name": "spender",
          "type": "address"
        }
      ],
      "name": "ERC20InvalidSpender",
      "type": "error"
    },
    {
      "inputs": [],
      "name": "ReentrancyGuardReentrantCall",
      "type": "error"
    },
    {
      "anonymous": false,
      "inputs": [
        {
          "indexed": true,
          "internalType": "uint256",
          "name": "lpToken",
          "type": "uint256"
        },
        {
          "indexed": false,
          "internalType": "address",
          "name": "token0",
          "type": "address"
        },
        {
          "indexed": true,
          "internalType": "uint256",
          "name": "amount0",
          "type": "uint256"
        },
        {
          "indexed": false,
          "internalType": "address",
          "name": "token1",
          "type": "address"
        },
        {
          "indexed": true,
          "internalType": "uint256",
          "name": "amount1",
          "type": "uint256"
        }
      ],
      "name": "AddedLiquidity",
      "type": "event"
    },
    {
      "anonymous": false,
      "inputs": [
        {
          "indexed": true,
          "internalType": "address",
          "name": "owner",
          "type": "address"
        },
        {
          "indexed": true,
          "internalType": "address",
          "name": "spender",
          "type": "address"
        },
        {
          "indexed": false,
          "internalType": "uint256",
          "name": "value",
          "type": "uint256"
        }
      ],
      "name": "Approval",
      "type": "event"
    },
    {
      "anonymous": false,
      "inputs": [
        {
          "indexed": true,
          "internalType": "address",
          "name": "previousOwner",
          "type": "address"
        },
        {
          "indexed": true,
          "internalType": "address",
          "name": "newOwner",
          "type": "address"
        }
      ],
      "name": "OwnershipTransferred",
      "type": "event"
    },
    {
      "anonymous": false,
      "inputs": [
        {
          "indexed": false,
          "internalType": "address",
          "name": "account",
          "type": "address"
        }
      ],
      "name": "Paused",
      "type": "event"
    },
    {
      "anonymous": false,
      "inputs": [
        {
          "indexed": false,
          "internalType": "address",
          "name": "tokenIn",
          "type": "address"
        },
        {
          "indexed": true,
          "internalType": "uint256",
          "name": "amountIn",
          "type": "uint256"
        },
        {
          "indexed": false,
          "internalType": "address",
          "name": "tokenOut",
          "type": "address"
        },
        {
          "indexed": true,
          "internalType": "uint256",
          "name": "amountOut",
          "type": "uint256"
        }
      ],
      "name": "Swapped",
      "type": "event"
    },
    {
      "anonymous": false,
      "inputs": [
        {
          "indexed": true,
          "internalType": "address",
          "name": "from",
          "type": "address"
        },
        {
          "indexed": true,
          "internalType": "address",
          "name": "to",
          "type": "address"
        },
        {
          "indexed": false,
          "internalType": "uint256",
          "name": "value",
          "type": "uint256"
        }
      ],
      "name": "Transfer",
      "type": "event"
    },
    {
      "anonymous": false,
      "inputs": [
        {
          "indexed": false,
          "internalType": "address",
          "name": "account",
          "type": "address"
        }
      ],
      "name": "Unpaused",
      "type": "event"
    },
    {
      "anonymous": false,
      "inputs": [
        {
          "indexed": true,
          "internalType": "uint256",
          "name": "lpToken",
          "type": "uint256"
        },
        {
          "indexed": false,
          "internalType": "address",
          "name": "token0",
          "type": "address"
        },
        {
          "indexed": true,
          "internalType": "uint256",
          "name": "amount0",
          "type": "uint256"
        },
        {
          "indexed": false,
          "internalType": "address",
          "name": "token1",
          "type": "address"
        },
        {
          "indexed": true,
          "internalType": "uint256",
          "name": "amount1",
          "type": "uint256"
        }
      ],
      "name": "WithdrawLiquidity",
      "type": "event"
    },
    {
      "inputs": [
        {
          "internalType": "uint256",
          "name": "amount0",
          "type": "uint256"
        },
        {
          "internalType": "uint256",
          "name": "minAmount1",
          "type": "uint256"
        },
        {
          "internalType": "uint256",
          "name": "minLPAmount",
          "type": "uint256"
        }
      ],
      "name": "addLiquidity",
      "outputs": [],
      "stateMutability": "nonpayable",
      "type": "function"
    },
    {
      "inputs": [
        {
          "internalType": "address",
          "name": "owner",
          "type": "address"
        },
        {
          "internalType": "address",
          "name": "spender",
          "type": "address"
        }
      ],
      "name": "allowance",
      "outputs": [
        {
          "internalType": "uint256",
          "name": "",
          "type": "uint256"
        }
      ],
      "stateMutability": "view",
      "type": "function"
    },
    {
      "inputs": [
        {
          "internalType": "address",
          "name": "spender",
          "type": "address"
        },
        {
          "internalType": "uint256",
          "name": "value",
          "type": "uint256"
        }
      ],
      "name": "approve",
      "outputs": [
        {
          "internalType": "bool",
          "name": "",
          "type": "bool"
        }
      ],
      "stateMutability": "nonpayable",
      "type": "function"
    },
    {
      "inputs": [
        {
          "internalType": "address",
          "name": "account",
          "type": "address"
        }
      ],
      "name": "balanceOf",
      "outputs": [
        {
          "internalType": "uint256",
          "name": "",
          "type": "uint256"
        }
      ],
      "stateMutability": "view",
      "type": "function"
    },
    {
      "inputs": [],
      "name": "decimals",
      "outputs": [
        {
          "internalType": "uint8",
          "name": "",
          "type": "uint8"
        }
      ],
      "stateMutability": "view",
      "type": "function"
    },
    {
      "inputs": [
        {
          "internalType": "address",
          "name": "tokenIn",
          "type": "address"
        },
        {
          "internalType": "uint256",
          "name": "amountIn",
          "type": "uint256"
        },
        {
          "internalType": "address",
          "name": "tokenOut",
          "type": "address"
        }
      ],
      "name": "getAmountOut",
      "outputs": [
        {
          "internalType": "uint256",
          "name": "",
          "type": "uint256"
        }
      ],
      "stateMutability": "view",
      "type": "function"
    },
    {
      "inputs": [
        {
          "internalType": "uint256",
          "name": "amount0",
          "type": "uint256"
        }
      ],
      "name": "getRequiredAmount1",
      "outputs": [
        {
          "internalType": "uint256",
          "name": "",
          "type": "uint256"
        }
      ],
      "stateMutability": "view",
      "type": "function"
    },
    {
      "inputs": [],
      "name": "getReserves",
      "outputs": [
        {
          "internalType": "uint256",
          "name": "",
          "type": "uint256"
        },
        {
          "internalType": "uint256",
          "name": "",
          "type": "uint256"
        },
        {
          "internalType": "uint256",
          "name": "",
          "type": "uint256"
        }
      ],
      "stateMutability": "view",
      "type": "function"
    },
    {
      "inputs": [],
      "name": "name",
      "outputs": [
        {
          "internalType": "string",
          "name": "",
          "type": "string"
        }
      ],
      "stateMutability": "view",
      "type": "function"
    },
    {
      "inputs": [],
      "name": "owner",
      "outputs": [
        {
          "internalType": "address",
          "name": "",
          "type": "address"
        }
      ],
      "stateMutability": "view",
      "type": "function"
    },
    {
      "inputs": [],
      "name": "paused",
      "outputs": [
        {
          "internalType": "bool",
          "name": "",
          "type": "bool"
        }
      ],
      "stateMutability": "view",
      "type": "function"
    },
    {
      "inputs": [
        {
          "internalType": "address",
          "name": "tokenIn",
          "type": "address"
        },
        {
          "internalType": "uint256",
          "name": "amountIn",
          "type": "uint256"
        },
        {
          "internalType": "address",
          "name": "tokenOut",
          "type": "address"
        }
      ],
      "name": "swap",
      "outputs": [],
      "stateMutability": "nonpayable",
      "type": "function"
    },
    {
      "inputs": [],
      "name": "symbol",
      "outputs": [
        {
          "internalType": "string",
          "name": "",
          "type": "string"
        }
      ],
      "stateMutability": "view",
      "type": "function"
    },
    {
      "inputs": [],
      "name": "totalSupply",
      "outputs": [
        {
          "internalType": "uint256",
          "name": "",
          "type": "uint256"
        }
      ],
      "stateMutability": "view",
      "type": "function"
    },
    {
      "inputs": [
        {
          "internalType": "address",
          "name": "to",
          "type": "address"
        },
        {
          "internalType": "uint256",
          "name": "value",
          "type": "uint256"
        }
      ],
      "name": "transfer",
      "outputs": [
        {
          "internalType": "bool",
          "name": "",
          "type": "bool"
        }
      ],
      "stateMutability": "nonpayable",
      "type": "function"
    },
    {
      "inputs": [
        {
          "internalType": "address",
          "name": "from",
          "type": "address"
        },
        {
          "internalType": "address",
          "name": "to",
          "type": "address"
        },
        {
          "internalType": "uint256",
          "name": "value",
          "type": "uint256"
        }
      ],
      "name": "transferFrom",
      "outputs": [
        {
          "internalType": "bool",
          "name": "",
          "type": "bool"
        }
      ],
      "stateMutability": "nonpayable",
      "type": "function"
    },
    {
      "inputs": [
        {
          "internalType": "uint256",
          "name": "amount0",
          "type": "uint256"
        },
        {
          "internalType": "uint256",
          "name": "minAmount1",
          "type": "uint256"
        },
        {
          "internalType": "uint256",
          "name": "minLPAmount",
          "type": "uint256"
        }
      ],
      "name": "withdrawingliquidity",
      "outputs": [],
      "stateMutability": "nonpayable",
      "type": "function"
    }
  ],
  "bytecode": "0x6101006040523480156200001257600080fd5b5060405162001d5e38038062001d5e8339810160408190526200003591620000e0565b6040518060400160405280600781526020016626282a37b5b2b760c91b8152506040518060400160405280600381526020016213141560ea1b81525081818160039081620000849190620001bd565b506004620000938282620001bd565b505060016005555050506001600160a01b039182166080819052911660a081905260c09190915260e05262000289565b80516001600160a01b0381168114620000db57600080fd5b919050565b60008060408385031215620000f457600080fd5b620000ff83620000c3565b91506200010f60208401620000c3565b90509250929050565b634e487b7160e01b600052604160045260246000fd5b600181811c908216806200014357607f821691505b6020821081036200016457634e487b7160e01b600052602260045260246000fd5b50919050565b601f821115620001b857600081815260208120601f850160051c81016020861015620001935750805b601f850160051c820191505b81811015620001b4578281556001016200019f565b5050505b505050565b81516001600160401b03811115620001d957620001d962000118565b620001f181620001ea84546200012e565b846200016a565b602080601f831160018114620002295760008415620002105750858301515b600019600386901b1c1916600185901b178555620001b4565b600085815260208120601f198616915b828110156200025a5788860151825594840194600190910190840162000239565b5085821015620002795787850151600019600388901b60f8161c191681555b5050505050600190811b01905550565b60805160a05160c05160e051611a1d62000341600039600081816108a40152818161091a01528181610a1701528181610ac401528181610dc7015281816111fd01526112730152600081816105d70152818161077d015281816108f5015281816109dc01528181610a8901528181610d9401528181610f44015281816110dc015261124e0152600081816103fb015281816107e2015261113b01526000818161037b015281816106ba01526110190152611a1d6000f3fe608060405234801561001057600080fd5b506004361061010b5760003560e01c80636d069a67116100a257806395d89b411161007157806395d89b411461024b578063a9059cbb14610253578063ae17aaa014610266578063dd62ed3e14610279578063ff9c8ac6146102b257600080fd5b80636d069a67146101d157806370a08231146101e45780638da5cb5b1461020d578063929f8c751461023857600080fd5b806323b872dd116100de57806323b872dd14610186578063313ce56714610199578063422f1043146101a85780635c975abb146101bd57600080fd5b806306fdde03146101105780630902f1ac1461012e578063095ea7b31461015157806318160ddd14610174575b600080fd5b6101186102c5565b60405161012591906116d1565b60405180910390f35b610136610357565b60408051938452602084019290925290820152606001610125565b61016461015f36600461173b565b61047c565b6040519015158152602001610125565b6002545b604051908152602001610125565b610164610194366004611765565b610496565b60405160128152602001610125565b6101bb6101b63660046117a1565b6104ba565b005b60075461016490600160a01b900460ff1681565b6101bb6101df3660046117cd565b610983565b6101786101f2366004611809565b6001600160a01b031660009081526020819052604090205490565b600754610220906001600160a01b031681565b6040516001600160a01b039091168152602001610125565b61017861024636600461182b565b610d8a565b610118610e29565b61016461026136600461173b565b610e38565b6101bb6102743660046117a1565b610e46565b610178610287366004611844565b6001600160a01b03918216600090815260016020908152604080832093909416825291909152205490565b6101786102c03660046117cd565b6112d2565b6060600380546102d490611877565b80601f016020809104026020016040519081016040528092919081815260200182805461030090611877565b801561034d5780601f106103225761010080835404028352916020019161034d565b820191906000526020600020905b81548152906001019060200180831161033057829003601f168201915b5050505050905090565b6040516370a0823160e01b8152306004820152600090819081906001600160a01b037f000000000000000000000000000000000000000000000000000000000000000016906370a0823190602401602060405180830381865afa1580156103c2573d6000803e3d6000fd5b505050506040513d601f19601f820116820180604052508101906103e691906118b1565b6040516370a0823160e01b81523060048201527f00000000000000000000000000000000000000000000000000000000000000006001600160a01b0316906370a0823190602401602060405180830381865afa15801561044a573d6000803e3d6000fd5b505050506040513d601f19601f8201168201806040525081019061046e91906118b1565b600254925092509250909192565b60003361048a818585611322565b60019150505b92915050565b6000336104a485828561132f565b6104af8585856113ae565b506001949350505050565b6104c261140d565b600083116105175760405162461bcd60e51b815260206004820152601d60248201527f416d6f756e74206d7573742062652067726561746572207468616e203000000060448201526064015b60405180910390fd5b600082116105375760405162461bcd60e51b815260040161050e906118ca565b600081116105575760405162461bcd60e51b815260040161050e9061190c565b600061056284610d8a565b905060006105708285611437565b905060328111156105c35760405162461bcd60e51b815260206004820152601c60248201527f536c69707061676520746f6f206869676820666f7220746f6b656e3100000000604482015260640161050e565b6000806105cf60025490565b111561062c577f00000000000000000000000000000000000000000000000000000000000000006001600160a01b031660009081526006602052604090205460025461061b9088611966565b610625919061197d565b905061062f565b50845b600061063b8286611437565b9050603281111561068e5760405162461bcd60e51b815260206004820152601f60248201527f536c69707061676520746f6f206869676820666f72204c5020746f6b656e7300604482015260640161050e565b6106983383611462565b6040516323b872dd60e01b8152336004820152306024820152604481018890527f00000000000000000000000000000000000000000000000000000000000000006001600160a01b0316906323b872dd906064016020604051808303816000875af115801561070b573d6000803e3d6000fd5b505050506040513d601f19601f8201168201806040525081019061072f919061199f565b6107735760405162461bcd60e51b8152602060048201526015602482015274151c985b9cd9995c88105b1c1a184819985a5b1959605a1b604482015260640161050e565b6001600160a01b037f000000000000000000000000000000000000000000000000000000000000000016600090815260066020526040812080548992906107bb9084906119c1565b90915550506040516323b872dd60e01b8152336004820152306024820152604481018590527f00000000000000000000000000000000000000000000000000000000000000006001600160a01b0316906323b872dd906064016020604051808303816000875af1158015610833573d6000803e3d6000fd5b505050506040513d601f19601f82011682018060405250810190610857919061199f565b61089a5760405162461bcd60e51b8152602060048201526014602482015273151c985b9cd9995c8810995d184819985a5b195960621b604482015260640161050e565b6001600160a01b037f000000000000000000000000000000000000000000000000000000000000000016600090815260066020526040812080548692906108e29084906119c1565b9091555050604080516001600160a01b037f0000000000000000000000000000000000000000000000000000000000000000811682527f00000000000000000000000000000000000000000000000000000000000000001660208201528591899185917f86c3929a230b573aa47cd83759aed11b800d147abc23e246dfeb5ebbd7a110e3910160405180910390a45050505061097e6001600555565b505050565b61098b61140d565b806001600160a01b0316836001600160a01b0316036109da5760405162461bcd60e51b815260206004820152600b60248201526a53616d6520746f6b656e7360a81b604482015260640161050e565b7f00000000000000000000000000000000000000000000000000000000000000006001600160a01b0316836001600160a01b03161480610a4b57507f00000000000000000000000000000000000000000000000000000000000000006001600160a01b0316836001600160a01b0316145b610a875760405162461bcd60e51b815260206004820152600d60248201526c24b73b30b634b2103a37b5b2b760991b604482015260640161050e565b7f00000000000000000000000000000000000000000000000000000000000000006001600160a01b0316816001600160a01b03161480610af857507f00000000000000000000000000000000000000000000000000000000000000006001600160a01b0316816001600160a01b0316145b610b345760405162461bcd60e51b815260206004820152600d60248201526c24b73b30b634b2103a37b5b2b760991b604482015260640161050e565b60008211610b725760405162461bcd60e51b815260206004820152600b60248201526a16995c9bc8185b5bdd5b9d60aa1b604482015260640161050e565b6000610b7f8484846112d2565b6040516323b872dd60e01b8152336004820152306024820152604481018590529091506001600160a01b038516906323b872dd906064016020604051808303816000875af1158015610bd5573d6000803e3d6000fd5b505050506040513d601f19601f82011682018060405250810190610bf9919061199f565b610c335760405162461bcd60e51b815260206004820152600b60248201526a14ddd85c0811985a5b195960aa1b604482015260640161050e565b60405163a9059cbb60e01b8152336004820152602481018290526001600160a01b0383169063a9059cbb906044016020604051808303816000875af1158015610c80573d6000803e3d6000fd5b505050506040513d601f19601f82011682018060405250810190610ca4919061199f565b610cde5760405162461bcd60e51b815260206004820152600b60248201526a14ddd85c0811985a5b195960aa1b604482015260640161050e565b6001600160a01b03841660009081526006602052604081208054859290610d069084906119c1565b90915550506001600160a01b03821660009081526006602052604081208054839290610d339084906119d4565b9091555050604080516001600160a01b03808716825284166020820152829185917fdb587d878116df0bdd4fe154699aa2c5f439da001cc811dfd05d9f589fc5a8ee910160405180910390a35061097e6001600555565b6001600160a01b037f00000000000000000000000000000000000000000000000000000000000000008116600090815260066020526040808220547f00000000000000000000000000000000000000000000000000000000000000009093168252812054909190811580610dfc575080155b15610e1457610e0c600285611966565b949350505050565b81610e1f8286611966565b610e0c919061197d565b6060600480546102d490611877565b60003361048a8185856113ae565b60008311610e965760405162461bcd60e51b815260206004820152601d60248201527f416d6f756e74206d7573742062652067726561746572207468616e2030000000604482015260640161050e565b60008211610eb65760405162461bcd60e51b815260040161050e906118ca565b60008111610ed65760405162461bcd60e51b815260040161050e9061190c565b6000610ee184610d8a565b90506000610eef8285611437565b90506032811115610f425760405162461bcd60e51b815260206004820152601c60248201527f536c69707061676520746f6f206869676820666f7220746f6b656e3100000000604482015260640161050e565b7f00000000000000000000000000000000000000000000000000000000000000006001600160a01b0316600090815260066020526040812054600254610f889088611966565b610f92919061197d565b90506000610fa08286611437565b90506032811115610ff35760405162461bcd60e51b815260206004820152601f60248201527f536c69707061676520746f6f206869676820666f72204c5020746f6b656e7300604482015260640161050e565b610ffd338361149c565b60405163a9059cbb60e01b8152336004820152602481018890527f00000000000000000000000000000000000000000000000000000000000000006001600160a01b03169063a9059cbb906044016020604051808303816000875af115801561106a573d6000803e3d6000fd5b505050506040513d601f19601f8201168201806040525081019061108e919061199f565b6110d25760405162461bcd60e51b8152602060048201526015602482015274151c985b9cd9995c88105b1c1a184819985a5b1959605a1b604482015260640161050e565b6001600160a01b037f0000000000000000000000000000000000000000000000000000000000000000166000908152600660205260408120805489929061111a9084906119d4565b909155505060405163a9059cbb60e01b8152336004820152602481018590527f00000000000000000000000000000000000000000000000000000000000000006001600160a01b03169063a9059cbb906044016020604051808303816000875af115801561118c573d6000803e3d6000fd5b505050506040513d601f19601f820116820180604052508101906111b0919061199f565b6111f35760405162461bcd60e51b8152602060048201526014602482015273151c985b9cd9995c8810995d184819985a5b195960621b604482015260640161050e565b6001600160a01b037f0000000000000000000000000000000000000000000000000000000000000000166000908152600660205260408120805486929061123b9084906119d4565b9091555050604080516001600160a01b037f0000000000000000000000000000000000000000000000000000000000000000811682527f00000000000000000000000000000000000000000000000000000000000000001660208201528591899185917f4feefb98a7c84001da15ccf33564ab7260004d4ad400a973da1fbdfed0b650a8910160405180910390a450505050505050565b6001600160a01b038082166000908152600660205260408082205492861682528120549091908261130386836119c1565b61130d8785611966565b611317919061197d565b979650505050505050565b61097e83838360016114d2565b6001600160a01b038381166000908152600160209081526040808320938616835292905220546000198110156113a8578181101561139957604051637dc7a0d960e11b81526001600160a01b0384166004820152602481018290526044810183905260640161050e565b6113a8848484840360006114d2565b50505050565b6001600160a01b0383166113d857604051634b637e8f60e11b81526000600482015260240161050e565b6001600160a01b0382166114025760405163ec442f0560e01b81526000600482015260240161050e565b61097e8383836115a7565b60026005540361143057604051633ee5aeb560e01b815260040160405180910390fd5b6002600555565b600081831061144857506000610490565b60008261271061145886836119d4565b610e1f9190611966565b6001600160a01b03821661148c5760405163ec442f0560e01b81526000600482015260240161050e565b611498600083836115a7565b5050565b6001600160a01b0382166114c657604051634b637e8f60e11b81526000600482015260240161050e565b611498826000836115a7565b6001600160a01b0384166114fc5760405163e602df0560e01b81526000600482015260240161050e565b6001600160a01b03831661152657604051634a1406b160e11b81526000600482015260240161050e565b6001600160a01b03808516600090815260016020908152604080832093871683529290522082905580156113a857826001600160a01b0316846001600160a01b03167f8c5be1e5ebec7d5bd14f71427d1e84f3dd0314c0f7b2291e5b200ac8c7c3b9258460405161159991815260200190565b60405180910390a350505050565b6001600160a01b0383166115d25780600260008282546115c791906119c1565b909155506116449050565b6001600160a01b038316600090815260208190526040902054818110156116255760405163391434e360e21b81526001600160a01b0385166004820152602481018290526044810183905260640161050e565b6001600160a01b03841660009081526020819052604090209082900390555b6001600160a01b0382166116605760028054829003905561167f565b6001600160a01b03821660009081526020819052604090208054820190555b816001600160a01b0316836001600160a01b03167fddf252ad1be2c89b69c2b068fc378daa952ba7f163c4a11628f55a4df523b3ef836040516116c491815260200190565b60405180910390a3505050565b600060208083528351808285015260005b818110156116fe578581018301518582016040015282016116e2565b506000604082860101526040601f19601f8301168501019250505092915050565b80356001600160a01b038116811461173657600080fd5b919050565b6000806040838503121561174e57600080fd5b6117578361171f565b946020939093013593505050565b60008060006060848603121561177a57600080fd5b6117838461171f565b92506117916020850161171f565b9150604084013590509250925092565b6000806000606084860312156117b657600080fd5b505081359360208301359350604090920135919050565b6000806000606084860312156117e257600080fd5b6117eb8461171f565b9250602084013591506118006040850161171f565b90509250925092565b60006020828403121561181b57600080fd5b6118248261171f565b9392505050565b60006020828403121561183d57600080fd5b5035919050565b6000806040838503121561185757600080fd5b6118608361171f565b915061186e6020840161171f565b90509250929050565b600181811c9082168061188b57607f821691505b6020821081036118ab57634e487b7160e01b600052602260045260246000fd5b50919050565b6000602082840312156118c357600080fd5b5051919050565b60208082526022908201527f4d696e20616d6f756e7431206d7573742062652067726561746572207468616e604082015261020360f41b606082015260800190565b60208082526024908201527f4d696e204c5020616d6f756e74206d75737420626520677265617465722074686040820152630616e20360e41b606082015260800190565b634e487b7160e01b600052601160045260246000fd5b808202811582820484141761049057610490611950565b60008261199a57634e487b7160e01b600052601260045260246000fd5b500490565b6000602082840312156119b157600080fd5b8151801515811461182457600080fd5b8082018082111561049057610490611950565b818103818111156104905761049061195056fea264697066735822122042920e4baa31947ac36bd22a90b5b2528b9f61dfa205bc11fe5b9826a351555664736f6c63430008140033",
  "linkReferences": {},
  "deployedLinkReferences": {}
}