{
  "_format": "hh-sol-artifact-1",
  "contractName": "Pool",
  "sourceName": "contracts/Pool.sol",
  "abi": [
    {
      "inputs": [
        {
          "internalType": "address",
          "name": "token0",
          "type": "address"
        },
        {
          "internalType": "address",
          "name": "token1",
          "type": "address"
        }
      ],
      "stateMutability": "nonpayable",
      "type": "constructor"
    },
    {
      "inputs": [
        {
          "internalType": "address",
          "name": "spender",
          "type": "address"
        },
        {
          "internalType": "uint256",
          "name": "allowance",
          "type": "uint256"
        },
        {
          "internalType": "uint256",
          "name": "needed",
          "type": "uint256"
        }
      ],
      "name": "ERC20InsufficientAllowance",
      "type": "error"
    },
    {
      "inputs": [
        {
          "internalType": "address",
          "name": "sender",
          "type": "address"
        },
        {
          "internalType": "uint256",
          "name": "balance",
          "type": "uint256"
        },
        {
          "internalType": "uint256",
          "name": "needed",
          "type": "uint256"
        }
      ],
      "name": "ERC20InsufficientBalance",
      "type": "error"
    },
    {
      "inputs": [
        {
          "internalType": "address",
          "name": "approver",
          "type": "address"
        }
      ],
      "name": "ERC20InvalidApprover",
      "type": "error"
    },
    {
      "inputs": [
        {
          "internalType": "address",
          "name": "receiver",
          "type": "address"
        }
      ],
      "name": "ERC20InvalidReceiver",
      "type": "error"
    },
    {
      "inputs": [
        {
          "internalType": "address",
          "name": "sender",
          "type": "address"
        }
      ],
      "name": "ERC20InvalidSender",
      "type": "error"
    },
    {
      "inputs": [
        {
          "internalType": "address",
          "name": "spender",
          "type": "address"
        }
      ],
      "name": "ERC20InvalidSpender",
      "type": "error"
    },
    {
      "inputs": [],
      "name": "ReentrancyGuardReentrantCall",
      "type": "error"
    },
    {
      "anonymous": false,
      "inputs": [
        {
          "indexed": true,
          "internalType": "uint256",
          "name": "lpToken",
          "type": "uint256"
        },
        {
          "indexed": false,
          "internalType": "address",
          "name": "token0",
          "type": "address"
        },
        {
          "indexed": true,
          "internalType": "uint256",
          "name": "amount0",
          "type": "uint256"
        },
        {
          "indexed": false,
          "internalType": "address",
          "name": "token1",
          "type": "address"
        },
        {
          "indexed": true,
          "internalType": "uint256",
          "name": "amount1",
          "type": "uint256"
        }
      ],
      "name": "AddedLiquidity",
      "type": "event"
    },
    {
      "anonymous": false,
      "inputs": [
        {
          "indexed": true,
          "internalType": "address",
          "name": "owner",
          "type": "address"
        },
        {
          "indexed": true,
          "internalType": "address",
          "name": "spender",
          "type": "address"
        },
        {
          "indexed": false,
          "internalType": "uint256",
          "name": "value",
          "type": "uint256"
        }
      ],
      "name": "Approval",
      "type": "event"
    },
    {
      "anonymous": false,
      "inputs": [
        {
          "indexed": false,
          "internalType": "address",
          "name": "tokenIn",
          "type": "address"
        },
        {
          "indexed": true,
          "internalType": "uint256",
          "name": "amountIn",
          "type": "uint256"
        },
        {
          "indexed": false,
          "internalType": "address",
          "name": "tokenOut",
          "type": "address"
        },
        {
          "indexed": true,
          "internalType": "uint256",
          "name": "amountOut",
          "type": "uint256"
        }
      ],
      "name": "Swapped",
      "type": "event"
    },
    {
      "anonymous": false,
      "inputs": [
        {
          "indexed": true,
          "internalType": "address",
          "name": "from",
          "type": "address"
        },
        {
          "indexed": true,
          "internalType": "address",
          "name": "to",
          "type": "address"
        },
        {
          "indexed": false,
          "internalType": "uint256",
          "name": "value",
          "type": "uint256"
        }
      ],
      "name": "Transfer",
      "type": "event"
    },
    {
      "anonymous": false,
      "inputs": [
        {
          "indexed": true,
          "internalType": "uint256",
          "name": "lpToken",
          "type": "uint256"
        },
        {
          "indexed": false,
          "internalType": "address",
          "name": "token0",
          "type": "address"
        },
        {
          "indexed": true,
          "internalType": "uint256",
          "name": "amount0",
          "type": "uint256"
        },
        {
          "indexed": false,
          "internalType": "address",
          "name": "token1",
          "type": "address"
        },
        {
          "indexed": true,
          "internalType": "uint256",
          "name": "amount1",
          "type": "uint256"
        }
      ],
      "name": "WithdrawLiquidity",
      "type": "event"
    },
    {
      "inputs": [
        {
          "internalType": "uint256",
          "name": "amount0",
          "type": "uint256"
        },
        {
          "internalType": "uint256",
          "name": "minAmount1",
          "type": "uint256"
        },
        {
          "internalType": "uint256",
          "name": "minLPAmount",
          "type": "uint256"
        }
      ],
      "name": "addLiquidity",
      "outputs": [],
      "stateMutability": "nonpayable",
      "type": "function"
    },
    {
      "inputs": [
        {
          "internalType": "address",
          "name": "owner",
          "type": "address"
        },
        {
          "internalType": "address",
          "name": "spender",
          "type": "address"
        }
      ],
      "name": "allowance",
      "outputs": [
        {
          "internalType": "uint256",
          "name": "",
          "type": "uint256"
        }
      ],
      "stateMutability": "view",
      "type": "function"
    },
    {
      "inputs": [
        {
          "internalType": "address",
          "name": "spender",
          "type": "address"
        },
        {
          "internalType": "uint256",
          "name": "value",
          "type": "uint256"
        }
      ],
      "name": "approve",
      "outputs": [
        {
          "internalType": "bool",
          "name": "",
          "type": "bool"
        }
      ],
      "stateMutability": "nonpayable",
      "type": "function"
    },
    {
      "inputs": [
        {
          "internalType": "address",
          "name": "account",
          "type": "address"
        }
      ],
      "name": "balanceOf",
      "outputs": [
        {
          "internalType": "uint256",
          "name": "",
          "type": "uint256"
        }
      ],
      "stateMutability": "view",
      "type": "function"
    },
    {
      "inputs": [],
      "name": "decimals",
      "outputs": [
        {
          "internalType": "uint8",
          "name": "",
          "type": "uint8"
        }
      ],
      "stateMutability": "view",
      "type": "function"
    },
    {
      "inputs": [
        {
          "internalType": "address",
          "name": "tokenIn",
          "type": "address"
        },
        {
          "internalType": "uint256",
          "name": "amountIn",
          "type": "uint256"
        },
        {
          "internalType": "address",
          "name": "tokenOut",
          "type": "address"
        }
      ],
      "name": "getAmountOut",
      "outputs": [
        {
          "internalType": "uint256",
          "name": "",
          "type": "uint256"
        }
      ],
      "stateMutability": "view",
      "type": "function"
    },
    {
      "inputs": [
        {
          "internalType": "uint256",
          "name": "amount0",
          "type": "uint256"
        }
      ],
      "name": "getRequiredAmount1",
      "outputs": [
        {
          "internalType": "uint256",
          "name": "",
          "type": "uint256"
        }
      ],
      "stateMutability": "view",
      "type": "function"
    },
    {
      "inputs": [],
      "name": "getReserves",
      "outputs": [
        {
          "internalType": "uint256",
          "name": "",
          "type": "uint256"
        },
        {
          "internalType": "uint256",
          "name": "",
          "type": "uint256"
        },
        {
          "internalType": "uint256",
          "name": "",
          "type": "uint256"
        }
      ],
      "stateMutability": "view",
      "type": "function"
    },
    {
      "inputs": [],
      "name": "name",
      "outputs": [
        {
          "internalType": "string",
          "name": "",
          "type": "string"
        }
      ],
      "stateMutability": "view",
      "type": "function"
    },
    {
      "inputs": [
        {
          "internalType": "address",
          "name": "tokenIn",
          "type": "address"
        },
        {
          "internalType": "uint256",
          "name": "amountIn",
          "type": "uint256"
        },
        {
          "internalType": "address",
          "name": "tokenOut",
          "type": "address"
        }
      ],
      "name": "swap",
      "outputs": [],
      "stateMutability": "nonpayable",
      "type": "function"
    },
    {
      "inputs": [],
      "name": "symbol",
      "outputs": [
        {
          "internalType": "string",
          "name": "",
          "type": "string"
        }
      ],
      "stateMutability": "view",
      "type": "function"
    },
    {
      "inputs": [],
      "name": "totalSupply",
      "outputs": [
        {
          "internalType": "uint256",
          "name": "",
          "type": "uint256"
        }
      ],
      "stateMutability": "view",
      "type": "function"
    },
    {
      "inputs": [
        {
          "internalType": "address",
          "name": "to",
          "type": "address"
        },
        {
          "internalType": "uint256",
          "name": "value",
          "type": "uint256"
        }
      ],
      "name": "transfer",
      "outputs": [
        {
          "internalType": "bool",
          "name": "",
          "type": "bool"
        }
      ],
      "stateMutability": "nonpayable",
      "type": "function"
    },
    {
      "inputs": [
        {
          "internalType": "address",
          "name": "from",
          "type": "address"
        },
        {
          "internalType": "address",
          "name": "to",
          "type": "address"
        },
        {
          "internalType": "uint256",
          "name": "value",
          "type": "uint256"
        }
      ],
      "name": "transferFrom",
      "outputs": [
        {
          "internalType": "bool",
          "name": "",
          "type": "bool"
        }
      ],
      "stateMutability": "nonpayable",
      "type": "function"
    },
    {
      "inputs": [
        {
          "internalType": "uint256",
          "name": "amount0",
          "type": "uint256"
        },
        {
          "internalType": "uint256",
          "name": "minAmount1",
          "type": "uint256"
        },
        {
          "internalType": "uint256",
          "name": "minLPAmount",
          "type": "uint256"
        }
      ],
      "name": "withdrawingliquidity",
      "outputs": [],
      "stateMutability": "nonpayable",
      "type": "function"
    }
  ],
  "bytecode": "0x6101006040523480156200001257600080fd5b5060405162001d0938038062001d098339810160408190526200003591620000e0565b6040518060400160405280600781526020016626282a37b5b2b760c91b8152506040518060400160405280600381526020016213141560ea1b81525081818160039081620000849190620001bd565b506004620000938282620001bd565b505060016005555050506001600160a01b039182166080819052911660a081905260c09190915260e05262000289565b80516001600160a01b0381168114620000db57600080fd5b919050565b60008060408385031215620000f457600080fd5b620000ff83620000c3565b91506200010f60208401620000c3565b90509250929050565b634e487b7160e01b600052604160045260246000fd5b600181811c908216806200014357607f821691505b6020821081036200016457634e487b7160e01b600052602260045260246000fd5b50919050565b601f821115620001b857600081815260208120601f850160051c81016020861015620001935750805b601f850160051c820191505b81811015620001b4578281556001016200019f565b5050505b505050565b81516001600160401b03811115620001d957620001d962000118565b620001f181620001ea84546200012e565b846200016a565b602080601f831160018114620002295760008415620002105750858301515b600019600386901b1c1916600185901b178555620001b4565b600085815260208120601f198616915b828110156200025a5788860151825594840194600190910190840162000239565b5085821015620002795787850151600019600388901b60f8161c191681555b5050505050600190811b01905550565b60805160a05160c05160e0516119c8620003416000396000818161084f015281816108c5015281816109c201528181610a6f01528181610d72015281816111a8015261121e01526000818161058201528181610728015281816108a00152818161098701528181610a3401528181610d3f01528181610eef0152818161108701526111f90152600081816103a60152818161078d01526110e6015260008181610326015281816106650152610fc401526119c86000f3fe608060405234801561001057600080fd5b50600436106100f55760003560e01c80636d069a6711610097578063a9059cbb11610066578063a9059cbb146101fe578063ae17aaa014610211578063dd62ed3e14610224578063ff9c8ac61461025d57600080fd5b80636d069a67146101a757806370a08231146101ba578063929f8c75146101e357806395d89b41146101f657600080fd5b806318160ddd116100d357806318160ddd1461015e57806323b872dd14610170578063313ce56714610183578063422f10431461019257600080fd5b806306fdde03146100fa5780630902f1ac14610118578063095ea7b31461013b575b600080fd5b610102610270565b60405161010f919061167c565b60405180910390f35b610120610302565b6040805193845260208401929092529082015260600161010f565b61014e6101493660046116e6565b610427565b604051901515815260200161010f565b6002545b60405190815260200161010f565b61014e61017e366004611710565b610441565b6040516012815260200161010f565b6101a56101a036600461174c565b610465565b005b6101a56101b5366004611778565b61092e565b6101626101c83660046117b4565b6001600160a01b031660009081526020819052604090205490565b6101626101f13660046117d6565b610d35565b610102610dd4565b61014e61020c3660046116e6565b610de3565b6101a561021f36600461174c565b610df1565b6101626102323660046117ef565b6001600160a01b03918216600090815260016020908152604080832093909416825291909152205490565b61016261026b366004611778565b61127d565b60606003805461027f90611822565b80601f01602080910402602001604051908101604052809291908181526020018280546102ab90611822565b80156102f85780601f106102cd576101008083540402835291602001916102f8565b820191906000526020600020905b8154815290600101906020018083116102db57829003601f168201915b5050505050905090565b6040516370a0823160e01b8152306004820152600090819081906001600160a01b037f000000000000000000000000000000000000000000000000000000000000000016906370a0823190602401602060405180830381865afa15801561036d573d6000803e3d6000fd5b505050506040513d601f19601f82011682018060405250810190610391919061185c565b6040516370a0823160e01b81523060048201527f00000000000000000000000000000000000000000000000000000000000000006001600160a01b0316906370a0823190602401602060405180830381865afa1580156103f5573d6000803e3d6000fd5b505050506040513d601f19601f82011682018060405250810190610419919061185c565b600254925092509250909192565b6000336104358185856112cd565b60019150505b92915050565b60003361044f8582856112da565b61045a858585611359565b506001949350505050565b61046d6113b8565b600083116104c25760405162461bcd60e51b815260206004820152601d60248201527f416d6f756e74206d7573742062652067726561746572207468616e203000000060448201526064015b60405180910390fd5b600082116104e25760405162461bcd60e51b81526004016104b990611875565b600081116105025760405162461bcd60e51b81526004016104b9906118b7565b600061050d84610d35565b9050600061051b82856113e2565b9050603281111561056e5760405162461bcd60e51b815260206004820152601c60248201527f536c69707061676520746f6f206869676820666f7220746f6b656e310000000060448201526064016104b9565b60008061057a60025490565b11156105d7577f00000000000000000000000000000000000000000000000000000000000000006001600160a01b03166000908152600660205260409020546002546105c69088611911565b6105d09190611928565b90506105da565b50845b60006105e682866113e2565b905060328111156106395760405162461bcd60e51b815260206004820152601f60248201527f536c69707061676520746f6f206869676820666f72204c5020746f6b656e730060448201526064016104b9565b610643338361140d565b6040516323b872dd60e01b8152336004820152306024820152604481018890527f00000000000000000000000000000000000000000000000000000000000000006001600160a01b0316906323b872dd906064016020604051808303816000875af11580156106b6573d6000803e3d6000fd5b505050506040513d601f19601f820116820180604052508101906106da919061194a565b61071e5760405162461bcd60e51b8152602060048201526015602482015274151c985b9cd9995c88105b1c1a184819985a5b1959605a1b60448201526064016104b9565b6001600160a01b037f0000000000000000000000000000000000000000000000000000000000000000166000908152600660205260408120805489929061076690849061196c565b90915550506040516323b872dd60e01b8152336004820152306024820152604481018590527f00000000000000000000000000000000000000000000000000000000000000006001600160a01b0316906323b872dd906064016020604051808303816000875af11580156107de573d6000803e3d6000fd5b505050506040513d601f19601f82011682018060405250810190610802919061194a565b6108455760405162461bcd60e51b8152602060048201526014602482015273151c985b9cd9995c8810995d184819985a5b195960621b60448201526064016104b9565b6001600160a01b037f0000000000000000000000000000000000000000000000000000000000000000166000908152600660205260408120805486929061088d90849061196c565b9091555050604080516001600160a01b037f0000000000000000000000000000000000000000000000000000000000000000811682527f00000000000000000000000000000000000000000000000000000000000000001660208201528591899185917f86c3929a230b573aa47cd83759aed11b800d147abc23e246dfeb5ebbd7a110e3910160405180910390a4505050506109296001600555565b505050565b6109366113b8565b806001600160a01b0316836001600160a01b0316036109855760405162461bcd60e51b815260206004820152600b60248201526a53616d6520746f6b656e7360a81b60448201526064016104b9565b7f00000000000000000000000000000000000000000000000000000000000000006001600160a01b0316836001600160a01b031614806109f657507f00000000000000000000000000000000000000000000000000000000000000006001600160a01b0316836001600160a01b0316145b610a325760405162461bcd60e51b815260206004820152600d60248201526c24b73b30b634b2103a37b5b2b760991b60448201526064016104b9565b7f00000000000000000000000000000000000000000000000000000000000000006001600160a01b0316816001600160a01b03161480610aa357507f00000000000000000000000000000000000000000000000000000000000000006001600160a01b0316816001600160a01b0316145b610adf5760405162461bcd60e51b815260206004820152600d60248201526c24b73b30b634b2103a37b5b2b760991b60448201526064016104b9565b60008211610b1d5760405162461bcd60e51b815260206004820152600b60248201526a16995c9bc8185b5bdd5b9d60aa1b60448201526064016104b9565b6000610b2a84848461127d565b6040516323b872dd60e01b8152336004820152306024820152604481018590529091506001600160a01b038516906323b872dd906064016020604051808303816000875af1158015610b80573d6000803e3d6000fd5b505050506040513d601f19601f82011682018060405250810190610ba4919061194a565b610bde5760405162461bcd60e51b815260206004820152600b60248201526a14ddd85c0811985a5b195960aa1b60448201526064016104b9565b60405163a9059cbb60e01b8152336004820152602481018290526001600160a01b0383169063a9059cbb906044016020604051808303816000875af1158015610c2b573d6000803e3d6000fd5b505050506040513d601f19601f82011682018060405250810190610c4f919061194a565b610c895760405162461bcd60e51b815260206004820152600b60248201526a14ddd85c0811985a5b195960aa1b60448201526064016104b9565b6001600160a01b03841660009081526006602052604081208054859290610cb190849061196c565b90915550506001600160a01b03821660009081526006602052604081208054839290610cde90849061197f565b9091555050604080516001600160a01b03808716825284166020820152829185917fdb587d878116df0bdd4fe154699aa2c5f439da001cc811dfd05d9f589fc5a8ee910160405180910390a3506109296001600555565b6001600160a01b037f00000000000000000000000000000000000000000000000000000000000000008116600090815260066020526040808220547f00000000000000000000000000000000000000000000000000000000000000009093168252812054909190811580610da7575080155b15610dbf57610db7600285611911565b949350505050565b81610dca8286611911565b610db79190611928565b60606004805461027f90611822565b600033610435818585611359565b60008311610e415760405162461bcd60e51b815260206004820152601d60248201527f416d6f756e74206d7573742062652067726561746572207468616e203000000060448201526064016104b9565b60008211610e615760405162461bcd60e51b81526004016104b990611875565b60008111610e815760405162461bcd60e51b81526004016104b9906118b7565b6000610e8c84610d35565b90506000610e9a82856113e2565b90506032811115610eed5760405162461bcd60e51b815260206004820152601c60248201527f536c69707061676520746f6f206869676820666f7220746f6b656e310000000060448201526064016104b9565b7f00000000000000000000000000000000000000000000000000000000000000006001600160a01b0316600090815260066020526040812054600254610f339088611911565b610f3d9190611928565b90506000610f4b82866113e2565b90506032811115610f9e5760405162461bcd60e51b815260206004820152601f60248201527f536c69707061676520746f6f206869676820666f72204c5020746f6b656e730060448201526064016104b9565b610fa83383611447565b60405163a9059cbb60e01b8152336004820152602481018890527f00000000000000000000000000000000000000000000000000000000000000006001600160a01b03169063a9059cbb906044016020604051808303816000875af1158015611015573d6000803e3d6000fd5b505050506040513d601f19601f82011682018060405250810190611039919061194a565b61107d5760405162461bcd60e51b8152602060048201526015602482015274151c985b9cd9995c88105b1c1a184819985a5b1959605a1b60448201526064016104b9565b6001600160a01b037f000000000000000000000000000000000000000000000000000000000000000016600090815260066020526040812080548992906110c590849061197f565b909155505060405163a9059cbb60e01b8152336004820152602481018590527f00000000000000000000000000000000000000000000000000000000000000006001600160a01b03169063a9059cbb906044016020604051808303816000875af1158015611137573d6000803e3d6000fd5b505050506040513d601f19601f8201168201806040525081019061115b919061194a565b61119e5760405162461bcd60e51b8152602060048201526014602482015273151c985b9cd9995c8810995d184819985a5b195960621b60448201526064016104b9565b6001600160a01b037f000000000000000000000000000000000000000000000000000000000000000016600090815260066020526040812080548692906111e690849061197f565b9091555050604080516001600160a01b037f0000000000000000000000000000000000000000000000000000000000000000811682527f00000000000000000000000000000000000000000000000000000000000000001660208201528591899185917f4feefb98a7c84001da15ccf33564ab7260004d4ad400a973da1fbdfed0b650a8910160405180910390a450505050505050565b6001600160a01b03808216600090815260066020526040808220549286168252812054909190826112ae868361196c565b6112b88785611911565b6112c29190611928565b979650505050505050565b610929838383600161147d565b6001600160a01b03838116600090815260016020908152604080832093861683529290522054600019811015611353578181101561134457604051637dc7a0d960e11b81526001600160a01b038416600482015260248101829052604481018390526064016104b9565b6113538484848403600061147d565b50505050565b6001600160a01b03831661138357604051634b637e8f60e11b8152600060048201526024016104b9565b6001600160a01b0382166113ad5760405163ec442f0560e01b8152600060048201526024016104b9565b610929838383611552565b6002600554036113db57604051633ee5aeb560e01b815260040160405180910390fd5b6002600555565b60008183106113f35750600061043b565b600082612710611403868361197f565b610dca9190611911565b6001600160a01b0382166114375760405163ec442f0560e01b8152600060048201526024016104b9565b61144360008383611552565b5050565b6001600160a01b03821661147157604051634b637e8f60e11b8152600060048201526024016104b9565b61144382600083611552565b6001600160a01b0384166114a75760405163e602df0560e01b8152600060048201526024016104b9565b6001600160a01b0383166114d157604051634a1406b160e11b8152600060048201526024016104b9565b6001600160a01b038085166000908152600160209081526040808320938716835292905220829055801561135357826001600160a01b0316846001600160a01b03167f8c5be1e5ebec7d5bd14f71427d1e84f3dd0314c0f7b2291e5b200ac8c7c3b9258460405161154491815260200190565b60405180910390a350505050565b6001600160a01b03831661157d578060026000828254611572919061196c565b909155506115ef9050565b6001600160a01b038316600090815260208190526040902054818110156115d05760405163391434e360e21b81526001600160a01b038516600482015260248101829052604481018390526064016104b9565b6001600160a01b03841660009081526020819052604090209082900390555b6001600160a01b03821661160b5760028054829003905561162a565b6001600160a01b03821660009081526020819052604090208054820190555b816001600160a01b0316836001600160a01b03167fddf252ad1be2c89b69c2b068fc378daa952ba7f163c4a11628f55a4df523b3ef8360405161166f91815260200190565b60405180910390a3505050565b600060208083528351808285015260005b818110156116a95785810183015185820160400152820161168d565b506000604082860101526040601f19601f8301168501019250505092915050565b80356001600160a01b03811681146116e157600080fd5b919050565b600080604083850312156116f957600080fd5b611702836116ca565b946020939093013593505050565b60008060006060848603121561172557600080fd5b61172e846116ca565b925061173c602085016116ca565b9150604084013590509250925092565b60008060006060848603121561176157600080fd5b505081359360208301359350604090920135919050565b60008060006060848603121561178d57600080fd5b611796846116ca565b9250602084013591506117ab604085016116ca565b90509250925092565b6000602082840312156117c657600080fd5b6117cf826116ca565b9392505050565b6000602082840312156117e857600080fd5b5035919050565b6000806040838503121561180257600080fd5b61180b836116ca565b9150611819602084016116ca565b90509250929050565b600181811c9082168061183657607f821691505b60208210810361185657634e487b7160e01b600052602260045260246000fd5b50919050565b60006020828403121561186e57600080fd5b5051919050565b60208082526022908201527f4d696e20616d6f756e7431206d7573742062652067726561746572207468616e604082015261020360f41b606082015260800190565b60208082526024908201527f4d696e204c5020616d6f756e74206d75737420626520677265617465722074686040820152630616e20360e41b606082015260800190565b634e487b7160e01b600052601160045260246000fd5b808202811582820484141761043b5761043b6118fb565b60008261194557634e487b7160e01b600052601260045260246000fd5b500490565b60006020828403121561195c57600080fd5b815180151581146117cf57600080fd5b8082018082111561043b5761043b6118fb565b8181038181111561043b5761043b6118fb56fea26469706673582212205073bdbb16bdae91b87683595ce4758582c795f38b8a3bd8390d7582980441ee64736f6c63430008140033",
  "linkReferences": {},
  "deployedLinkReferences": {}
}