{
  "_format": "hh-sol-artifact-1",
  "contractName": "Pool",
  "sourceName": "contracts/Pool.sol",
  "abi": [
    {
      "inputs": [
        {
          "internalType": "address",
          "name": "token0",
          "type": "address"
        },
        {
          "internalType": "address",
          "name": "token1",
          "type": "address"
        },
        {
          "internalType": "address",
          "name": "_feeCollector",
          "type": "address"
        }
      ],
      "stateMutability": "nonpayable",
      "type": "constructor"
    },
    {
      "inputs": [
        {
          "internalType": "address",
          "name": "spender",
          "type": "address"
        },
        {
          "internalType": "uint256",
          "name": "allowance",
          "type": "uint256"
        },
        {
          "internalType": "uint256",
          "name": "needed",
          "type": "uint256"
        }
      ],
      "name": "ERC20InsufficientAllowance",
      "type": "error"
    },
    {
      "inputs": [
        {
          "internalType": "address",
          "name": "sender",
          "type": "address"
        },
        {
          "internalType": "uint256",
          "name": "balance",
          "type": "uint256"
        },
        {
          "internalType": "uint256",
          "name": "needed",
          "type": "uint256"
        }
      ],
      "name": "ERC20InsufficientBalance",
      "type": "error"
    },
    {
      "inputs": [
        {
          "internalType": "address",
          "name": "approver",
          "type": "address"
        }
      ],
      "name": "ERC20InvalidApprover",
      "type": "error"
    },
    {
      "inputs": [
        {
          "internalType": "address",
          "name": "receiver",
          "type": "address"
        }
      ],
      "name": "ERC20InvalidReceiver",
      "type": "error"
    },
    {
      "inputs": [
        {
          "internalType": "address",
          "name": "sender",
          "type": "address"
        }
      ],
      "name": "ERC20InvalidSender",
      "type": "error"
    },
    {
      "inputs": [
        {
          "internalType": "address",
          "name": "spender",
          "type": "address"
        }
      ],
      "name": "ERC20InvalidSpender",
      "type": "error"
    },
    {
      "inputs": [
        {
          "internalType": "address",
          "name": "owner",
          "type": "address"
        }
      ],
      "name": "OwnableInvalidOwner",
      "type": "error"
    },
    {
      "inputs": [
        {
          "internalType": "address",
          "name": "account",
          "type": "address"
        }
      ],
      "name": "OwnableUnauthorizedAccount",
      "type": "error"
    },
    {
      "inputs": [],
      "name": "ReentrancyGuardReentrantCall",
      "type": "error"
    },
    {
      "anonymous": false,
      "inputs": [
        {
          "indexed": true,
          "internalType": "uint256",
          "name": "lpToken",
          "type": "uint256"
        },
        {
          "indexed": false,
          "internalType": "address",
          "name": "token0",
          "type": "address"
        },
        {
          "indexed": true,
          "internalType": "uint256",
          "name": "amount0",
          "type": "uint256"
        },
        {
          "indexed": false,
          "internalType": "address",
          "name": "token1",
          "type": "address"
        },
        {
          "indexed": true,
          "internalType": "uint256",
          "name": "amount1",
          "type": "uint256"
        }
      ],
      "name": "AddedLiquidity",
      "type": "event"
    },
    {
      "anonymous": false,
      "inputs": [
        {
          "indexed": true,
          "internalType": "address",
          "name": "owner",
          "type": "address"
        },
        {
          "indexed": true,
          "internalType": "address",
          "name": "spender",
          "type": "address"
        },
        {
          "indexed": false,
          "internalType": "uint256",
          "name": "value",
          "type": "uint256"
        }
      ],
      "name": "Approval",
      "type": "event"
    },
    {
      "anonymous": false,
      "inputs": [
        {
          "indexed": true,
          "internalType": "address",
          "name": "token",
          "type": "address"
        },
        {
          "indexed": true,
          "internalType": "uint256",
          "name": "amount",
          "type": "uint256"
        }
      ],
      "name": "FeeCollected",
      "type": "event"
    },
    {
      "anonymous": false,
      "inputs": [
        {
          "indexed": false,
          "internalType": "uint256",
          "name": "lpShare",
          "type": "uint256"
        },
        {
          "indexed": false,
          "internalType": "uint256",
          "name": "swapperShare",
          "type": "uint256"
        },
        {
          "indexed": false,
          "internalType": "uint256",
          "name": "protocolShare",
          "type": "uint256"
        }
      ],
      "name": "FeeSharesUpdated",
      "type": "event"
    },
    {
      "anonymous": false,
      "inputs": [
        {
          "indexed": true,
          "internalType": "address",
          "name": "recipient",
          "type": "address"
        },
        {
          "indexed": false,
          "internalType": "uint256",
          "name": "amount",
          "type": "uint256"
        },
        {
          "indexed": false,
          "internalType": "string",
          "name": "incentiveType",
          "type": "string"
        }
      ],
      "name": "IncentiveDistributed",
      "type": "event"
    },
    {
      "anonymous": false,
      "inputs": [
        {
          "indexed": true,
          "internalType": "address",
          "name": "previousOwner",
          "type": "address"
        },
        {
          "indexed": true,
          "internalType": "address",
          "name": "newOwner",
          "type": "address"
        }
      ],
      "name": "OwnershipTransferred",
      "type": "event"
    },
    {
      "anonymous": false,
      "inputs": [
        {
          "indexed": false,
          "internalType": "address",
          "name": "tokenIn",
          "type": "address"
        },
        {
          "indexed": true,
          "internalType": "uint256",
          "name": "amountIn",
          "type": "uint256"
        },
        {
          "indexed": false,
          "internalType": "address",
          "name": "tokenOut",
          "type": "address"
        },
        {
          "indexed": true,
          "internalType": "uint256",
          "name": "amountOut",
          "type": "uint256"
        }
      ],
      "name": "Swapped",
      "type": "event"
    },
    {
      "anonymous": false,
      "inputs": [
        {
          "indexed": true,
          "internalType": "address",
          "name": "from",
          "type": "address"
        },
        {
          "indexed": true,
          "internalType": "address",
          "name": "to",
          "type": "address"
        },
        {
          "indexed": false,
          "internalType": "uint256",
          "name": "value",
          "type": "uint256"
        }
      ],
      "name": "Transfer",
      "type": "event"
    },
    {
      "anonymous": false,
      "inputs": [
        {
          "indexed": true,
          "internalType": "uint256",
          "name": "lpToken",
          "type": "uint256"
        },
        {
          "indexed": false,
          "internalType": "address",
          "name": "token0",
          "type": "address"
        },
        {
          "indexed": true,
          "internalType": "uint256",
          "name": "amount0",
          "type": "uint256"
        },
        {
          "indexed": false,
          "internalType": "address",
          "name": "token1",
          "type": "address"
        },
        {
          "indexed": true,
          "internalType": "uint256",
          "name": "amount1",
          "type": "uint256"
        }
      ],
      "name": "WithdrawLiquidity",
      "type": "event"
    },
    {
      "inputs": [],
      "name": "FEE_DENOMINATOR",
      "outputs": [
        {
          "internalType": "uint256",
          "name": "",
          "type": "uint256"
        }
      ],
      "stateMutability": "view",
      "type": "function"
    },
    {
      "inputs": [
        {
          "internalType": "uint256",
          "name": "amount0",
          "type": "uint256"
        }
      ],
      "name": "addLiquidity",
      "outputs": [],
      "stateMutability": "nonpayable",
      "type": "function"
    },
    {
      "inputs": [
        {
          "internalType": "address",
          "name": "owner",
          "type": "address"
        },
        {
          "internalType": "address",
          "name": "spender",
          "type": "address"
        }
      ],
      "name": "allowance",
      "outputs": [
        {
          "internalType": "uint256",
          "name": "",
          "type": "uint256"
        }
      ],
      "stateMutability": "view",
      "type": "function"
    },
    {
      "inputs": [
        {
          "internalType": "address",
          "name": "spender",
          "type": "address"
        },
        {
          "internalType": "uint256",
          "name": "value",
          "type": "uint256"
        }
      ],
      "name": "approve",
      "outputs": [
        {
          "internalType": "bool",
          "name": "",
          "type": "bool"
        }
      ],
      "stateMutability": "nonpayable",
      "type": "function"
    },
    {
      "inputs": [
        {
          "internalType": "address",
          "name": "account",
          "type": "address"
        }
      ],
      "name": "balanceOf",
      "outputs": [
        {
          "internalType": "uint256",
          "name": "",
          "type": "uint256"
        }
      ],
      "stateMutability": "view",
      "type": "function"
    },
    {
      "inputs": [
        {
          "internalType": "bool",
          "name": "useToken0",
          "type": "bool"
        }
      ],
      "name": "claimLpIncentives",
      "outputs": [],
      "stateMutability": "nonpayable",
      "type": "function"
    },
    {
      "inputs": [],
      "name": "decimals",
      "outputs": [
        {
          "internalType": "uint8",
          "name": "",
          "type": "uint8"
        }
      ],
      "stateMutability": "view",
      "type": "function"
    },
    {
      "inputs": [
        {
          "internalType": "address[]",
          "name": "providers",
          "type": "address[]"
        },
        {
          "internalType": "uint256[]",
          "name": "amounts",
          "type": "uint256[]"
        }
      ],
      "name": "distributeLpIncentives",
      "outputs": [],
      "stateMutability": "nonpayable",
      "type": "function"
    },
    {
      "inputs": [],
      "name": "feeCollector",
      "outputs": [
        {
          "internalType": "address",
          "name": "",
          "type": "address"
        }
      ],
      "stateMutability": "view",
      "type": "function"
    },
    {
      "inputs": [
        {
          "internalType": "address",
          "name": "tokenIn",
          "type": "address"
        },
        {
          "internalType": "uint256",
          "name": "amountIn",
          "type": "uint256"
        },
        {
          "internalType": "address",
          "name": "tokenOut",
          "type": "address"
        }
      ],
      "name": "getAmountOut",
      "outputs": [
        {
          "internalType": "uint256",
          "name": "",
          "type": "uint256"
        }
      ],
      "stateMutability": "view",
      "type": "function"
    },
    {
      "inputs": [
        {
          "internalType": "uint256",
          "name": "amount0",
          "type": "uint256"
        }
      ],
      "name": "getRequiredAmount1",
      "outputs": [
        {
          "internalType": "uint256",
          "name": "",
          "type": "uint256"
        }
      ],
      "stateMutability": "view",
      "type": "function"
    },
    {
      "inputs": [],
      "name": "getReserves",
      "outputs": [
        {
          "internalType": "uint256",
          "name": "",
          "type": "uint256"
        },
        {
          "internalType": "uint256",
          "name": "",
          "type": "uint256"
        },
        {
          "internalType": "uint256",
          "name": "",
          "type": "uint256"
        }
      ],
      "stateMutability": "view",
      "type": "function"
    },
    {
      "inputs": [],
      "name": "liquidityProviderIncentives",
      "outputs": [
        {
          "internalType": "uint256",
          "name": "",
          "type": "uint256"
        }
      ],
      "stateMutability": "view",
      "type": "function"
    },
    {
      "inputs": [],
      "name": "lpIncentiveShare",
      "outputs": [
        {
          "internalType": "uint256",
          "name": "",
          "type": "uint256"
        }
      ],
      "stateMutability": "view",
      "type": "function"
    },
    {
      "inputs": [],
      "name": "name",
      "outputs": [
        {
          "internalType": "string",
          "name": "",
          "type": "string"
        }
      ],
      "stateMutability": "view",
      "type": "function"
    },
    {
      "inputs": [],
      "name": "owner",
      "outputs": [
        {
          "internalType": "address",
          "name": "",
          "type": "address"
        }
      ],
      "stateMutability": "view",
      "type": "function"
    },
    {
      "inputs": [],
      "name": "protocolFeeShare",
      "outputs": [
        {
          "internalType": "uint256",
          "name": "",
          "type": "uint256"
        }
      ],
      "stateMutability": "view",
      "type": "function"
    },
    {
      "inputs": [],
      "name": "renounceOwnership",
      "outputs": [],
      "stateMutability": "nonpayable",
      "type": "function"
    },
    {
      "inputs": [
        {
          "internalType": "address",
          "name": "_feeCollector",
          "type": "address"
        }
      ],
      "name": "setFeeCollector",
      "outputs": [],
      "stateMutability": "nonpayable",
      "type": "function"
    },
    {
      "inputs": [
        {
          "internalType": "uint256",
          "name": "_lpShare",
          "type": "uint256"
        },
        {
          "internalType": "uint256",
          "name": "_swapperShare",
          "type": "uint256"
        },
        {
          "internalType": "uint256",
          "name": "_protocolShare",
          "type": "uint256"
        }
      ],
      "name": "setFeeShares",
      "outputs": [],
      "stateMutability": "nonpayable",
      "type": "function"
    },
    {
      "inputs": [
        {
          "internalType": "uint256",
          "name": "_tradingFee",
          "type": "uint256"
        }
      ],
      "name": "setTradingFee",
      "outputs": [],
      "stateMutability": "nonpayable",
      "type": "function"
    },
    {
      "inputs": [
        {
          "internalType": "address",
          "name": "tokenIn",
          "type": "address"
        },
        {
          "internalType": "uint256",
          "name": "amountIn",
          "type": "uint256"
        },
        {
          "internalType": "address",
          "name": "tokenOut",
          "type": "address"
        }
      ],
      "name": "swap",
      "outputs": [],
      "stateMutability": "nonpayable",
      "type": "function"
    },
    {
      "inputs": [],
      "name": "swapperRebateShare",
      "outputs": [
        {
          "internalType": "uint256",
          "name": "",
          "type": "uint256"
        }
      ],
      "stateMutability": "view",
      "type": "function"
    },
    {
      "inputs": [],
      "name": "swapperRebates",
      "outputs": [
        {
          "internalType": "uint256",
          "name": "",
          "type": "uint256"
        }
      ],
      "stateMutability": "view",
      "type": "function"
    },
    {
      "inputs": [],
      "name": "symbol",
      "outputs": [
        {
          "internalType": "string",
          "name": "",
          "type": "string"
        }
      ],
      "stateMutability": "view",
      "type": "function"
    },
    {
      "inputs": [],
      "name": "syncBalances",
      "outputs": [],
      "stateMutability": "nonpayable",
      "type": "function"
    },
    {
      "inputs": [],
      "name": "totalSupply",
      "outputs": [
        {
          "internalType": "uint256",
          "name": "",
          "type": "uint256"
        }
      ],
      "stateMutability": "view",
      "type": "function"
    },
    {
      "inputs": [],
      "name": "tradingFee",
      "outputs": [
        {
          "internalType": "uint256",
          "name": "",
          "type": "uint256"
        }
      ],
      "stateMutability": "view",
      "type": "function"
    },
    {
      "inputs": [
        {
          "internalType": "address",
          "name": "to",
          "type": "address"
        },
        {
          "internalType": "uint256",
          "name": "value",
          "type": "uint256"
        }
      ],
      "name": "transfer",
      "outputs": [
        {
          "internalType": "bool",
          "name": "",
          "type": "bool"
        }
      ],
      "stateMutability": "nonpayable",
      "type": "function"
    },
    {
      "inputs": [
        {
          "internalType": "address",
          "name": "from",
          "type": "address"
        },
        {
          "internalType": "address",
          "name": "to",
          "type": "address"
        },
        {
          "internalType": "uint256",
          "name": "value",
          "type": "uint256"
        }
      ],
      "name": "transferFrom",
      "outputs": [
        {
          "internalType": "bool",
          "name": "",
          "type": "bool"
        }
      ],
      "stateMutability": "nonpayable",
      "type": "function"
    },
    {
      "inputs": [
        {
          "internalType": "address",
          "name": "newOwner",
          "type": "address"
        }
      ],
      "name": "transferOwnership",
      "outputs": [],
      "stateMutability": "nonpayable",
      "type": "function"
    },
    {
      "inputs": [
        {
          "internalType": "uint256",
          "name": "lpAmount",
          "type": "uint256"
        }
      ],
      "name": "withdrawLiquidity",
      "outputs": [],
      "stateMutability": "nonpayable",
      "type": "function"
    }
  ],
  "bytecode": "0x610100604052601e600855611388600c556107d0600d55610bb8600e553480156200002957600080fd5b5060405162002efb38038062002efb8339810160408190526200004c916200019e565b336040518060400160405280600781526020016626282a37b5b2b760c91b8152506040518060400160405280600381526020016213141560ea1b815250818181600390816200009c91906200028d565b506004620000ab82826200028d565b505060016005555050506001600160a01b038116620000e457604051631e4fbdf760e01b81526000600482015260240160405180910390fd5b620000ef816200012f565b506001600160a01b03928316608081905291831660a081905260c09290925260e091909152600980546001600160a01b0319169190921617905562000359565b600680546001600160a01b038381166001600160a01b0319831681179093556040519116919082907f8be0079c531659141344cd1fd0a4f28419497f9722a3daafe3b4186f6b6457e090600090a35050565b80516001600160a01b03811681146200019957600080fd5b919050565b600080600060608486031215620001b457600080fd5b620001bf8462000181565b9250620001cf6020850162000181565b9150620001df6040850162000181565b90509250925092565b634e487b7160e01b600052604160045260246000fd5b600181811c908216806200021357607f821691505b6020821081036200023457634e487b7160e01b600052602260045260246000fd5b50919050565b601f8211156200028857600081815260208120601f850160051c81016020861015620002635750805b601f850160051c820191505b8181101562000284578281556001016200026f565b5050505b505050565b81516001600160401b03811115620002a957620002a9620001e8565b620002c181620002ba8454620001fe565b846200023a565b602080601f831160018114620002f95760008415620002e05750858301515b600019600386901b1c1916600185901b17855562000284565b600085815260208120601f198616915b828110156200032a5788860151825594840194600190910190840162000309565b5085821015620003495787850151600019600388901b60f8161c191681555b5050505050600190811b01905550565b60805160a05160c05160e051612a96620004656000396000818161075a01528181610a0701528181610a7d01528181610c5901528181610f7101528181610fe7015281816110dd0152818161118a01528181611b0c01528181611f0e0152612032015260008181610707015281816109ba01528181610a5801528181610b9901528181610d0301528181610e4a01528181610fc2015281816110a20152818161114f01528181611ad901528181611e310152611edb01526000818161059a015281816108f601528181610be201528181610eaf0152611f6b01526000818161051a0152818161082001528181610b1c01528181610d87015281816118fa0152611d6a0152612a966000f3fe608060405234801561001057600080fd5b50600436106101f05760003560e01c80638da5cb5b1161010f578063c415b95c116100a2578063e4383cdb11610071578063e4383cdb14610422578063f28f79721461042b578063f2fde38b1461043e578063ff9c8ac61461045157600080fd5b8063c415b95c146103ba578063c5492b4e146103cd578063d73792a9146103e0578063dd62ed3e146103e957600080fd5b80639d4e74c7116100de5780639d4e74c714610378578063a42dce8014610381578063a9059cbb14610394578063b0d54bcf146103a757600080fd5b80638da5cb5b1461032f578063929f8c751461035457806395d89b4114610367578063960b26a21461036f57600080fd5b8063336b78a01161018757806370a082311161015657806370a08231146102e2578063715018a61461030b5780638163e4251461031357806389cdfb3a1461031c57600080fd5b8063336b78a0146102ab57806351c6590a146102b357806356f43352146102c65780636d069a67146102cf57600080fd5b806318160ddd116101c357806318160ddd1461026e57806323b872dd146102805780632c237d2214610293578063313ce5671461029c57600080fd5b806306fdde03146101f55780630902f1ac14610213578063095ea7b3146102365780630a861f2a14610259575b600080fd5b6101fd610464565b60405161020a91906126a3565b60405180910390f35b61021b6104f6565b6040805193845260208401929092529082015260600161020a565b61024961024436600461270d565b61061b565b604051901515815260200161020a565b61026c610267366004612737565b610635565b005b6002545b60405190815260200161020a565b61024961028e366004612750565b610ae3565b610272600b5481565b6040516012815260200161020a565b61026c610b07565b61026c6102c1366004612737565b610c8a565b61027260085481565b61026c6102dd36600461278c565b611049565b6102726102f03660046127c8565b6001600160a01b031660009081526020819052604090205490565b61026c6117af565b610272600c5481565b61026c61032a366004612836565b6117c3565b6006546001600160a01b03165b6040516001600160a01b03909116815260200161020a565b610272610362366004612737565b611acf565b6101fd611b6e565b610272600e5481565b610272600a5481565b61026c61038f3660046127c8565b611b7d565b6102496103a236600461270d565b611bec565b61026c6103b5366004612737565b611bfa565b60095461033c906001600160a01b031681565b61026c6103db3660046128b0565b611c47565b61027261271081565b6102726103f73660046128cd565b6001600160a01b03918216600090815260016020908152604080832093909416825291909152205490565b610272600d5481565b61026c610439366004612900565b6120d5565b61026c61044c3660046127c8565b612197565b61027261045f36600461278c565b6121d2565b6060600380546104739061292c565b80601f016020809104026020016040519081016040528092919081815260200182805461049f9061292c565b80156104ec5780601f106104c1576101008083540402835291602001916104ec565b820191906000526020600020905b8154815290600101906020018083116104cf57829003601f168201915b5050505050905090565b6040516370a0823160e01b8152306004820152600090819081906001600160a01b037f000000000000000000000000000000000000000000000000000000000000000016906370a0823190602401602060405180830381865afa158015610561573d6000803e3d6000fd5b505050506040513d601f19601f820116820180604052508101906105859190612966565b6040516370a0823160e01b81523060048201527f00000000000000000000000000000000000000000000000000000000000000006001600160a01b0316906370a0823190602401602060405180830381865afa1580156105e9573d6000803e3d6000fd5b505050506040513d601f19601f8201168201806040525081019061060d9190612966565b600254925092509250909192565b6000336106298185856122a6565b60019150505b92915050565b61063d6122b3565b610645610b07565b6000811161069a5760405162461bcd60e51b815260206004820152601d60248201527f416d6f756e74206d7573742062652067726561746572207468616e203000000060448201526064015b60405180910390fd5b336000908152602081905260409020548111156106f25760405162461bcd60e51b8152602060048201526016602482015275496e73756666696369656e74204c5020746f6b656e7360501b6044820152606401610691565b60006106fd60025490565b6001600160a01b037f0000000000000000000000000000000000000000000000000000000000000000166000908152600760205260408120549192509082906107469085612995565b61075091906129ac565b6001600160a01b037f0000000000000000000000000000000000000000000000000000000000000000166000908152600760205260408120549192509083906107999086612995565b6107a391906129ac565b90506000821180156107b55750600081115b6107fa5760405162461bcd60e51b8152602060048201526016602482015275496e73756666696369656e74206c697175696469747960501b6044820152606401610691565b61080433856122dd565b60405163a9059cbb60e01b8152336004820152602481018390527f00000000000000000000000000000000000000000000000000000000000000006001600160a01b03169063a9059cbb906044016020604051808303816000875af1158015610871573d6000803e3d6000fd5b505050506040513d601f19601f8201168201806040525081019061089591906129ce565b6108da5760405162461bcd60e51b8152602060048201526016602482015275151c985b9cd9995c881d1bdad95b8c0819985a5b195960521b6044820152606401610691565b60405163a9059cbb60e01b8152336004820152602481018290527f00000000000000000000000000000000000000000000000000000000000000006001600160a01b03169063a9059cbb906044016020604051808303816000875af1158015610947573d6000803e3d6000fd5b505050506040513d601f19601f8201168201806040525081019061096b91906129ce565b6109b05760405162461bcd60e51b8152602060048201526016602482015275151c985b9cd9995c881d1bdad95b8c4819985a5b195960521b6044820152606401610691565b6001600160a01b037f000000000000000000000000000000000000000000000000000000000000000016600090815260076020526040812080548492906109f89084906129eb565b90915550506001600160a01b037f00000000000000000000000000000000000000000000000000000000000000001660009081526007602052604081208054839290610a459084906129eb565b9091555050604080516001600160a01b037f0000000000000000000000000000000000000000000000000000000000000000811682527f00000000000000000000000000000000000000000000000000000000000000001660208201528291849187917f4feefb98a7c84001da15ccf33564ab7260004d4ad400a973da1fbdfed0b650a8910160405180910390a4505050610ae06001600555565b50565b600033610af1858285612317565b610afc858585612390565b506001949350505050565b6040516370a0823160e01b81523060048201527f00000000000000000000000000000000000000000000000000000000000000006001600160a01b0316906370a0823190602401602060405180830381865afa158015610b6b573d6000803e3d6000fd5b505050506040513d601f19601f82011682018060405250810190610b8f9190612966565b6001600160a01b037f00000000000000000000000000000000000000000000000000000000000000008116600090815260076020526040908190209290925590516370a0823160e01b81523060048201527f0000000000000000000000000000000000000000000000000000000000000000909116906370a0823190602401602060405180830381865afa158015610c2b573d6000803e3d6000fd5b505050506040513d601f19601f82011682018060405250810190610c4f9190612966565b6001600160a01b037f000000000000000000000000000000000000000000000000000000000000000016600090815260076020526040902055565b610c926122b3565b60008111610ce25760405162461bcd60e51b815260206004820152601d60248201527f416d6f756e74206d7573742062652067726561746572207468616e20300000006044820152606401610691565b6000610ced82611acf565b9050600080610cfb60025490565b1115610d58577f00000000000000000000000000000000000000000000000000000000000000006001600160a01b0316600090815260076020526040902054600254610d479085612995565b610d5191906129ac565b9050610d5b565b50815b610d6533826123ef565b6040516323b872dd60e01b8152336004820152306024820152604481018490527f00000000000000000000000000000000000000000000000000000000000000006001600160a01b0316906323b872dd906064016020604051808303816000875af1158015610dd8573d6000803e3d6000fd5b505050506040513d601f19601f82011682018060405250810190610dfc91906129ce565b610e405760405162461bcd60e51b8152602060048201526015602482015274151c985b9cd9995c88105b1c1a184819985a5b1959605a1b6044820152606401610691565b6001600160a01b037f00000000000000000000000000000000000000000000000000000000000000001660009081526007602052604081208054859290610e889084906129fe565b90915550506040516323b872dd60e01b8152336004820152306024820152604481018390527f00000000000000000000000000000000000000000000000000000000000000006001600160a01b0316906323b872dd906064016020604051808303816000875af1158015610f00573d6000803e3d6000fd5b505050506040513d601f19601f82011682018060405250810190610f2491906129ce565b610f675760405162461bcd60e51b8152602060048201526014602482015273151c985b9cd9995c8810995d184819985a5b195960621b6044820152606401610691565b6001600160a01b037f00000000000000000000000000000000000000000000000000000000000000001660009081526007602052604081208054849290610faf9084906129fe565b9091555050604080516001600160a01b037f0000000000000000000000000000000000000000000000000000000000000000811682527f00000000000000000000000000000000000000000000000000000000000000001660208201528391859184917f86c3929a230b573aa47cd83759aed11b800d147abc23e246dfeb5ebbd7a110e3910160405180910390a45050610ae06001600555565b6110516122b3565b806001600160a01b0316836001600160a01b0316036110a05760405162461bcd60e51b815260206004820152600b60248201526a53616d6520746f6b656e7360a81b6044820152606401610691565b7f00000000000000000000000000000000000000000000000000000000000000006001600160a01b0316836001600160a01b0316148061111157507f00000000000000000000000000000000000000000000000000000000000000006001600160a01b0316836001600160a01b0316145b61114d5760405162461bcd60e51b815260206004820152600d60248201526c24b73b30b634b2103a37b5b2b760991b6044820152606401610691565b7f00000000000000000000000000000000000000000000000000000000000000006001600160a01b0316816001600160a01b031614806111be57507f00000000000000000000000000000000000000000000000000000000000000006001600160a01b0316816001600160a01b0316145b6111fa5760405162461bcd60e51b815260206004820152600d60248201526c24b73b30b634b2103a37b5b2b760991b6044820152606401610691565b600082116112385760405162461bcd60e51b815260206004820152600b60248201526a16995c9bc8185b5bdd5b9d60aa1b6044820152606401610691565b6001600160a01b038084166000908152600760205260408082205492841682528120546008549091906127109061126f9087612995565b61127991906129ac565b9050600061128782876129eb565b90506000612710600c548461129c9190612995565b6112a691906129ac565b90506000612710600d54856112bb9190612995565b6112c591906129ac565b90506000816112d484876129eb565b6112de91906129eb565b6040516323b872dd60e01b8152336004820152306024820152604481018b90529091506001600160a01b038b16906323b872dd906064016020604051808303816000875af1158015611334573d6000803e3d6000fd5b505050506040513d601f19601f8201168201806040525081019061135891906129ce565b6113a45760405162461bcd60e51b815260206004820152601760248201527f5472616e7366657220746f6b656e496e206661696c65640000000000000000006044820152606401610691565b82156113ef5782600a60008282546113bc91906129fe565b90915550506001600160a01b038a16600090815260076020526040812080548592906113e99084906129fe565b90915550505b81156115025760405163a9059cbb60e01b8152336004820152602481018390526001600160a01b038b169063a9059cbb906044016020604051808303816000875af1158015611442573d6000803e3d6000fd5b505050506040513d601f19601f8201168201806040525081019061146691906129ce565b6114aa5760405162461bcd60e51b815260206004820152601560248201527414ddd85c1c195c881c9958985d194819985a5b1959605a1b6044820152606401610691565b336001600160a01b0316600080516020612a41833981519152836040516114f9918152604060208201819052600e908201526d535741505045525f52454241544560901b606082015260800190565b60405180910390a25b80156116025760095460405163a9059cbb60e01b81526001600160a01b03918216600482015260248101839052908b169063a9059cbb906044016020604051808303816000875af115801561155b573d6000803e3d6000fd5b505050506040513d601f19601f8201168201806040525081019061157f91906129ce565b6115cb5760405162461bcd60e51b815260206004820152601c60248201527f50726f746f636f6c20666565207472616e73666572206661696c6564000000006044820152606401610691565b60405181906001600160a01b038c16907f06c5efeff5c320943d265dc4e5f1af95ad523555ce0c1957e367dda5514572df90600090a35b600061160f8b8b8b6121d2565b9050600081116116615760405162461bcd60e51b815260206004820152601a60248201527f496e73756666696369656e74206f757470757420616d6f756e740000000000006044820152606401610691565b60405163a9059cbb60e01b8152336004820152602481018290526001600160a01b038a169063a9059cbb906044016020604051808303816000875af11580156116ae573d6000803e3d6000fd5b505050506040513d601f19601f820116820180604052508101906116d291906129ce565b61170c5760405162461bcd60e51b815260206004820152600b60248201526a14ddd85c0811985a5b195960aa1b6044820152606401610691565b61171685896129fe565b6001600160a01b03808d1660009081526007602052604080822093909355908b168152908120805483929061174c9084906129eb565b9091555050604080516001600160a01b03808e1682528b166020820152829187917fdb587d878116df0bdd4fe154699aa2c5f439da001cc811dfd05d9f589fc5a8ee910160405180910390a350505050505050506117aa6001600555565b505050565b6117b7612425565b6117c16000612452565b565b6117cb612425565b8281146118135760405162461bcd60e51b8152602060048201526016602482015275082e4e4c2f2e640d8cadccee8d040dad2e6dac2e8c6d60531b6044820152606401610691565b6000805b828110156118575783838281811061183157611831612a11565b905060200201358261184391906129fe565b91508061184f81612a27565b915050611817565b50600a548111156118b45760405162461bcd60e51b815260206004820152602160248201527f496e73756666696369656e74204c5020696e63656e746976652062616c616e636044820152606560f81b6064820152608401610691565b80600a60008282546118c691906129eb565b90915550600090505b84811015611ac75760008484838181106118eb576118eb612a11565b905060200201351115611ab5577f00000000000000000000000000000000000000000000000000000000000000006001600160a01b031663a9059cbb87878481811061193957611939612a11565b905060200201602081019061194e91906127c8565b86868581811061196057611960612a11565b6040516001600160e01b031960e087901b1681526001600160a01b03909416600485015260200291909101356024830152506044016020604051808303816000875af11580156119b4573d6000803e3d6000fd5b505050506040513d601f19601f820116820180604052508101906119d891906129ce565b611a245760405162461bcd60e51b815260206004820152601c60248201527f4c5020696e63656e74697665207472616e73666572206661696c6564000000006044820152606401610691565b858582818110611a3657611a36612a11565b9050602002016020810190611a4b91906127c8565b6001600160a01b0316600080516020612a41833981519152858584818110611a7557611a75612a11565b90506020020135604051611aac91815260406020820181905260099082015268131417d49155d0549160ba1b606082015260800190565b60405180910390a25b80611abf81612a27565b9150506118cf565b505050505050565b6001600160a01b037f00000000000000000000000000000000000000000000000000000000000000008116600090815260076020526040808220547f00000000000000000000000000000000000000000000000000000000000000009093168252812054909190811580611b41575080155b15611b5957611b51600285612995565b949350505050565b81611b648286612995565b611b5191906129ac565b6060600480546104739061292c565b611b85612425565b6001600160a01b038116611bca5760405162461bcd60e51b815260206004820152600c60248201526b5a65726f206164647265737360a01b6044820152606401610691565b600980546001600160a01b0319166001600160a01b0392909216919091179055565b600033610629818585612390565b611c02612425565b6064811115611c425760405162461bcd60e51b815260206004820152600c60248201526b08ccaca40e8dede40d0d2ced60a31b6044820152606401610691565b600855565b3360009081526020819052604090205480611c995760405162461bcd60e51b8152602060048201526012602482015271139bc81314081d1bdad95b9cc81bdddb995960721b6044820152606401610691565b6000611ca460025490565b90506000670de0b6b3a76400008284600a54611cc09190612995565b611cd290670de0b6b3a7640000612995565b611cdc91906129ac565b611ce691906129ac565b905060008111611d315760405162461bcd60e51b81526020600482015260166024820152754e6f20696e63656e746976657320746f20636c61696d60501b6044820152606401610691565b80600a6000828254611d4391906129eb565b90915550508315611ed15760405163a9059cbb60e01b8152336004820152602481018290527f00000000000000000000000000000000000000000000000000000000000000006001600160a01b03169063a9059cbb906044016020604051808303816000875af1158015611dbb573d6000803e3d6000fd5b505050506040513d601f19601f82011682018060405250810190611ddf91906129ce565b611e275760405162461bcd60e51b8152602060048201526019602482015278125b98d95b9d1a5d99481d1c985b9cd9995c8819985a5b1959603a1b6044820152606401610691565b6001600160a01b037f00000000000000000000000000000000000000000000000000000000000000001660009081526007602052604081208054839290611e6f9084906129eb565b90915550506040513390600080516020612a4183398151915290611ec4908481526040602082018190526016908201527504c505f5245574152445f434c41494d5f544f4b454e360541b606082015260800190565b60405180910390a26120cf565b6001600160a01b037f00000000000000000000000000000000000000000000000000000000000000008116600090815260076020526040808220547f00000000000000000000000000000000000000000000000000000000000000009093168252812054909190611f429084612995565b611f4c91906129ac565b60405163a9059cbb60e01b8152336004820152602481018290529091507f00000000000000000000000000000000000000000000000000000000000000006001600160a01b03169063a9059cbb906044016020604051808303816000875af1158015611fbc573d6000803e3d6000fd5b505050506040513d601f19601f82011682018060405250810190611fe091906129ce565b6120285760405162461bcd60e51b8152602060048201526019602482015278125b98d95b9d1a5d99481d1c985b9cd9995c8819985a5b1959603a1b6044820152606401610691565b6001600160a01b037f000000000000000000000000000000000000000000000000000000000000000016600090815260076020526040812080548392906120709084906129eb565b90915550506040513390600080516020612a41833981519152906120c590848152604060208201819052601690820152754c505f5245574152445f434c41494d5f544f4b454e3160501b606082015260800190565b60405180910390a2505b50505050565b6120dd612425565b612710816120eb84866129fe565b6120f591906129fe565b146121425760405162461bcd60e51b815260206004820152601760248201527f536861726573206d7573742073756d20746f20313030250000000000000000006044820152606401610691565b600c839055600d829055600e81905560408051848152602081018490529081018290527f4677abe8dbff9a9de3cc464f74e0c16415fc3e839597772eb5fe5ece02a6a90a9060600160405180910390a1505050565b61219f612425565b6001600160a01b0381166121c957604051631e4fbdf760e01b815260006004820152602401610691565b610ae081612452565b6001600160a01b0380821660009081526007602052604080822054928616825281205490919080158015906122075750600082115b61224c5760405162461bcd60e51b8152602060048201526016602482015275496e73756666696369656e74206c697175696469747960501b6044820152606401610691565b60006127106008548761225f9190612995565b61226991906129ac565b9050600061227782886129eb565b9050600061228582856129fe565b61228f8387612995565b61229991906129ac565b9998505050505050505050565b6117aa83838360016124a4565b6002600554036122d657604051633ee5aeb560e01b815260040160405180910390fd5b6002600555565b6001600160a01b03821661230757604051634b637e8f60e11b815260006004820152602401610691565b61231382600083612579565b5050565b6001600160a01b038381166000908152600160209081526040808320938616835292905220546000198110156120cf578181101561238157604051637dc7a0d960e11b81526001600160a01b03841660048201526024810182905260448101839052606401610691565b6120cf848484840360006124a4565b6001600160a01b0383166123ba57604051634b637e8f60e11b815260006004820152602401610691565b6001600160a01b0382166123e45760405163ec442f0560e01b815260006004820152602401610691565b6117aa838383612579565b6001600160a01b0382166124195760405163ec442f0560e01b815260006004820152602401610691565b61231360008383612579565b6006546001600160a01b031633146117c15760405163118cdaa760e01b8152336004820152602401610691565b600680546001600160a01b038381166001600160a01b0319831681179093556040519116919082907f8be0079c531659141344cd1fd0a4f28419497f9722a3daafe3b4186f6b6457e090600090a35050565b6001600160a01b0384166124ce5760405163e602df0560e01b815260006004820152602401610691565b6001600160a01b0383166124f857604051634a1406b160e11b815260006004820152602401610691565b6001600160a01b03808516600090815260016020908152604080832093871683529290522082905580156120cf57826001600160a01b0316846001600160a01b03167f8c5be1e5ebec7d5bd14f71427d1e84f3dd0314c0f7b2291e5b200ac8c7c3b9258460405161256b91815260200190565b60405180910390a350505050565b6001600160a01b0383166125a457806002600082825461259991906129fe565b909155506126169050565b6001600160a01b038316600090815260208190526040902054818110156125f75760405163391434e360e21b81526001600160a01b03851660048201526024810182905260448101839052606401610691565b6001600160a01b03841660009081526020819052604090209082900390555b6001600160a01b03821661263257600280548290039055612651565b6001600160a01b03821660009081526020819052604090208054820190555b816001600160a01b0316836001600160a01b03167fddf252ad1be2c89b69c2b068fc378daa952ba7f163c4a11628f55a4df523b3ef8360405161269691815260200190565b60405180910390a3505050565b600060208083528351808285015260005b818110156126d0578581018301518582016040015282016126b4565b506000604082860101526040601f19601f8301168501019250505092915050565b80356001600160a01b038116811461270857600080fd5b919050565b6000806040838503121561272057600080fd5b612729836126f1565b946020939093013593505050565b60006020828403121561274957600080fd5b5035919050565b60008060006060848603121561276557600080fd5b61276e846126f1565b925061277c602085016126f1565b9150604084013590509250925092565b6000806000606084860312156127a157600080fd5b6127aa846126f1565b9250602084013591506127bf604085016126f1565b90509250925092565b6000602082840312156127da57600080fd5b6127e3826126f1565b9392505050565b60008083601f8401126127fc57600080fd5b50813567ffffffffffffffff81111561281457600080fd5b6020830191508360208260051b850101111561282f57600080fd5b9250929050565b6000806000806040858703121561284c57600080fd5b843567ffffffffffffffff8082111561286457600080fd5b612870888389016127ea565b9096509450602087013591508082111561288957600080fd5b50612896878288016127ea565b95989497509550505050565b8015158114610ae057600080fd5b6000602082840312156128c257600080fd5b81356127e3816128a2565b600080604083850312156128e057600080fd5b6128e9836126f1565b91506128f7602084016126f1565b90509250929050565b60008060006060848603121561291557600080fd5b505081359360208301359350604090920135919050565b600181811c9082168061294057607f821691505b60208210810361296057634e487b7160e01b600052602260045260246000fd5b50919050565b60006020828403121561297857600080fd5b5051919050565b634e487b7160e01b600052601160045260246000fd5b808202811582820484141761062f5761062f61297f565b6000826129c957634e487b7160e01b600052601260045260246000fd5b500490565b6000602082840312156129e057600080fd5b81516127e3816128a2565b8181038181111561062f5761062f61297f565b8082018082111561062f5761062f61297f565b634e487b7160e01b600052603260045260246000fd5b600060018201612a3957612a3961297f565b506001019056fef0b441e8c48cf479a1c110ac8f67967e2c14c98ec18d7905b013cc9ce4b4106ba2646970667358221220f97ee6b9808f9d0294693c734d7a97aa4d466d433e9f4f52cd3063e69b58731064736f6c63430008140033",
  "linkReferences": {},
  "deployedLinkReferences": {}
}