{
  "_format": "hh-sol-artifact-1",
  "contractName": "Pool",
  "sourceName": "contracts/Pool.sol",
  "abi": [
    {
      "inputs": [
        {
          "internalType": "address",
          "name": "token0",
          "type": "address"
        },
        {
          "internalType": "address",
          "name": "token1",
          "type": "address"
        }
      ],
      "stateMutability": "nonpayable",
      "type": "constructor"
    },
    {
      "inputs": [
        {
          "internalType": "address",
          "name": "spender",
          "type": "address"
        },
        {
          "internalType": "uint256",
          "name": "allowance",
          "type": "uint256"
        },
        {
          "internalType": "uint256",
          "name": "needed",
          "type": "uint256"
        }
      ],
      "name": "ERC20InsufficientAllowance",
      "type": "error"
    },
    {
      "inputs": [
        {
          "internalType": "address",
          "name": "sender",
          "type": "address"
        },
        {
          "internalType": "uint256",
          "name": "balance",
          "type": "uint256"
        },
        {
          "internalType": "uint256",
          "name": "needed",
          "type": "uint256"
        }
      ],
      "name": "ERC20InsufficientBalance",
      "type": "error"
    },
    {
      "inputs": [
        {
          "internalType": "address",
          "name": "approver",
          "type": "address"
        }
      ],
      "name": "ERC20InvalidApprover",
      "type": "error"
    },
    {
      "inputs": [
        {
          "internalType": "address",
          "name": "receiver",
          "type": "address"
        }
      ],
      "name": "ERC20InvalidReceiver",
      "type": "error"
    },
    {
      "inputs": [
        {
          "internalType": "address",
          "name": "sender",
          "type": "address"
        }
      ],
      "name": "ERC20InvalidSender",
      "type": "error"
    },
    {
      "inputs": [
        {
          "internalType": "address",
          "name": "spender",
          "type": "address"
        }
      ],
      "name": "ERC20InvalidSpender",
      "type": "error"
    },
    {
      "inputs": [],
      "name": "ReentrancyGuardReentrantCall",
      "type": "error"
    },
    {
      "anonymous": false,
      "inputs": [
        {
          "indexed": true,
          "internalType": "uint256",
          "name": "lpToken",
          "type": "uint256"
        },
        {
          "indexed": false,
          "internalType": "address",
          "name": "token0",
          "type": "address"
        },
        {
          "indexed": true,
          "internalType": "uint256",
          "name": "amount0",
          "type": "uint256"
        },
        {
          "indexed": false,
          "internalType": "address",
          "name": "token1",
          "type": "address"
        },
        {
          "indexed": true,
          "internalType": "uint256",
          "name": "amount1",
          "type": "uint256"
        }
      ],
      "name": "AddedLiquidity",
      "type": "event"
    },
    {
      "anonymous": false,
      "inputs": [
        {
          "indexed": true,
          "internalType": "address",
          "name": "owner",
          "type": "address"
        },
        {
          "indexed": true,
          "internalType": "address",
          "name": "spender",
          "type": "address"
        },
        {
          "indexed": false,
          "internalType": "uint256",
          "name": "value",
          "type": "uint256"
        }
      ],
      "name": "Approval",
      "type": "event"
    },
    {
      "anonymous": false,
      "inputs": [
        {
          "indexed": false,
          "internalType": "address",
          "name": "tokenIn",
          "type": "address"
        },
        {
          "indexed": true,
          "internalType": "uint256",
          "name": "amountIn",
          "type": "uint256"
        },
        {
          "indexed": false,
          "internalType": "address",
          "name": "tokenOut",
          "type": "address"
        },
        {
          "indexed": true,
          "internalType": "uint256",
          "name": "amountOut",
          "type": "uint256"
        }
      ],
      "name": "Swapped",
      "type": "event"
    },
    {
      "anonymous": false,
      "inputs": [
        {
          "indexed": true,
          "internalType": "address",
          "name": "from",
          "type": "address"
        },
        {
          "indexed": true,
          "internalType": "address",
          "name": "to",
          "type": "address"
        },
        {
          "indexed": false,
          "internalType": "uint256",
          "name": "value",
          "type": "uint256"
        }
      ],
      "name": "Transfer",
      "type": "event"
    },
    {
      "inputs": [
        {
          "internalType": "uint256",
          "name": "amount0",
          "type": "uint256"
        }
      ],
      "name": "addLiquidity",
      "outputs": [],
      "stateMutability": "nonpayable",
      "type": "function"
    },
    {
      "inputs": [
        {
          "internalType": "address",
          "name": "owner",
          "type": "address"
        },
        {
          "internalType": "address",
          "name": "spender",
          "type": "address"
        }
      ],
      "name": "allowance",
      "outputs": [
        {
          "internalType": "uint256",
          "name": "",
          "type": "uint256"
        }
      ],
      "stateMutability": "view",
      "type": "function"
    },
    {
      "inputs": [
        {
          "internalType": "address",
          "name": "spender",
          "type": "address"
        },
        {
          "internalType": "uint256",
          "name": "value",
          "type": "uint256"
        }
      ],
      "name": "approve",
      "outputs": [
        {
          "internalType": "bool",
          "name": "",
          "type": "bool"
        }
      ],
      "stateMutability": "nonpayable",
      "type": "function"
    },
    {
      "inputs": [
        {
          "internalType": "address",
          "name": "account",
          "type": "address"
        }
      ],
      "name": "balanceOf",
      "outputs": [
        {
          "internalType": "uint256",
          "name": "",
          "type": "uint256"
        }
      ],
      "stateMutability": "view",
      "type": "function"
    },
    {
      "inputs": [],
      "name": "decimals",
      "outputs": [
        {
          "internalType": "uint8",
          "name": "",
          "type": "uint8"
        }
      ],
      "stateMutability": "view",
      "type": "function"
    },
    {
      "inputs": [
        {
          "internalType": "address",
          "name": "tokenIn",
          "type": "address"
        },
        {
          "internalType": "uint256",
          "name": "amountIn",
          "type": "uint256"
        },
        {
          "internalType": "address",
          "name": "tokenOut",
          "type": "address"
        }
      ],
      "name": "getAmountOut",
      "outputs": [
        {
          "internalType": "uint256",
          "name": "",
          "type": "uint256"
        }
      ],
      "stateMutability": "view",
      "type": "function"
    },
    {
      "inputs": [
        {
          "internalType": "uint256",
          "name": "amount0",
          "type": "uint256"
        }
      ],
      "name": "getRequiredAmount1",
      "outputs": [
        {
          "internalType": "uint256",
          "name": "",
          "type": "uint256"
        }
      ],
      "stateMutability": "view",
      "type": "function"
    },
    {
      "inputs": [],
      "name": "getReserves",
      "outputs": [
        {
          "internalType": "uint256",
          "name": "",
          "type": "uint256"
        },
        {
          "internalType": "uint256",
          "name": "",
          "type": "uint256"
        },
        {
          "internalType": "uint256",
          "name": "",
          "type": "uint256"
        }
      ],
      "stateMutability": "view",
      "type": "function"
    },
    {
      "inputs": [],
      "name": "name",
      "outputs": [
        {
          "internalType": "string",
          "name": "",
          "type": "string"
        }
      ],
      "stateMutability": "view",
      "type": "function"
    },
    {
      "inputs": [
        {
          "internalType": "address",
          "name": "tokenIn",
          "type": "address"
        },
        {
          "internalType": "uint256",
          "name": "amountIn",
          "type": "uint256"
        },
        {
          "internalType": "address",
          "name": "tokenOut",
          "type": "address"
        }
      ],
      "name": "swap",
      "outputs": [],
      "stateMutability": "nonpayable",
      "type": "function"
    },
    {
      "inputs": [],
      "name": "symbol",
      "outputs": [
        {
          "internalType": "string",
          "name": "",
          "type": "string"
        }
      ],
      "stateMutability": "view",
      "type": "function"
    },
    {
      "inputs": [],
      "name": "totalSupply",
      "outputs": [
        {
          "internalType": "uint256",
          "name": "",
          "type": "uint256"
        }
      ],
      "stateMutability": "view",
      "type": "function"
    },
    {
      "inputs": [
        {
          "internalType": "address",
          "name": "to",
          "type": "address"
        },
        {
          "internalType": "uint256",
          "name": "value",
          "type": "uint256"
        }
      ],
      "name": "transfer",
      "outputs": [
        {
          "internalType": "bool",
          "name": "",
          "type": "bool"
        }
      ],
      "stateMutability": "nonpayable",
      "type": "function"
    },
    {
      "inputs": [
        {
          "internalType": "address",
          "name": "from",
          "type": "address"
        },
        {
          "internalType": "address",
          "name": "to",
          "type": "address"
        },
        {
          "internalType": "uint256",
          "name": "value",
          "type": "uint256"
        }
      ],
      "name": "transferFrom",
      "outputs": [
        {
          "internalType": "bool",
          "name": "",
          "type": "bool"
        }
      ],
      "stateMutability": "nonpayable",
      "type": "function"
    },
    {
      "inputs": [
        {
          "internalType": "uint256",
          "name": "amount0",
          "type": "uint256"
        },
        {
          "internalType": "uint256",
          "name": "amount1",
          "type": "uint256"
        }
      ],
      "name": "withdrawingliquidity",
      "outputs": [],
      "stateMutability": "nonpayable",
      "type": "function"
    }
  ],
  "bytecode": "0x6101006040523480156200001257600080fd5b50604051620019b7380380620019b78339810160408190526200003591620000e0565b6040518060400160405280600781526020016626282a37b5b2b760c91b8152506040518060400160405280600381526020016213141560ea1b81525081818160039081620000849190620001bd565b506004620000938282620001bd565b505060016005555050506001600160a01b039182166080819052911660a081905260c09190915260e05262000289565b80516001600160a01b0381168114620000db57600080fd5b919050565b60008060408385031215620000f457600080fd5b620000ff83620000c3565b91506200010f60208401620000c3565b90509250929050565b634e487b7160e01b600052604160045260246000fd5b600181811c908216806200014357607f821691505b6020821081036200016457634e487b7160e01b600052602260045260246000fd5b50919050565b601f821115620001b857600081815260208120601f850160051c81016020861015620001935750805b601f850160051c820191505b81811015620001b4578281556001016200019f565b5050505b505050565b81516001600160401b03811115620001d957620001d962000118565b620001f181620001ea84546200012e565b846200016a565b602080601f831160018114620002295760008415620002105750858301515b600019600386901b1c1916600185901b178555620001b4565b600085815260208120601f198616915b828110156200025a5788860151825594840194600190910190840162000239565b5085821015620002795787850151600019600388901b60f8161c191681555b5050505050600190811b01905550565b60805160a05160c05160e0516116846200033360003960008181610751015281816107c7015281816108c00152818161096d01528181610c750152610fac0152600081816104e30152818161062a015281816107a2015281816108850152818161093201528181610c4201528181610d520152610e8b0152600081816103a60152818161068f0152610eea015260008181610326015281816105670152610dc801526116846000f3fe608060405234801561001057600080fd5b50600436106100f55760003560e01c80636d069a6711610097578063a9059cbb11610066578063a9059cbb146101fe578063d09ccb9d14610211578063dd62ed3e14610224578063ff9c8ac61461025d57600080fd5b80636d069a67146101a757806370a08231146101ba578063929f8c75146101e357806395d89b41146101f657600080fd5b806318160ddd116100d357806318160ddd1461015e57806323b872dd14610170578063313ce5671461018357806351c6590a1461019257600080fd5b806306fdde03146100fa5780630902f1ac14610118578063095ea7b31461013b575b600080fd5b610102610270565b60405161010f91906113c8565b60405180910390f35b610120610302565b6040805193845260208401929092529082015260600161010f565b61014e610149366004611432565b610427565b604051901515815260200161010f565b6002545b60405190815260200161010f565b61014e61017e36600461145c565b610441565b6040516012815260200161010f565b6101a56101a0366004611498565b610465565b005b6101a56101b53660046114b1565b61082c565b6101626101c83660046114ed565b6001600160a01b031660009081526020819052604090205490565b6101626101f1366004611498565b610c38565b610102610cd7565b61014e61020c366004611432565b610ce6565b6101a561021f36600461150f565b610cf4565b610162610232366004611531565b6001600160a01b03918216600090815260016020908152604080832093909416825291909152205490565b61016261026b3660046114b1565b610ff4565b60606003805461027f90611564565b80601f01602080910402602001604051908101604052809291908181526020018280546102ab90611564565b80156102f85780601f106102cd576101008083540402835291602001916102f8565b820191906000526020600020905b8154815290600101906020018083116102db57829003601f168201915b5050505050905090565b6040516370a0823160e01b8152306004820152600090819081906001600160a01b037f000000000000000000000000000000000000000000000000000000000000000016906370a0823190602401602060405180830381865afa15801561036d573d6000803e3d6000fd5b505050506040513d601f19601f82011682018060405250810190610391919061159e565b6040516370a0823160e01b81523060048201527f00000000000000000000000000000000000000000000000000000000000000006001600160a01b0316906370a0823190602401602060405180830381865afa1580156103f5573d6000803e3d6000fd5b505050506040513d601f19601f82011682018060405250810190610419919061159e565b600254925092509250909192565b600033610435818585611044565b60019150505b92915050565b60003361044f858285611051565b61045a8585856110d0565b506001949350505050565b61046d61112f565b600081116104c25760405162461bcd60e51b815260206004820152601d60248201527f416d6f756e74206d7573742062652067726561746572207468616e203000000060448201526064015b60405180910390fd5b60006104cd82610c38565b90506000806104db60025490565b1115610538577f00000000000000000000000000000000000000000000000000000000000000006001600160a01b031660009081526006602052604090205460025461052790856115cd565b61053191906115e4565b905061053b565b50815b6105453382611159565b6040516323b872dd60e01b8152336004820152306024820152604481018490527f00000000000000000000000000000000000000000000000000000000000000006001600160a01b0316906323b872dd906064016020604051808303816000875af11580156105b8573d6000803e3d6000fd5b505050506040513d601f19601f820116820180604052508101906105dc9190611606565b6106205760405162461bcd60e51b8152602060048201526015602482015274151c985b9cd9995c88105b1c1a184819985a5b1959605a1b60448201526064016104b9565b6001600160a01b037f00000000000000000000000000000000000000000000000000000000000000001660009081526006602052604081208054859290610668908490611628565b90915550506040516323b872dd60e01b8152336004820152306024820152604481018390527f00000000000000000000000000000000000000000000000000000000000000006001600160a01b0316906323b872dd906064016020604051808303816000875af11580156106e0573d6000803e3d6000fd5b505050506040513d601f19601f820116820180604052508101906107049190611606565b6107475760405162461bcd60e51b8152602060048201526014602482015273151c985b9cd9995c8810995d184819985a5b195960621b60448201526064016104b9565b6001600160a01b037f0000000000000000000000000000000000000000000000000000000000000000166000908152600660205260408120805484929061078f908490611628565b9091555050604080516001600160a01b037f0000000000000000000000000000000000000000000000000000000000000000811682527f00000000000000000000000000000000000000000000000000000000000000001660208201528391859184917f86c3929a230b573aa47cd83759aed11b800d147abc23e246dfeb5ebbd7a110e3910160405180910390a450506108296001600555565b50565b61083461112f565b806001600160a01b0316836001600160a01b0316036108835760405162461bcd60e51b815260206004820152600b60248201526a53616d6520746f6b656e7360a81b60448201526064016104b9565b7f00000000000000000000000000000000000000000000000000000000000000006001600160a01b0316836001600160a01b031614806108f457507f00000000000000000000000000000000000000000000000000000000000000006001600160a01b0316836001600160a01b0316145b6109305760405162461bcd60e51b815260206004820152600d60248201526c24b73b30b634b2103a37b5b2b760991b60448201526064016104b9565b7f00000000000000000000000000000000000000000000000000000000000000006001600160a01b0316816001600160a01b031614806109a157507f00000000000000000000000000000000000000000000000000000000000000006001600160a01b0316816001600160a01b0316145b6109dd5760405162461bcd60e51b815260206004820152600d60248201526c24b73b30b634b2103a37b5b2b760991b60448201526064016104b9565b60008211610a1b5760405162461bcd60e51b815260206004820152600b60248201526a16995c9bc8185b5bdd5b9d60aa1b60448201526064016104b9565b6000610a28848484610ff4565b6040516323b872dd60e01b8152336004820152306024820152604481018590529091506001600160a01b038516906323b872dd906064016020604051808303816000875af1158015610a7e573d6000803e3d6000fd5b505050506040513d601f19601f82011682018060405250810190610aa29190611606565b610adc5760405162461bcd60e51b815260206004820152600b60248201526a14ddd85c0811985a5b195960aa1b60448201526064016104b9565b60405163a9059cbb60e01b8152336004820152602481018290526001600160a01b0383169063a9059cbb906044016020604051808303816000875af1158015610b29573d6000803e3d6000fd5b505050506040513d601f19601f82011682018060405250810190610b4d9190611606565b610b875760405162461bcd60e51b815260206004820152600b60248201526a14ddd85c0811985a5b195960aa1b60448201526064016104b9565b6001600160a01b03841660009081526006602052604081208054859290610baf908490611628565b90915550506001600160a01b03821660009081526006602052604081208054839290610bdc90849061163b565b9091555050604080516001600160a01b03808716825284166020820152829185917fdb587d878116df0bdd4fe154699aa2c5f439da001cc811dfd05d9f589fc5a8ee910160405180910390a350610c336001600555565b505050565b6001600160a01b037f00000000000000000000000000000000000000000000000000000000000000008116600090815260066020526040808220547f00000000000000000000000000000000000000000000000000000000000000009093168252812054909190811580610caa575080155b15610cc257610cba6002856115cd565b949350505050565b81610ccd82866115cd565b610cba91906115e4565b60606004805461027f90611564565b6000336104358185856110d0565b600082118015610d045750600081115b610d505760405162461bcd60e51b815260206004820152601d60248201527f416d6f756e74206d7573742062652067726561746572207468616e203000000060448201526064016104b9565b7f00000000000000000000000000000000000000000000000000000000000000006001600160a01b0316600090815260066020526040812054600254610d9690856115cd565b610da091906115e4565b9050610dac3382611193565b60405163a9059cbb60e01b8152336004820152602481018490527f00000000000000000000000000000000000000000000000000000000000000006001600160a01b03169063a9059cbb906044016020604051808303816000875af1158015610e19573d6000803e3d6000fd5b505050506040513d601f19601f82011682018060405250810190610e3d9190611606565b610e815760405162461bcd60e51b8152602060048201526015602482015274151c985b9cd9995c88105b1c1a184819985a5b1959605a1b60448201526064016104b9565b6001600160a01b037f00000000000000000000000000000000000000000000000000000000000000001660009081526006602052604081208054859290610ec990849061163b565b909155505060405163a9059cbb60e01b8152336004820152602481018390527f00000000000000000000000000000000000000000000000000000000000000006001600160a01b03169063a9059cbb906044016020604051808303816000875af1158015610f3b573d6000803e3d6000fd5b505050506040513d601f19601f82011682018060405250810190610f5f9190611606565b610fa25760405162461bcd60e51b8152602060048201526014602482015273151c985b9cd9995c8810995d184819985a5b195960621b60448201526064016104b9565b6001600160a01b037f00000000000000000000000000000000000000000000000000000000000000001660009081526006602052604081208054849290610fea90849061163b565b9091555050505050565b6001600160a01b03808216600090815260066020526040808220549286168252812054909190826110258683611628565b61102f87856115cd565b61103991906115e4565b979650505050505050565b610c3383838360016111c9565b6001600160a01b038381166000908152600160209081526040808320938616835292905220546000198110156110ca57818110156110bb57604051637dc7a0d960e11b81526001600160a01b038416600482015260248101829052604481018390526064016104b9565b6110ca848484840360006111c9565b50505050565b6001600160a01b0383166110fa57604051634b637e8f60e11b8152600060048201526024016104b9565b6001600160a01b0382166111245760405163ec442f0560e01b8152600060048201526024016104b9565b610c3383838361129e565b60026005540361115257604051633ee5aeb560e01b815260040160405180910390fd5b6002600555565b6001600160a01b0382166111835760405163ec442f0560e01b8152600060048201526024016104b9565b61118f6000838361129e565b5050565b6001600160a01b0382166111bd57604051634b637e8f60e11b8152600060048201526024016104b9565b61118f8260008361129e565b6001600160a01b0384166111f35760405163e602df0560e01b8152600060048201526024016104b9565b6001600160a01b03831661121d57604051634a1406b160e11b8152600060048201526024016104b9565b6001600160a01b03808516600090815260016020908152604080832093871683529290522082905580156110ca57826001600160a01b0316846001600160a01b03167f8c5be1e5ebec7d5bd14f71427d1e84f3dd0314c0f7b2291e5b200ac8c7c3b9258460405161129091815260200190565b60405180910390a350505050565b6001600160a01b0383166112c95780600260008282546112be9190611628565b9091555061133b9050565b6001600160a01b0383166000908152602081905260409020548181101561131c5760405163391434e360e21b81526001600160a01b038516600482015260248101829052604481018390526064016104b9565b6001600160a01b03841660009081526020819052604090209082900390555b6001600160a01b03821661135757600280548290039055611376565b6001600160a01b03821660009081526020819052604090208054820190555b816001600160a01b0316836001600160a01b03167fddf252ad1be2c89b69c2b068fc378daa952ba7f163c4a11628f55a4df523b3ef836040516113bb91815260200190565b60405180910390a3505050565b600060208083528351808285015260005b818110156113f5578581018301518582016040015282016113d9565b506000604082860101526040601f19601f8301168501019250505092915050565b80356001600160a01b038116811461142d57600080fd5b919050565b6000806040838503121561144557600080fd5b61144e83611416565b946020939093013593505050565b60008060006060848603121561147157600080fd5b61147a84611416565b925061148860208501611416565b9150604084013590509250925092565b6000602082840312156114aa57600080fd5b5035919050565b6000806000606084860312156114c657600080fd5b6114cf84611416565b9250602084013591506114e460408501611416565b90509250925092565b6000602082840312156114ff57600080fd5b61150882611416565b9392505050565b6000806040838503121561152257600080fd5b50508035926020909101359150565b6000806040838503121561154457600080fd5b61154d83611416565b915061155b60208401611416565b90509250929050565b600181811c9082168061157857607f821691505b60208210810361159857634e487b7160e01b600052602260045260246000fd5b50919050565b6000602082840312156115b057600080fd5b5051919050565b634e487b7160e01b600052601160045260246000fd5b808202811582820484141761043b5761043b6115b7565b60008261160157634e487b7160e01b600052601260045260246000fd5b500490565b60006020828403121561161857600080fd5b8151801515811461150857600080fd5b8082018082111561043b5761043b6115b7565b8181038181111561043b5761043b6115b756fea2646970667358221220f6af8e404282c3d5d9ae2af6d22f75e9bfd89494d488d41a055bdd9f059a7ed164736f6c63430008140033",
  "linkReferences": {},
  "deployedLinkReferences": {}
}